{
	"smart-contracts/remix-ide/contracts/Sample.sol": {
		"Sample": {
			"abi": [
				{
					"inputs": [
						{
							"internalType": "address",
							"name": "_tokenAuthorityPublicKey",
							"type": "address"
						}
					],
					"stateMutability": "nonpayable",
					"type": "constructor"
				},
				{
					"inputs": [],
					"name": "ECDSAInvalidSignature",
					"type": "error"
				},
				{
					"inputs": [
						{
							"internalType": "uint256",
							"name": "length",
							"type": "uint256"
						}
					],
					"name": "ECDSAInvalidSignatureLength",
					"type": "error"
				},
				{
					"inputs": [
						{
							"internalType": "bytes32",
							"name": "s",
							"type": "bytes32"
						}
					],
					"name": "ECDSAInvalidSignatureS",
					"type": "error"
				},
				{
					"inputs": [
						{
							"internalType": "address",
							"name": "owner",
							"type": "address"
						}
					],
					"name": "OwnableInvalidOwner",
					"type": "error"
				},
				{
					"inputs": [
						{
							"internalType": "address",
							"name": "account",
							"type": "address"
						}
					],
					"name": "OwnableUnauthorizedAccount",
					"type": "error"
				},
				{
					"inputs": [],
					"name": "UnauthorizedTransaction",
					"type": "error"
				},
				{
					"anonymous": false,
					"inputs": [
						{
							"indexed": false,
							"internalType": "address",
							"name": "sender",
							"type": "address"
						},
						{
							"indexed": false,
							"internalType": "uint256",
							"name": "score",
							"type": "uint256"
						},
						{
							"indexed": false,
							"internalType": "string",
							"name": "message",
							"type": "string"
						}
					],
					"name": "Broadcast",
					"type": "event"
				},
				{
					"anonymous": false,
					"inputs": [
						{
							"indexed": true,
							"internalType": "address",
							"name": "previousOwner",
							"type": "address"
						},
						{
							"indexed": true,
							"internalType": "address",
							"name": "newOwner",
							"type": "address"
						}
					],
					"name": "OwnershipTransferred",
					"type": "event"
				},
				{
					"inputs": [
						{
							"internalType": "bytes",
							"name": "",
							"type": "bytes"
						}
					],
					"name": "executed",
					"outputs": [
						{
							"internalType": "bool",
							"name": "",
							"type": "bool"
						}
					],
					"stateMutability": "view",
					"type": "function"
				},
				{
					"inputs": [],
					"name": "owner",
					"outputs": [
						{
							"internalType": "address",
							"name": "",
							"type": "address"
						}
					],
					"stateMutability": "view",
					"type": "function"
				},
				{
					"inputs": [
						{
							"components": [
								{
									"internalType": "bytes",
									"name": "auth",
									"type": "bytes"
								},
								{
									"internalType": "bytes",
									"name": "kernelResponses",
									"type": "bytes"
								},
								{
									"internalType": "bytes",
									"name": "kernelParams",
									"type": "bytes"
								}
							],
							"internalType": "struct KrnlPayload",
							"name": "krnlPayload",
							"type": "tuple"
						},
						{
							"internalType": "string",
							"name": "input",
							"type": "string"
						}
					],
					"name": "protectedFunction",
					"outputs": [],
					"stateMutability": "nonpayable",
					"type": "function"
				},
				{
					"inputs": [],
					"name": "readMessage",
					"outputs": [
						{
							"internalType": "string",
							"name": "",
							"type": "string"
						}
					],
					"stateMutability": "view",
					"type": "function"
				},
				{
					"inputs": [],
					"name": "renounceOwnership",
					"outputs": [],
					"stateMutability": "nonpayable",
					"type": "function"
				},
				{
					"inputs": [
						{
							"internalType": "address",
							"name": "_tokenAuthorityPublicKey",
							"type": "address"
						}
					],
					"name": "setTokenAuthorityPublicKey",
					"outputs": [],
					"stateMutability": "nonpayable",
					"type": "function"
				},
				{
					"inputs": [],
					"name": "tokenAuthorityPublicKey",
					"outputs": [
						{
							"internalType": "address",
							"name": "",
							"type": "address"
						}
					],
					"stateMutability": "view",
					"type": "function"
				},
				{
					"inputs": [
						{
							"internalType": "address",
							"name": "newOwner",
							"type": "address"
						}
					],
					"name": "transferOwnership",
					"outputs": [],
					"stateMutability": "nonpayable",
					"type": "function"
				}
			],
			"devdoc": {
				"errors": {
					"ECDSAInvalidSignature()": [
						{
							"details": "The signature derives the `address(0)`."
						}
					],
					"ECDSAInvalidSignatureLength(uint256)": [
						{
							"details": "The signature has an invalid length."
						}
					],
					"ECDSAInvalidSignatureS(bytes32)": [
						{
							"details": "The signature has an S value that is in the upper half order."
						}
					],
					"OwnableInvalidOwner(address)": [
						{
							"details": "The owner is not a valid owner account. (eg. `address(0)`)"
						}
					],
					"OwnableUnauthorizedAccount(address)": [
						{
							"details": "The caller account is not authorized to perform an operation."
						}
					]
				},
				"kind": "dev",
				"methods": {
					"owner()": {
						"details": "Returns the address of the current owner."
					},
					"renounceOwnership()": {
						"details": "Leaves the contract without owner. It will not be possible to call `onlyOwner` functions. Can only be called by the current owner. NOTE: Renouncing ownership will leave the contract without an owner, thereby disabling any functionality that is only available to the owner."
					},
					"transferOwnership(address)": {
						"details": "Transfers ownership of the contract to a new account (`newOwner`). Can only be called by the current owner."
					}
				},
				"version": 1
			},
			"evm": {
				"assembly": "    /* \"smart-contracts/remix-ide/contracts/Sample.sol\":145:1412  contract Sample is KRNL {... */\n  0x80\n  jumpi(tag_7, callvalue)\n  0x1f\n  bytecodeSize\n  codesize\n  dup2\n  swap1\n  sub\n  swap2\n  dup3\n  add\n  not(0x1f)\n  and\n  dup4\n  add\n  swap2\n  sub(shl(0x40, 0x01), 0x01)\n  dup4\n  gt\n  dup5\n  dup5\n  lt\n  or\n  tag_3\n  jumpi\n  dup1\n  dup5\n  swap3\n  0x20\n  swap5\n  0x40\n  mstore\n  dup4\n  codecopy\n  dup2\n  add\n  sub\n  slt\n  tag_7\n  jumpi\n  mload\n  sub(shl(0xa0, 0x01), 0x01)\n  swap1\n  dup2\n  dup2\n  and\n  swap1\n  dup2\n  swap1\n  sub\n  tag_7\n  jumpi\n    /* \"smart-contracts/remix-ide/contracts/KRNL.sol\":1066:1076  msg.sender */\n  caller\n    /* \"@openzeppelin/contracts/access/Ownable.sol\":1273:1299  initialOwner == address(0) */\n  iszero\n    /* \"@openzeppelin/contracts/access/Ownable.sol\":1269:1364  if (initialOwner == address(0)) {... */\n  tag_9\n  jumpi\n  0x00\n    /* \"smart-contracts/remix-ide/contracts/Sample.sol\":145:1412  contract Sample is KRNL {... */\n  sload\n  swap1\n  0x01\n  dup1\n  0xa0\n  shl\n  sub\n  not\n    /* \"smart-contracts/remix-ide/contracts/KRNL.sol\":1066:1076  msg.sender */\n  swap2\n  caller\n    /* \"smart-contracts/remix-ide/contracts/Sample.sol\":145:1412  contract Sample is KRNL {... */\n  dup4\n  dup3\n  and\n  or\n  0x00\n  sstore\n  mload(0x40)\n    /* \"smart-contracts/remix-ide/contracts/KRNL.sol\":1066:1076  msg.sender */\n  swap4\n  caller\n    /* \"smart-contracts/remix-ide/contracts/Sample.sol\":145:1412  contract Sample is KRNL {... */\n  swap2\n  and\n    /* \"@openzeppelin/contracts/access/Ownable.sol\":3052:3092  OwnershipTransferred(oldOwner, newOwner) */\n  0x8be0079c531659141344cd1fd0a4f28419497f9722a3daafe3b4186f6b6457e0\n  0x00\n  dup1\n  log3\n    /* \"smart-contracts/remix-ide/contracts/KRNL.sol\":1088:1138  tokenAuthorityPublicKey = _tokenAuthorityPublicKey */\n  0x01\n    /* \"smart-contracts/remix-ide/contracts/Sample.sol\":145:1412  contract Sample is KRNL {... */\n  swap2\n    /* \"smart-contracts/remix-ide/contracts/KRNL.sol\":1088:1138  tokenAuthorityPublicKey = _tokenAuthorityPublicKey */\n  0x01\n    /* \"smart-contracts/remix-ide/contracts/Sample.sol\":145:1412  contract Sample is KRNL {... */\n  sload\n  and\n  or\n    /* \"smart-contracts/remix-ide/contracts/KRNL.sol\":1088:1138  tokenAuthorityPublicKey = _tokenAuthorityPublicKey */\n  0x01\n    /* \"smart-contracts/remix-ide/contracts/Sample.sol\":145:1412  contract Sample is KRNL {... */\n  sstore\n    /* \"smart-contracts/remix-ide/contracts/Sample.sol\":396:403  \"hello\" */\n  0x03\n    /* \"smart-contracts/remix-ide/contracts/Sample.sol\":145:1412  contract Sample is KRNL {... */\n  sload\n    /* \"smart-contracts/remix-ide/contracts/KRNL.sol\":1088:1138  tokenAuthorityPublicKey = _tokenAuthorityPublicKey */\n  0x01\n    /* \"smart-contracts/remix-ide/contracts/Sample.sol\":145:1412  contract Sample is KRNL {... */\n  dup2\n  dup2\n  shr\n  swap2\n  and\n  dup1\n  iszero\n  tag_11\n  jumpi\ntag_12:\n  0x20\n  dup3\n  lt\n  eq\n  tag_13\n  jumpi\n  0x1f\n  dup2\n  gt\n  tag_15\n  jumpi\ntag_16:\n  add(shl(0xd8, 0x68656c6c6f), 0x0a)\n    /* \"smart-contracts/remix-ide/contracts/Sample.sol\":396:403  \"hello\" */\n  0x03\n    /* \"smart-contracts/remix-ide/contracts/Sample.sol\":145:1412  contract Sample is KRNL {... */\n  sstore\n  dataSize(sub_0)\n  dup4\n  dup2\n  dataOffset(sub_0)\n  dup3\n  codecopy\n  return\ntag_15:\n    /* \"smart-contracts/remix-ide/contracts/Sample.sol\":396:403  \"hello\" */\n  0x03\n  0x00\n    /* \"smart-contracts/remix-ide/contracts/Sample.sol\":145:1412  contract Sample is KRNL {... */\n  mstore\n  0x1f\n  add\n  0x05\n  shr\n  0xc2575a0e9e593c00f959f8c92f12db2869c3395a3b0502d05e2516446f71f85b\n  swap1\n  dup2\n  add\n  swap1\ntag_17:\n  dup2\n  dup2\n  lt\n  tag_18\n  jumpi\n  pop\n  jump(tag_16)\ntag_18:\n  0x00\n  dup2\n  sstore\n  dup3\n  add\n  jump(tag_17)\ntag_13:\n  mstore(0x00, shl(0xe0, 0x4e487b71))\n  mstore(0x04, 0x22)\n  revert(0x00, 0x24)\ntag_11:\n  swap1\n  0x7f\n  and\n  swap1\n  jump(tag_12)\n    /* \"@openzeppelin/contracts/access/Ownable.sol\":1269:1364  if (initialOwner == address(0)) {... */\ntag_9:\n    /* \"smart-contracts/remix-ide/contracts/Sample.sol\":145:1412  contract Sample is KRNL {... */\n  mload(0x40)\n  shl(0xe0, 0x1e4fbdf7)\n    /* \"@openzeppelin/contracts/access/Ownable.sol\":1322:1353  OwnableInvalidOwner(address(0)) */\n  dup2\n  mstore\n  0x00\n  0x04\n  dup3\n  add\n    /* \"smart-contracts/remix-ide/contracts/Sample.sol\":145:1412  contract Sample is KRNL {... */\n  mstore\n  0x24\n  swap1\n    /* \"@openzeppelin/contracts/access/Ownable.sol\":1322:1353  OwnableInvalidOwner(address(0)) */\n  revert\n    /* \"smart-contracts/remix-ide/contracts/Sample.sol\":145:1412  contract Sample is KRNL {... */\ntag_7:\n  0x00\n  dup1\n  revert\ntag_3:\n  mstore(0x00, shl(0xe0, 0x4e487b71))\n  mstore(0x04, 0x41)\n  revert(0x00, 0x24)\nstop\n\nsub_0: assembly {\n        /* \"smart-contracts/remix-ide/contracts/Sample.sol\":145:1412  contract Sample is KRNL {... */\n      0x80\n      dup1\n      0x40\n      mstore\n      jumpi(tag_17, iszero(lt(calldatasize, 0x04)))\n      0x00\n      dup1\n      revert\n    tag_17:\n      shr(0xe0, calldataload(0x00))\n      swap1\n      dup2\n      0x031d5d01\n      eq\n      tag_19\n      jumpi\n      pop\n      dup1\n      0x4ba1cfe4\n      eq\n      tag_21\n      jumpi\n      dup1\n      0x715018a6\n      eq\n      tag_23\n      jumpi\n      dup1\n      0x8da5cb5b\n      eq\n      tag_25\n      jumpi\n      dup1\n      0x909dd263\n      eq\n      tag_27\n      jumpi\n      dup1\n      0xd213d86b\n      eq\n      tag_29\n      jumpi\n      dup1\n      0xdf2fb9b9\n      eq\n      tag_31\n      jumpi\n      0xf2fde38b\n      eq\n      tag_33\n      jumpi\n      0x00\n      dup1\n      revert\n    tag_33:\n      jumpi(tag_39, callvalue)\n      jumpi(tag_39, slt(add(not(0x03), calldatasize), 0x20))\n      calldataload(0x04)\n      sub(shl(0xa0, 0x01), 0x01)\n      dup2\n      dup2\n      and\n      swap2\n      dup3\n      swap1\n      sub\n      tag_39\n      jumpi\n        /* \"@openzeppelin/contracts/access/Ownable.sol\":1500:1562  modifier onlyOwner() {... */\n      tag_41\n      tag_12\n      jump\t// in\n    tag_41:\n        /* \"@openzeppelin/contracts/access/Ownable.sol\":2627:2649  newOwner == address(0) */\n      dup2\n      iszero\n        /* \"@openzeppelin/contracts/access/Ownable.sol\":2623:2714  if (newOwner == address(0)) {... */\n      tag_42\n      jumpi\n        /* \"smart-contracts/remix-ide/contracts/Sample.sol\":145:1412  contract Sample is KRNL {... */\n      sload(0x00)\n      dup3\n      shl(0xa0, sub(shl(0x60, 0x01), 0x01))\n      dup3\n      and\n      or\n      0x00\n      sstore\n      and\n        /* \"@openzeppelin/contracts/access/Ownable.sol\":3052:3092  OwnershipTransferred(oldOwner, newOwner) */\n      0x8be0079c531659141344cd1fd0a4f28419497f9722a3daafe3b4186f6b6457e0\n        /* \"smart-contracts/remix-ide/contracts/Sample.sol\":145:1412  contract Sample is KRNL {... */\n      0x00\n        /* \"@openzeppelin/contracts/access/Ownable.sol\":3052:3092  OwnershipTransferred(oldOwner, newOwner) */\n      dup1\n      log3\n        /* \"smart-contracts/remix-ide/contracts/Sample.sol\":145:1412  contract Sample is KRNL {... */\n      stop\n        /* \"@openzeppelin/contracts/access/Ownable.sol\":2623:2714  if (newOwner == address(0)) {... */\n    tag_42:\n        /* \"smart-contracts/remix-ide/contracts/Sample.sol\":145:1412  contract Sample is KRNL {... */\n      mload(0x40)\n      shl(0xe0, 0x1e4fbdf7)\n        /* \"@openzeppelin/contracts/access/Ownable.sol\":2672:2703  OwnableInvalidOwner(address(0)) */\n      dup2\n      mstore\n        /* \"smart-contracts/remix-ide/contracts/Sample.sol\":145:1412  contract Sample is KRNL {... */\n      0x00\n      0x04\n        /* \"@openzeppelin/contracts/access/Ownable.sol\":2672:2703  OwnableInvalidOwner(address(0)) */\n      dup3\n      add\n        /* \"smart-contracts/remix-ide/contracts/Sample.sol\":145:1412  contract Sample is KRNL {... */\n      mstore\n      0x24\n      swap1\n        /* \"@openzeppelin/contracts/access/Ownable.sol\":2672:2703  OwnableInvalidOwner(address(0)) */\n      revert\n        /* \"smart-contracts/remix-ide/contracts/Sample.sol\":145:1412  contract Sample is KRNL {... */\n    tag_39:\n      0x00\n      dup1\n      revert\n    tag_31:\n      jumpi(tag_39, callvalue)\n      not(0x03)\n      0x40\n      calldatasize\n      dup3\n      add\n      slt\n      tag_39\n      jumpi\n      calldataload(0x04)\n      swap1\n      sub(shl(0x40, 0x01), 0x01)\n      dup3\n      gt\n      tag_39\n      jumpi\n      0x60\n      swap1\n      dup3\n      calldatasize\n      sub\n      add\n      slt\n      tag_39\n      jumpi\n      mload(0x40)\n      swap1\n      tag_52\n      dup3\n      tag_3\n      jump\t// in\n    tag_52:\n      dup1\n      0x04\n      add\n      calldataload\n      sub(shl(0x40, 0x01), 0x01)\n      dup2\n      gt\n      tag_39\n      jumpi\n      tag_55\n      swap1\n      0x04\n      calldatasize\n      swap2\n      dup5\n      add\n      add\n      tag_7\n      jump\t// in\n    tag_55:\n      dup3\n      mstore\n      0x24\n      dup2\n      add\n      calldataload\n      sub(shl(0x40, 0x01), 0x01)\n      dup2\n      gt\n      tag_39\n      jumpi\n      tag_58\n      swap1\n      0x04\n      calldatasize\n      swap2\n      dup5\n      add\n      add\n      tag_7\n      jump\t// in\n    tag_58:\n      0x20\n      dup4\n      add\n      mstore\n      0x44\n      dup2\n      add\n      calldataload\n      swap1\n      sub(shl(0x40, 0x01), 0x01)\n      dup3\n      gt\n      tag_39\n      jumpi\n      0x04\n      tag_61\n      swap3\n      calldatasize\n      swap3\n      add\n      add\n      tag_7\n      jump\t// in\n    tag_61:\n      0x40\n      dup3\n      add\n      mstore\n      calldataload(0x24)\n      sub(shl(0x40, 0x01), 0x01)\n      dup2\n      gt\n      tag_39\n      jumpi\n      calldatasize\n      0x23\n      dup3\n      add\n      slt\n      iszero\n      tag_39\n      jumpi\n      tag_66\n      swap1\n      calldatasize\n      swap1\n      0x24\n      dup2\n      0x04\n      add\n      calldataload\n      swap2\n      add\n      tag_6\n      jump\t// in\n    tag_66:\n      swap1\n      mload(0x40)\n      0x20\n        /* \"smart-contracts/remix-ide/contracts/Sample.sol\":722:739  abi.encode(input) */\n      dup1\n      dup3\n      add\n        /* \"smart-contracts/remix-ide/contracts/Sample.sol\":145:1412  contract Sample is KRNL {... */\n      mstore\n        /* \"smart-contracts/remix-ide/contracts/Sample.sol\":722:739  abi.encode(input) */\n      tag_67\n        /* \"smart-contracts/remix-ide/contracts/Sample.sol\":145:1412  contract Sample is KRNL {... */\n      dup2\n      tag_68\n      0x40\n      dup3\n      add\n      dup7\n      tag_2\n      jump\t// in\n    tag_68:\n        /* \"smart-contracts/remix-ide/contracts/Sample.sol\":722:739  abi.encode(input) */\n      sub\n      not(0x1f)\n      dup2\n      add\n      dup4\n      mstore\n      dup3\n      tag_4\n      jump\t// in\n    tag_67:\n        /* \"smart-contracts/remix-ide/contracts/KRNL.sol\":1711:1723  payload.auth */\n      dup2\n      mload\n        /* \"smart-contracts/remix-ide/contracts/Sample.sol\":145:1412  contract Sample is KRNL {... */\n      swap1\n      dup2\n      mload\n        /* \"smart-contracts/remix-ide/contracts/KRNL.sol\":1683:1793  abi.decode(... */\n      dup3\n      add\n      swap1\n        /* \"smart-contracts/remix-ide/contracts/Sample.sol\":145:1412  contract Sample is KRNL {... */\n      0xa0\n        /* \"smart-contracts/remix-ide/contracts/KRNL.sol\":1683:1793  abi.decode(... */\n      dup4\n        /* \"smart-contracts/remix-ide/contracts/Sample.sol\":145:1412  contract Sample is KRNL {... */\n      0x20\n        /* \"smart-contracts/remix-ide/contracts/KRNL.sol\":1683:1793  abi.decode(... */\n      dup5\n      add\n        /* \"smart-contracts/remix-ide/contracts/Sample.sol\":145:1412  contract Sample is KRNL {... */\n      swap4\n      sub\n      slt\n      tag_39\n      jumpi\n      0x20\n        /* \"smart-contracts/remix-ide/contracts/KRNL.sol\":1683:1793  abi.decode(... */\n      dup4\n      add\n        /* \"smart-contracts/remix-ide/contracts/Sample.sol\":145:1412  contract Sample is KRNL {... */\n      mload\n      sub(shl(0x40, 0x01), 0x01)\n      dup2\n      gt\n      tag_39\n      jumpi\n      dup3\n      0x20\n      tag_73\n      swap3\n      dup7\n      add\n      add\n      tag_10\n      jump\t// in\n    tag_73:\n      swap3\n      0x40\n      dup2\n      add\n      mload\n      swap3\n      0x60\n      dup3\n      add\n      mload\n      swap1\n      sub(shl(0x40, 0x01), 0x01)\n      dup3\n      gt\n      tag_39\n      jumpi\n      0x20\n      tag_76\n      swap3\n      dup5\n      add\n      add\n      tag_10\n      jump\t// in\n    tag_76:\n      swap1\n      0xa0\n      0x80\n      dup3\n      add\n      mload\n      swap2\n      add\n      mload\n      swap1\n      dup2\n      iszero\n      swap2\n      dup3\n      iszero\n      sub\n      tag_39\n      jumpi\n        /* \"smart-contracts/remix-ide/contracts/KRNL.sol\":1804:1888  if (finalOpinion == false) {... */\n      dup2\n      tag_79\n      jumpi\n        /* \"@openzeppelin/contracts/utils/cryptography/ECDSA.sol\":3871:3898  tryRecover(hash, signature) */\n      tag_81\n        /* \"@openzeppelin/contracts/utils/cryptography/ECDSA.sol\":3927:3935  errorArg */\n      tag_82\n        /* \"smart-contracts/remix-ide/contracts/Sample.sol\":145:1412  contract Sample is KRNL {... */\n      swap7\n      0x20\n      dup10\n      add\n        /* \"smart-contracts/remix-ide/contracts/KRNL.sol\":1970:1993  payload.kernelResponses */\n      mload\n        /* \"smart-contracts/remix-ide/contracts/Sample.sol\":145:1412  contract Sample is KRNL {... */\n      mload(0x40)\n        /* \"smart-contracts/remix-ide/contracts/KRNL.sol\":1953:2006  abi.encodePacked(payload.kernelResponses, msg.sender) */\n      tag_83\n      dup2\n      tag_68\n        /* \"smart-contracts/remix-ide/contracts/Sample.sol\":145:1412  contract Sample is KRNL {... */\n      0x20\n        /* \"smart-contracts/remix-ide/contracts/KRNL.sol\":1953:2006  abi.encodePacked(payload.kernelResponses, msg.sender) */\n      dup3\n      add\n        /* \"smart-contracts/remix-ide/contracts/KRNL.sol\":1995:2005  msg.sender */\n      swap5\n      caller\n        /* \"smart-contracts/remix-ide/contracts/KRNL.sol\":1953:2006  abi.encodePacked(payload.kernelResponses, msg.sender) */\n      swap1\n      dup7\n      tag_13\n      jump\t// in\n    tag_83:\n        /* \"smart-contracts/remix-ide/contracts/Sample.sol\":145:1412  contract Sample is KRNL {... */\n      mload\n        /* \"smart-contracts/remix-ide/contracts/KRNL.sol\":1930:2016  keccak256(... */\n      swap1\n      keccak256\n        /* \"@openzeppelin/contracts/utils/cryptography/ECDSA.sol\":3871:3898  tryRecover(hash, signature) */\n      tag_14\n      jump\t// in\n    tag_81:\n        /* \"@openzeppelin/contracts/utils/cryptography/ECDSA.sol\":3927:3935  errorArg */\n      swap1\n      swap8\n      swap2\n      swap8\n      tag_15\n      jump\t// in\n    tag_82:\n        /* \"smart-contracts/remix-ide/contracts/Sample.sol\":145:1412  contract Sample is KRNL {... */\n      sload(0x01)\n      sub(shl(0xa0, 0x01), 0x01)\n      swap1\n      dup2\n      and\n      swap7\n      and\n        /* \"smart-contracts/remix-ide/contracts/KRNL.sol\":2164:2207  recoveredAddress != tokenAuthorityPublicKey */\n      dup7\n      swap1\n      sub\n        /* \"smart-contracts/remix-ide/contracts/KRNL.sol\":2160:2282  if (recoveredAddress != tokenAuthorityPublicKey) {... */\n      tag_85\n      jumpi\n        /* \"smart-contracts/remix-ide/contracts/Sample.sol\":145:1412  contract Sample is KRNL {... */\n      dup5\n      0x40\n      dup9\n      add\n        /* \"smart-contracts/remix-ide/contracts/KRNL.sol\":2362:2382  payload.kernelParams */\n      mload\n        /* \"smart-contracts/remix-ide/contracts/Sample.sol\":145:1412  contract Sample is KRNL {... */\n      mload(0x40)\n        /* \"smart-contracts/remix-ide/contracts/KRNL.sol\":2345:2395  abi.encodePacked(payload.kernelParams, msg.sender) */\n      tag_87\n      dup2\n      tag_68\n        /* \"smart-contracts/remix-ide/contracts/Sample.sol\":145:1412  contract Sample is KRNL {... */\n      0x20\n        /* \"smart-contracts/remix-ide/contracts/KRNL.sol\":2345:2395  abi.encodePacked(payload.kernelParams, msg.sender) */\n      dup3\n      add\n        /* \"smart-contracts/remix-ide/contracts/KRNL.sol\":1995:2005  msg.sender */\n      swap5\n      caller\n        /* \"smart-contracts/remix-ide/contracts/KRNL.sol\":2345:2395  abi.encodePacked(payload.kernelParams, msg.sender) */\n      swap1\n      dup7\n      tag_13\n      jump\t// in\n    tag_87:\n        /* \"smart-contracts/remix-ide/contracts/Sample.sol\":145:1412  contract Sample is KRNL {... */\n      mload\n        /* \"smart-contracts/remix-ide/contracts/KRNL.sol\":2322:2405  keccak256(... */\n      swap1\n      keccak256\n        /* \"smart-contracts/remix-ide/contracts/Sample.sol\":145:1412  contract Sample is KRNL {... */\n      swap5\n      0x20\n      dup2\n      mload\n        /* \"smart-contracts/remix-ide/contracts/Sample.sol\":722:739  abi.encode(input) */\n      swap2\n      add\n        /* \"smart-contracts/remix-ide/contracts/KRNL.sol\":2447:2472  keccak256(functionParams) */\n      keccak256\n        /* \"smart-contracts/remix-ide/contracts/KRNL.sol\":2487:2533  _kernelParamsDigest != kernelParamObjectDigest */\n      swap5\n      sub\n        /* \"smart-contracts/remix-ide/contracts/KRNL.sol\":2483:2598  if (_kernelParamsDigest != kernelParamObjectDigest) {... */\n      tag_89\n      jumpi\n        /* \"smart-contracts/remix-ide/contracts/Sample.sol\":145:1412  contract Sample is KRNL {... */\n      mload(0x40)\n        /* \"smart-contracts/remix-ide/contracts/KRNL.sol\":2652:2842  abi.encodePacked(... */\n      swap5\n        /* \"smart-contracts/remix-ide/contracts/Sample.sol\":145:1412  contract Sample is KRNL {... */\n      0x20\n        /* \"smart-contracts/remix-ide/contracts/KRNL.sol\":2652:2842  abi.encodePacked(... */\n      dup7\n      add\n        /* \"smart-contracts/remix-ide/contracts/Sample.sol\":145:1412  contract Sample is KRNL {... */\n      swap5\n      dup6\n      mstore\n      0x40\n      dup7\n      add\n      mstore\n        /* \"smart-contracts/remix-ide/contracts/KRNL.sol\":1995:2005  msg.sender */\n      caller\n        /* \"smart-contracts/remix-ide/contracts/Sample.sol\":145:1412  contract Sample is KRNL {... */\n      0x60\n      shl\n      0x60\n      dup7\n      add\n      mstore\n      0x74\n      dup6\n      add\n      mstore\n      iszero\n      0xf8\n      shl\n      0x94\n      dup5\n      add\n      mstore\n        /* \"smart-contracts/remix-ide/contracts/KRNL.sol\":2652:2842  abi.encodePacked(... */\n      0x75\n      dup4\n      mstore\n        /* \"smart-contracts/remix-ide/contracts/Sample.sol\":145:1412  contract Sample is KRNL {... */\n      0xa0\n      dup4\n      add\n      swap2\n      dup4\n      dup4\n      lt\n      sub(shl(0x40, 0x01), 0x01)\n      dup5\n      gt\n      or\n      tag_120\n      jumpi\n        /* \"@openzeppelin/contracts/utils/cryptography/ECDSA.sol\":3927:3935  errorArg */\n      tag_93\n        /* \"smart-contracts/remix-ide/contracts/Sample.sol\":145:1412  contract Sample is KRNL {... */\n      swap4\n        /* \"@openzeppelin/contracts/utils/cryptography/ECDSA.sol\":3871:3898  tryRecover(hash, signature) */\n      tag_94\n        /* \"smart-contracts/remix-ide/contracts/Sample.sol\":145:1412  contract Sample is KRNL {... */\n      swap4\n      0x40\n      mstore\n      mload\n        /* \"smart-contracts/remix-ide/contracts/KRNL.sol\":2629:2852  keccak256(... */\n      swap1\n      keccak256\n        /* \"@openzeppelin/contracts/utils/cryptography/ECDSA.sol\":3871:3898  tryRecover(hash, signature) */\n      tag_14\n      jump\t// in\n    tag_94:\n        /* \"@openzeppelin/contracts/utils/cryptography/ECDSA.sol\":3927:3935  errorArg */\n      swap1\n      swap3\n      swap2\n      swap3\n      tag_15\n      jump\t// in\n    tag_93:\n      sub(shl(0xa0, 0x01), 0x01)\n        /* \"smart-contracts/remix-ide/contracts/Sample.sol\":145:1412  contract Sample is KRNL {... */\n      and\n        /* \"smart-contracts/remix-ide/contracts/KRNL.sol\":2937:2980  recoveredAddress != tokenAuthorityPublicKey */\n      sub\n        /* \"smart-contracts/remix-ide/contracts/KRNL.sol\":2933:3052  if (recoveredAddress != tokenAuthorityPublicKey) {... */\n      tag_95\n      jumpi\n        /* \"smart-contracts/remix-ide/contracts/Sample.sol\":145:1412  contract Sample is KRNL {... */\n      0x20\n      add\n        /* \"smart-contracts/remix-ide/contracts/Sample.sol\":856:883  krnlPayload.kernelResponses */\n      mload\n        /* \"smart-contracts/remix-ide/contracts/Sample.sol\":145:1412  contract Sample is KRNL {... */\n      dup1\n      mload\n        /* \"smart-contracts/remix-ide/contracts/Sample.sol\":845:904  abi.decode(krnlPayload.kernelResponses, (KernelResponse[])) */\n      dup2\n      add\n        /* \"smart-contracts/remix-ide/contracts/Sample.sol\":145:1412  contract Sample is KRNL {... */\n      0x20\n      dup3\n      dup3\n      sub\n      slt\n      tag_39\n      jumpi\n      0x20\n        /* \"smart-contracts/remix-ide/contracts/Sample.sol\":845:904  abi.decode(krnlPayload.kernelResponses, (KernelResponse[])) */\n      dup3\n      add\n        /* \"smart-contracts/remix-ide/contracts/Sample.sol\":145:1412  contract Sample is KRNL {... */\n      mload\n      swap2\n      sub(shl(0x40, 0x01), 0x01)\n      dup4\n      gt\n      tag_39\n      jumpi\n      0x20\n        /* \"smart-contracts/remix-ide/contracts/Sample.sol\":845:904  abi.decode(krnlPayload.kernelResponses, (KernelResponse[])) */\n      dup3\n      add\n        /* \"smart-contracts/remix-ide/contracts/Sample.sol\":145:1412  contract Sample is KRNL {... */\n      0x3f\n      dup5\n      dup4\n      add\n      add\n      slt\n      iszero\n      tag_39\n      jumpi\n      0x20\n      dup4\n      dup3\n      add\n      add\n      mload\n      swap1\n      sub(shl(0x40, 0x01), 0x01)\n      dup3\n      gt\n      tag_120\n      jumpi\n      mload(0x40)\n      swap4\n      tag_105\n      0x20\n      dup5\n      0x05\n      shl\n      add\n      dup7\n      tag_4\n      jump\t// in\n    tag_105:\n      dup3\n      dup6\n      mstore\n      0x20\n      dup6\n      add\n        /* \"smart-contracts/remix-ide/contracts/Sample.sol\":845:904  abi.decode(krnlPayload.kernelResponses, (KernelResponse[])) */\n      swap1\n        /* \"smart-contracts/remix-ide/contracts/Sample.sol\":145:1412  contract Sample is KRNL {... */\n      0x20\n        /* \"smart-contracts/remix-ide/contracts/Sample.sol\":845:904  abi.decode(krnlPayload.kernelResponses, (KernelResponse[])) */\n      dup6\n      add\n        /* \"smart-contracts/remix-ide/contracts/Sample.sol\":145:1412  contract Sample is KRNL {... */\n      0x40\n      dup6\n      0x05\n      shl\n      dup4\n      dup7\n      add\n      add\n      add\n      gt\n      tag_39\n      jumpi\n      0x40\n      dup2\n      dup5\n      add\n      add\n      swap2\n    tag_108:\n      0x40\n      dup6\n      0x05\n      shl\n      dup4\n      dup7\n      add\n      add\n      add\n      dup4\n      lt\n      tag_109\n      jumpi\n        /* \"smart-contracts/remix-ide/contracts/Sample.sol\":914:927  uint256 score */\n      dup8\n      dup8\n        /* \"smart-contracts/remix-ide/contracts/Sample.sol\":145:1412  contract Sample is KRNL {... */\n      0x00\n      dup1\n        /* \"smart-contracts/remix-ide/contracts/Sample.sol\":978:982  i ++ */\n    tag_111:\n        /* \"smart-contracts/remix-ide/contracts/Sample.sol\":145:1412  contract Sample is KRNL {... */\n      dup3\n      mload\n        /* \"smart-contracts/remix-ide/contracts/Sample.sol\":950:976  i < kernelResponses.length */\n      dup2\n      lt\n      iszero\n      tag_112\n      jumpi\n        /* \"smart-contracts/remix-ide/contracts/Sample.sol\":1033:1036  337 */\n      0x0151\n        /* \"smart-contracts/remix-ide/contracts/Sample.sol\":1002:1020  kernelResponses[i] */\n      tag_114\n      dup3\n      dup6\n      tag_11\n      jump\t// in\n    tag_114:\n      mload\n        /* \"smart-contracts/remix-ide/contracts/Sample.sol\":145:1412  contract Sample is KRNL {... */\n      mload\n        /* \"smart-contracts/remix-ide/contracts/Sample.sol\":1002:1036  kernelResponses[i].kernelId == 337 */\n      eq\n        /* \"smart-contracts/remix-ide/contracts/Sample.sol\":998:1127  if (kernelResponses[i].kernelId == 337) {... */\n      tag_115\n      jumpi\n        /* \"smart-contracts/remix-ide/contracts/Sample.sol\":978:982  i ++ */\n    tag_116:\n        /* \"smart-contracts/remix-ide/contracts/Sample.sol\":145:1412  contract Sample is KRNL {... */\n      0x01\n      add\n        /* \"smart-contracts/remix-ide/contracts/Sample.sol\":942:948  uint i */\n      jump(tag_111)\n        /* \"smart-contracts/remix-ide/contracts/Sample.sol\":998:1127  if (kernelResponses[i].kernelId == 337) {... */\n    tag_115:\n        /* \"smart-contracts/remix-ide/contracts/Sample.sol\":1075:1093  kernelResponses[i] */\n      swap1\n      pop\n        /* \"smart-contracts/remix-ide/contracts/Sample.sol\":145:1412  contract Sample is KRNL {... */\n      0x20\n        /* \"smart-contracts/remix-ide/contracts/Sample.sol\":1075:1093  kernelResponses[i] */\n      tag_117\n      dup3\n      dup5\n      tag_11\n      jump\t// in\n    tag_117:\n      mload\n        /* \"smart-contracts/remix-ide/contracts/Sample.sol\":1075:1100  kernelResponses[i].result */\n      add\n      mload\n        /* \"smart-contracts/remix-ide/contracts/Sample.sol\":145:1412  contract Sample is KRNL {... */\n      0x20\n      dup2\n      dup1\n      mload\n        /* \"smart-contracts/remix-ide/contracts/Sample.sol\":1064:1112  abi.decode(kernelResponses[i].result, (uint256)) */\n      dup2\n      add\n        /* \"smart-contracts/remix-ide/contracts/Sample.sol\":145:1412  contract Sample is KRNL {... */\n      sub\n      slt\n      tag_39\n      jumpi\n      0x20\n        /* \"smart-contracts/remix-ide/contracts/Sample.sol\":1064:1112  abi.decode(kernelResponses[i].result, (uint256)) */\n      add\n        /* \"smart-contracts/remix-ide/contracts/Sample.sol\":145:1412  contract Sample is KRNL {... */\n      mload\n      swap1\n        /* \"smart-contracts/remix-ide/contracts/Sample.sol\":998:1127  if (kernelResponses[i].kernelId == 337) {... */\n      jump(tag_116)\n        /* \"smart-contracts/remix-ide/contracts/Sample.sol\":950:976  i < kernelResponses.length */\n    tag_112:\n      pop\n      dup3\n        /* \"smart-contracts/remix-ide/contracts/Sample.sol\":145:1412  contract Sample is KRNL {... */\n      dup1\n      mload\n      swap2\n      sub(shl(0x40, 0x01), 0x01)\n      dup4\n      gt\n      tag_120\n      jumpi\n        /* \"smart-contracts/remix-ide/contracts/Sample.sol\":1176:1191  message = input */\n      0x03\n        /* \"smart-contracts/remix-ide/contracts/Sample.sol\":145:1412  contract Sample is KRNL {... */\n      tag_122\n      dup2\n      sload\n      tag_8\n      jump\t// in\n    tag_122:\n      0x1f\n      dup2\n      gt\n      tag_123\n      jumpi\n        /* \"smart-contracts/remix-ide/contracts/Sample.sol\":937:1137  for (uint i; i < kernelResponses.length; i ++) {... */\n    tag_124:\n        /* \"smart-contracts/remix-ide/contracts/Sample.sol\":145:1412  contract Sample is KRNL {... */\n      pop\n      0x20\n      swap4\n      0x1f\n      dup2\n      gt\n      0x01\n      eq\n      tag_125\n      jumpi\n      dup1\n        /* \"smart-contracts/remix-ide/contracts/Sample.sol\":1236:1271  Broadcast(msg.sender, score, input) */\n      0xd5609c6ad246ea472bde0ce5c102ad7b553d441be78efcc4a9ac8c5b46cfd9a5\n        /* \"smart-contracts/remix-ide/contracts/Sample.sol\":145:1412  contract Sample is KRNL {... */\n      swap6\n      0x00\n      swap2\n      tag_127\n      jumpi\n    tag_128:\n      pop\n      dup2\n      0x01\n      shl\n      swap2\n      not(0x00)\n      swap1\n      dup5\n      shl\n      shr\n      not\n      and\n      or\n      swap1\n      sstore\n    tag_129:\n      tag_130\n      mload(0x40)\n        /* \"smart-contracts/remix-ide/contracts/KRNL.sol\":1995:2005  msg.sender */\n      swap3\n      dup4\n      swap3\n      caller\n        /* \"smart-contracts/remix-ide/contracts/Sample.sol\":145:1412  contract Sample is KRNL {... */\n      dup5\n      mstore\n      0x20\n      dup5\n      add\n      mstore\n      0x60\n      0x40\n      dup5\n      add\n      mstore\n      0x60\n      dup4\n      add\n      swap1\n      tag_2\n      jump\t// in\n    tag_130:\n        /* \"smart-contracts/remix-ide/contracts/Sample.sol\":1236:1271  Broadcast(msg.sender, score, input) */\n      sub\n      swap1\n      log1\n        /* \"smart-contracts/remix-ide/contracts/Sample.sol\":145:1412  contract Sample is KRNL {... */\n      stop\n    tag_127:\n      swap1\n      pop\n      dup5\n      add\n      mload\n      dup7\n      jump(tag_128)\n    tag_125:\n        /* \"smart-contracts/remix-ide/contracts/Sample.sol\":722:739  abi.encode(input) */\n      not(0x1f)\n        /* \"smart-contracts/remix-ide/contracts/Sample.sol\":145:1412  contract Sample is KRNL {... */\n      dup2\n      and\n      swap5\n      dup3\n      0x00\n      mstore\n      0xc2575a0e9e593c00f959f8c92f12db2869c3395a3b0502d05e2516446f71f85b\n      swap6\n      0x00\n    tag_131:\n      dup2\n      dup2\n      lt\n      tag_132\n      jumpi\n      pop\n      swap6\n      dup3\n      swap2\n      0x01\n      swap4\n        /* \"smart-contracts/remix-ide/contracts/Sample.sol\":1236:1271  Broadcast(msg.sender, score, input) */\n      0xd5609c6ad246ea472bde0ce5c102ad7b553d441be78efcc4a9ac8c5b46cfd9a5\n        /* \"smart-contracts/remix-ide/contracts/Sample.sol\":145:1412  contract Sample is KRNL {... */\n      swap9\n      lt\n      tag_134\n      jumpi\n    tag_135:\n      pop\n      pop\n      dup2\n      shl\n      add\n      swap1\n      sstore\n      jump(tag_129)\n    tag_134:\n      dup7\n      add\n      mload\n      not(0x00)\n      dup4\n      dup7\n      shl\n      0xf8\n      and\n      shr\n      not\n      and\n      swap1\n      sstore\n      dup7\n      dup1\n      jump(tag_135)\n    tag_132:\n      dup7\n      dup4\n      add\n      mload\n      dup9\n      sstore\n      0x01\n      swap1\n      swap8\n      add\n      swap7\n      0x20\n      swap3\n      dup4\n      add\n      swap3\n      add\n      jump(tag_131)\n    tag_123:\n      dup2\n      0x00\n      mstore\n      0xc2575a0e9e593c00f959f8c92f12db2869c3395a3b0502d05e2516446f71f85b\n      0x1f\n      dup7\n      add\n      0x05\n      shr\n      dup2\n      add\n      swap2\n      0x20\n      dup8\n      lt\n      tag_136\n      jumpi\n    tag_137:\n      0x1f\n      add\n      0x05\n      shr\n      add\n      swap1\n    tag_138:\n      dup2\n      dup2\n      lt\n      tag_139\n      jumpi\n      pop\n      jump(tag_124)\n    tag_139:\n      0x00\n      dup2\n      sstore\n      0x01\n      add\n      jump(tag_138)\n    tag_136:\n      swap1\n      swap2\n      pop\n      dup2\n      swap1\n      jump(tag_137)\n    tag_120:\n      mstore(0x00, shl(0xe0, 0x4e487b71))\n      mstore(0x04, 0x41)\n      revert(0x00, 0x24)\n    tag_109:\n      dup3\n      mload\n      swap1\n      sub(shl(0x40, 0x01), 0x01)\n      dup3\n      gt\n      tag_39\n      jumpi\n      0x60\n      dup6\n      dup5\n      add\n      dup4\n      add\n      dup9\n      sub\n      not(0x1f)\n      add\n      slt\n      tag_39\n      jumpi\n      mload(0x40)\n      swap2\n      tag_145\n      dup4\n      tag_3\n      jump\t// in\n    tag_145:\n      dup6\n      dup5\n      add\n      dup2\n      add\n      0x40\n      dup2\n      add\n      mload\n      dup5\n      mstore\n      0x60\n      add\n      mload\n      sub(shl(0x40, 0x01), 0x01)\n      dup2\n      gt\n      tag_39\n      jumpi\n      tag_148\n        /* \"smart-contracts/remix-ide/contracts/Sample.sol\":845:904  abi.decode(krnlPayload.kernelResponses, (KernelResponse[])) */\n      swap1\n        /* \"smart-contracts/remix-ide/contracts/Sample.sol\":145:1412  contract Sample is KRNL {... */\n      0x40\n      0x20\n        /* \"smart-contracts/remix-ide/contracts/Sample.sol\":845:904  abi.decode(krnlPayload.kernelResponses, (KernelResponse[])) */\n      dup12\n      add\n        /* \"smart-contracts/remix-ide/contracts/Sample.sol\":145:1412  contract Sample is KRNL {... */\n      swap2\n      dup5\n      dup9\n      dup12\n      add\n      add\n      add\n      add\n      tag_10\n      jump\t// in\n    tag_148:\n      0x20\n      dup5\n      add\n      mstore\n      0x80\n      dup2\n      dup6\n      dup9\n      add\n      add\n      add\n      mload\n      swap2\n      sub(shl(0x40, 0x01), 0x01)\n      dup4\n      gt\n      tag_39\n      jumpi\n      0x20\n        /* \"smart-contracts/remix-ide/contracts/Sample.sol\":845:904  abi.decode(krnlPayload.kernelResponses, (KernelResponse[])) */\n      dup10\n      add\n        /* \"smart-contracts/remix-ide/contracts/Sample.sol\":145:1412  contract Sample is KRNL {... */\n      0x5f\n      dup5\n      dup5\n      dup9\n      dup12\n      add\n      add\n      add\n      add\n      slt\n      iszero\n      tag_39\n      jumpi\n      0x40\n        /* \"smart-contracts/remix-ide/contracts/Sample.sol\":845:904  abi.decode(krnlPayload.kernelResponses, (KernelResponse[])) */\n      swap4\n        /* \"smart-contracts/remix-ide/contracts/Sample.sol\":145:1412  contract Sample is KRNL {... */\n      tag_153\n      0x20\n        /* \"smart-contracts/remix-ide/contracts/Sample.sol\":845:904  abi.decode(krnlPayload.kernelResponses, (KernelResponse[])) */\n      swap5\n      swap4\n      dup10\n        /* \"smart-contracts/remix-ide/contracts/Sample.sol\":145:1412  contract Sample is KRNL {... */\n      0x60\n        /* \"smart-contracts/remix-ide/contracts/Sample.sol\":845:904  abi.decode(krnlPayload.kernelResponses, (KernelResponse[])) */\n      dup8\n      swap7\n      dup8\n      dup16\n      add\n        /* \"smart-contracts/remix-ide/contracts/Sample.sol\":145:1412  contract Sample is KRNL {... */\n      swap4\n      dup12\n      dup12\n      dup4\n      dup4\n      dup4\n      dup9\n      add\n      add\n      add\n      add\n      mload\n      swap5\n      add\n      add\n      add\n      add\n      tag_9\n      jump\t// in\n    tag_153:\n      dup6\n      dup3\n      add\n      mstore\n      dup2\n      mstore\n      add\n      swap4\n      add\n      swap3\n      swap1\n      pop\n      jump(tag_108)\n        /* \"smart-contracts/remix-ide/contracts/KRNL.sol\":2933:3052  if (recoveredAddress != tokenAuthorityPublicKey) {... */\n    tag_95:\n        /* \"smart-contracts/remix-ide/contracts/Sample.sol\":145:1412  contract Sample is KRNL {... */\n      mload(0x40)\n      shl(0xe5, 0x461bcd)\n        /* \"smart-contracts/remix-ide/contracts/KRNL.sol\":2996:3041  revert(\"Invalid signature for function call\") */\n      dup2\n      mstore\n        /* \"smart-contracts/remix-ide/contracts/Sample.sol\":145:1412  contract Sample is KRNL {... */\n      0x20\n      0x04\n        /* \"smart-contracts/remix-ide/contracts/KRNL.sol\":2996:3041  revert(\"Invalid signature for function call\") */\n      dup3\n      add\n        /* \"smart-contracts/remix-ide/contracts/Sample.sol\":145:1412  contract Sample is KRNL {... */\n      mstore\n      0x23\n      0x24\n      dup3\n      add\n      mstore\n      0x496e76616c6964207369676e617475726520666f722066756e6374696f6e2063\n      0x44\n      dup3\n      add\n      mstore\n      shl(0xea, 0x185b1b)\n      0x64\n      dup3\n      add\n      mstore\n      0x84\n      swap1\n        /* \"smart-contracts/remix-ide/contracts/KRNL.sol\":2996:3041  revert(\"Invalid signature for function call\") */\n      revert\n        /* \"smart-contracts/remix-ide/contracts/KRNL.sol\":2483:2598  if (_kernelParamsDigest != kernelParamObjectDigest) {... */\n    tag_89:\n        /* \"smart-contracts/remix-ide/contracts/Sample.sol\":145:1412  contract Sample is KRNL {... */\n      mload(0x40)\n      shl(0xe5, 0x461bcd)\n        /* \"smart-contracts/remix-ide/contracts/KRNL.sol\":2549:2587  revert(\"Invalid kernel params digest\") */\n      dup2\n      mstore\n        /* \"smart-contracts/remix-ide/contracts/Sample.sol\":145:1412  contract Sample is KRNL {... */\n      0x20\n      0x04\n        /* \"smart-contracts/remix-ide/contracts/KRNL.sol\":2549:2587  revert(\"Invalid kernel params digest\") */\n      dup3\n      add\n        /* \"smart-contracts/remix-ide/contracts/Sample.sol\":145:1412  contract Sample is KRNL {... */\n      mstore\n      0x1c\n      0x24\n      dup3\n      add\n      mstore\n      0x496e76616c6964206b65726e656c20706172616d732064696765737400000000\n      0x44\n      dup3\n      add\n      mstore\n      0x64\n      swap1\n        /* \"smart-contracts/remix-ide/contracts/KRNL.sol\":2549:2587  revert(\"Invalid kernel params digest\") */\n      revert\n        /* \"smart-contracts/remix-ide/contracts/KRNL.sol\":2160:2282  if (recoveredAddress != tokenAuthorityPublicKey) {... */\n    tag_85:\n        /* \"smart-contracts/remix-ide/contracts/Sample.sol\":145:1412  contract Sample is KRNL {... */\n      mload(0x40)\n      shl(0xe5, 0x461bcd)\n        /* \"smart-contracts/remix-ide/contracts/KRNL.sol\":2223:2271  revert(\"Invalid signature for kernel responses\") */\n      dup2\n      mstore\n        /* \"smart-contracts/remix-ide/contracts/Sample.sol\":145:1412  contract Sample is KRNL {... */\n      0x20\n      0x04\n        /* \"smart-contracts/remix-ide/contracts/KRNL.sol\":2223:2271  revert(\"Invalid signature for kernel responses\") */\n      dup3\n      add\n        /* \"smart-contracts/remix-ide/contracts/Sample.sol\":145:1412  contract Sample is KRNL {... */\n      mstore\n      0x26\n      0x24\n      dup3\n      add\n      mstore\n      0x496e76616c6964207369676e617475726520666f72206b65726e656c20726573\n      0x44\n      dup3\n      add\n      mstore\n      shl(0xd0, 0x706f6e736573)\n      0x64\n      dup3\n      add\n      mstore\n      0x84\n      swap1\n        /* \"smart-contracts/remix-ide/contracts/KRNL.sol\":2223:2271  revert(\"Invalid signature for kernel responses\") */\n      revert\n        /* \"smart-contracts/remix-ide/contracts/KRNL.sol\":1804:1888  if (finalOpinion == false) {... */\n    tag_79:\n        /* \"smart-contracts/remix-ide/contracts/Sample.sol\":145:1412  contract Sample is KRNL {... */\n      mload(0x40)\n      shl(0xe5, 0x461bcd)\n        /* \"smart-contracts/remix-ide/contracts/KRNL.sol\":1845:1877  revert(\"Final opinion reverted\") */\n      dup2\n      mstore\n        /* \"smart-contracts/remix-ide/contracts/Sample.sol\":145:1412  contract Sample is KRNL {... */\n      0x20\n      0x04\n        /* \"smart-contracts/remix-ide/contracts/KRNL.sol\":1845:1877  revert(\"Final opinion reverted\") */\n      dup3\n      add\n        /* \"smart-contracts/remix-ide/contracts/Sample.sol\":145:1412  contract Sample is KRNL {... */\n      mstore\n      0x16\n      0x24\n      dup3\n      add\n      mstore\n      shl(0x52, 0x119a5b985b081bdc1a5b9a5bdb881c995d995c9d1959)\n      0x44\n      dup3\n      add\n      mstore\n      0x64\n      swap1\n        /* \"smart-contracts/remix-ide/contracts/KRNL.sol\":1845:1877  revert(\"Final opinion reverted\") */\n      revert\n        /* \"smart-contracts/remix-ide/contracts/Sample.sol\":145:1412  contract Sample is KRNL {... */\n    tag_29:\n      jumpi(tag_39, callvalue)\n      jumpi(tag_39, slt(add(not(0x03), calldatasize), 0x20))\n      calldataload(0x04)\n      sub(shl(0xa0, 0x01), 0x01)\n      dup2\n      and\n      swap1\n      dup2\n      swap1\n      sub\n      tag_39\n      jumpi\n        /* \"@openzeppelin/contracts/access/Ownable.sol\":1500:1562  modifier onlyOwner() {... */\n      tag_160\n      tag_12\n      jump\t// in\n    tag_160:\n      sub(shl(0x60, 0x01), 0x01)\n        /* \"smart-contracts/remix-ide/contracts/Sample.sol\":145:1412  contract Sample is KRNL {... */\n      0xa0\n      shl\n        /* \"smart-contracts/remix-ide/contracts/KRNL.sol\":1264:1314  tokenAuthorityPublicKey = _tokenAuthorityPublicKey */\n      0x01\n        /* \"smart-contracts/remix-ide/contracts/Sample.sol\":145:1412  contract Sample is KRNL {... */\n      sload\n      and\n      or\n        /* \"smart-contracts/remix-ide/contracts/KRNL.sol\":1264:1314  tokenAuthorityPublicKey = _tokenAuthorityPublicKey */\n      0x01\n        /* \"smart-contracts/remix-ide/contracts/Sample.sol\":145:1412  contract Sample is KRNL {... */\n      sstore\n      0x00\n      dup1\n      return\n    tag_27:\n      jumpi(tag_39, callvalue)\n      jumpi(tag_39, slt(add(not(0x03), calldatasize), 0x20))\n      calldataload(0x04)\n      sub(shl(0x40, 0x01), 0x01)\n      dup2\n      gt\n      tag_39\n      jumpi\n      0xff\n      tag_167\n      0x20\n      tag_168\n      dup2\n      swap5\n      calldatasize\n      swap1\n      0x04\n      add\n      tag_7\n      jump\t// in\n    tag_168:\n      dup2\n      mload(0x40)\n      swap4\n      dup3\n      dup6\n      dup1\n      swap5\n      mload\n      swap4\n      dup5\n      swap3\n      add\n      tag_1\n      jump\t// in\n    tag_167:\n      dup2\n      add\n        /* \"smart-contracts/remix-ide/contracts/KRNL.sol\":736:774  mapping(bytes => bool) public executed */\n      0x02\n        /* \"smart-contracts/remix-ide/contracts/Sample.sol\":145:1412  contract Sample is KRNL {... */\n      dup2\n      mstore\n      sub\n      add\n      swap1\n      keccak256\n      sload\n      and\n      mload(0x40)\n      swap1\n      iszero\n      iszero\n      dup2\n      mstore\n      return\n    tag_25:\n      jumpi(tag_39, callvalue)\n      jumpi(tag_39, slt(add(not(0x03), calldatasize), 0x00))\n      sload(0x00)\n      mload(0x40)\n      sub(shl(0xa0, 0x01), 0x01)\n      swap1\n      swap2\n      and\n      dup2\n      mstore\n      0x20\n      swap1\n      return\n    tag_23:\n      jumpi(tag_39, callvalue)\n      jumpi(tag_39, slt(add(not(0x03), calldatasize), 0x00))\n        /* \"@openzeppelin/contracts/access/Ownable.sol\":1500:1562  modifier onlyOwner() {... */\n      tag_177\n      tag_12\n      jump\t// in\n    tag_177:\n        /* \"smart-contracts/remix-ide/contracts/Sample.sol\":145:1412  contract Sample is KRNL {... */\n      0x00\n      dup1\n      sload\n      not(sub(shl(0xa0, 0x01), 0x01))\n      dup2\n      and\n      dup3\n      sstore\n      sub(shl(0xa0, 0x01), 0x01)\n      and\n        /* \"@openzeppelin/contracts/access/Ownable.sol\":3052:3092  OwnershipTransferred(oldOwner, newOwner) */\n      0x8be0079c531659141344cd1fd0a4f28419497f9722a3daafe3b4186f6b6457e0\n        /* \"smart-contracts/remix-ide/contracts/Sample.sol\":145:1412  contract Sample is KRNL {... */\n      dup3\n      dup1\n        /* \"@openzeppelin/contracts/access/Ownable.sol\":3052:3092  OwnershipTransferred(oldOwner, newOwner) */\n      log3\n        /* \"smart-contracts/remix-ide/contracts/Sample.sol\":145:1412  contract Sample is KRNL {... */\n      stop\n    tag_21:\n      jumpi(tag_39, callvalue)\n      jumpi(tag_39, slt(add(not(0x03), calldatasize), 0x00))\n      sload(0x01)\n      mload(0x40)\n      sub(shl(0xa0, 0x01), 0x01)\n      swap1\n      swap2\n      and\n      dup2\n      mstore\n      0x20\n      swap1\n      return\n    tag_19:\n      jumpi(tag_39, callvalue)\n      jumpi(tag_39, slt(add(not(0x03), calldatasize), 0x00))\n        /* \"smart-contracts/remix-ide/contracts/Sample.sol\":1396:1403  message */\n      0x03\n        /* \"smart-contracts/remix-ide/contracts/Sample.sol\":145:1412  contract Sample is KRNL {... */\n      sload\n      0x00\n      dup3\n      tag_186\n      dup4\n      tag_8\n      jump\t// in\n    tag_186:\n      swap2\n      dup3\n      dup3\n      mstore\n      0x20\n      swap4\n      0x01\n      swap1\n      dup6\n      0x01\n      dup3\n      and\n      swap2\n      dup3\n      0x00\n      eq\n      tag_187\n      jumpi\n      pop\n      pop\n      0x01\n      eq\n      tag_189\n      jumpi\n    tag_190:\n      pop\n      tag_191\n      swap3\n      pop\n      sub\n      dup4\n      tag_4\n      jump\t// in\n    tag_191:\n      tag_192\n      mload(0x40)\n      swap3\n      dup3\n      dup5\n      swap4\n      dup5\n      mstore\n      dup4\n      add\n      swap1\n      tag_2\n      jump\t// in\n    tag_192:\n      sub\n      swap1\n      return\n    tag_189:\n      dup5\n      swap2\n      pop\n        /* \"smart-contracts/remix-ide/contracts/Sample.sol\":1396:1403  message */\n      0x03\n        /* \"smart-contracts/remix-ide/contracts/Sample.sol\":145:1412  contract Sample is KRNL {... */\n      0x00\n      mstore\n      0xc2575a0e9e593c00f959f8c92f12db2869c3395a3b0502d05e2516446f71f85b\n      swap1\n      0x00\n      swap2\n    tag_193:\n      dup6\n      dup4\n      lt\n      tag_194\n      jumpi\n      pop\n      pop\n      tag_191\n      swap4\n      pop\n      dup3\n      add\n      add\n      dup6\n      jump(tag_190)\n    tag_194:\n      dup1\n      sload\n      dup4\n      dup10\n      add\n      dup6\n      add\n      mstore\n      dup8\n      swap5\n      pop\n      dup7\n      swap4\n      swap1\n      swap3\n      add\n      swap2\n      dup2\n      add\n      jump(tag_193)\n    tag_187:\n      not(0xff)\n      and\n      dup6\n      dup3\n      add\n      mstore\n      tag_191\n      swap6\n      iszero\n      iszero\n      0x05\n      shl\n      dup6\n      add\n      add\n      swap3\n      pop\n      dup8\n      swap2\n      pop\n      tag_190\n      swap1\n      pop\n      jump\n    tag_1:\n      0x00\n    tag_196:\n      dup4\n      dup2\n      lt\n      tag_197\n      jumpi\n      pop\n      pop\n      0x00\n      swap2\n      add\n      mstore\n      jump\t// out\n    tag_197:\n      dup2\n      dup2\n      add\n      mload\n      dup4\n      dup3\n      add\n      mstore\n      0x20\n      add\n      jump(tag_196)\n    tag_2:\n      swap1\n      0x20\n      swap2\n      tag_199\n      dup2\n      mload\n      dup1\n      swap3\n      dup2\n      dup6\n      mstore\n      dup6\n      dup1\n      dup7\n      add\n      swap2\n      add\n      tag_1\n      jump\t// in\n    tag_199:\n      0x1f\n      add\n      not(0x1f)\n      and\n      add\n      add\n      swap1\n      jump\t// out\n    tag_3:\n      0x60\n      dup2\n      add\n      swap1\n      dup2\n      lt\n      sub(shl(0x40, 0x01), 0x01)\n      dup3\n      gt\n      or\n      tag_120\n      jumpi\n      0x40\n      mstore\n      jump\t// out\n    tag_4:\n      swap1\n      0x1f\n        /* \"smart-contracts/remix-ide/contracts/Sample.sol\":722:739  abi.encode(input) */\n      dup1\n      not\n        /* \"smart-contracts/remix-ide/contracts/Sample.sol\":145:1412  contract Sample is KRNL {... */\n      swap2\n      add\n      and\n      dup2\n      add\n      swap1\n      dup2\n      lt\n      sub(shl(0x40, 0x01), 0x01)\n      dup3\n      gt\n      or\n      tag_120\n      jumpi\n      0x40\n      mstore\n      jump\t// out\n    tag_5:\n      sub(shl(0x40, 0x01), 0x01)\n      dup2\n      gt\n      tag_120\n      jumpi\n      0x1f\n      add\n      not(0x1f)\n      and\n      0x20\n      add\n      swap1\n      jump\t// out\n    tag_6:\n      swap3\n      swap2\n      swap3\n      tag_206\n      dup3\n      tag_5\n      jump\t// in\n    tag_206:\n      swap2\n      tag_207\n      mload(0x40)\n      swap4\n      dup5\n      tag_4\n      jump\t// in\n    tag_207:\n      dup3\n      swap5\n      dup2\n      dup5\n      mstore\n      dup2\n      dup4\n      add\n      gt\n      tag_39\n      jumpi\n      dup3\n      dup2\n      0x20\n      swap4\n      dup5\n      0x00\n      swap7\n      add\n      calldatacopy\n      add\n      add\n      mstore\n      jump\t// out\n    tag_7:\n      swap1\n      dup1\n      0x1f\n      dup4\n      add\n      slt\n      iszero\n      tag_39\n      jumpi\n      dup2\n      0x20\n      tag_212\n      swap4\n      calldataload\n      swap2\n      add\n      tag_6\n      jump\t// in\n    tag_212:\n      swap1\n      jump\t// out\n    tag_8:\n      swap1\n      0x01\n      dup3\n      dup2\n      shr\n      swap3\n      and\n      dup1\n      iszero\n      tag_213\n      jumpi\n    tag_214:\n      0x20\n      dup4\n      lt\n      eq\n      tag_215\n      jumpi\n      jump\t// out\n    tag_215:\n      mstore(0x00, shl(0xe0, 0x4e487b71))\n      mstore(0x04, 0x22)\n      revert(0x00, 0x24)\n    tag_213:\n      swap2\n      0x7f\n      and\n      swap2\n      jump(tag_214)\n    tag_9:\n      swap1\n      swap3\n      swap2\n      swap3\n      tag_217\n      dup2\n      tag_5\n      jump\t// in\n    tag_217:\n      swap2\n      tag_218\n      mload(0x40)\n      swap4\n      dup5\n      tag_4\n      jump\t// in\n    tag_218:\n      dup3\n      swap5\n      dup3\n      dup5\n      mstore\n      dup3\n      dup3\n      add\n      gt\n      tag_39\n      jumpi\n      0x20\n      tag_221\n      swap4\n      add\n      swap1\n      tag_1\n      jump\t// in\n    tag_221:\n      jump\t// out\n    tag_10:\n      swap1\n      dup1\n      0x1f\n      dup4\n      add\n      slt\n      iszero\n      tag_39\n      jumpi\n      dup2\n      mload\n      tag_212\n      swap3\n      0x20\n      add\n      tag_9\n      jump\t// in\n    tag_11:\n      dup1\n      mload\n      dup3\n      lt\n      iszero\n      tag_225\n      jumpi\n      0x20\n      swap2\n      0x05\n      shl\n      add\n      add\n      swap1\n      jump\t// out\n    tag_225:\n      mstore(0x00, shl(0xe0, 0x4e487b71))\n      mstore(0x04, 0x32)\n      revert(0x00, 0x24)\n        /* \"@openzeppelin/contracts/access/Ownable.sol\":1796:1958  function _checkOwner() internal view virtual {... */\n    tag_12:\n        /* \"@openzeppelin/contracts/access/Ownable.sol\":1710:1716  _owner */\n      0x00\n        /* \"smart-contracts/remix-ide/contracts/Sample.sol\":145:1412  contract Sample is KRNL {... */\n      sload\n      sub(shl(0xa0, 0x01), 0x01)\n      and\n        /* \"@openzeppelin/contracts/utils/Context.sol\":735:745  msg.sender */\n      caller\n        /* \"@openzeppelin/contracts/access/Ownable.sol\":1855:1878  owner() != _msgSender() */\n      sub\n        /* \"@openzeppelin/contracts/access/Ownable.sol\":1851:1952  if (owner() != _msgSender()) {... */\n      tag_227\n      jumpi\n        /* \"@openzeppelin/contracts/access/Ownable.sol\":1796:1958  function _checkOwner() internal view virtual {... */\n      jump\t// out\n        /* \"@openzeppelin/contracts/access/Ownable.sol\":1851:1952  if (owner() != _msgSender()) {... */\n    tag_227:\n        /* \"smart-contracts/remix-ide/contracts/Sample.sol\":145:1412  contract Sample is KRNL {... */\n      mload(0x40)\n      shl(0xe0, 0x118cdaa7)\n        /* \"@openzeppelin/contracts/access/Ownable.sol\":1901:1941  OwnableUnauthorizedAccount(_msgSender()) */\n      dup2\n      mstore\n        /* \"@openzeppelin/contracts/utils/Context.sol\":735:745  msg.sender */\n      caller\n        /* \"@openzeppelin/contracts/access/Ownable.sol\":1901:1941  OwnableUnauthorizedAccount(_msgSender()) */\n      0x04\n      dup3\n      add\n        /* \"smart-contracts/remix-ide/contracts/Sample.sol\":145:1412  contract Sample is KRNL {... */\n      mstore\n      0x24\n      swap1\n        /* \"@openzeppelin/contracts/access/Ownable.sol\":1901:1941  OwnableUnauthorizedAccount(_msgSender()) */\n      revert\n        /* \"smart-contracts/remix-ide/contracts/Sample.sol\":145:1412  contract Sample is KRNL {... */\n    tag_13:\n      0x20\n      swap1\n      tag_229\n      0x14\n      swap5\n      swap4\n      dup3\n      dup2\n      mload\n      swap5\n      dup6\n      swap3\n      add\n      tag_1\n      jump\t// in\n    tag_229:\n      add\n      swap1\n      not(sub(shl(0x60, 0x01), 0x01))\n      swap1\n      0x60\n      shl\n      and\n      dup2\n      mstore\n      add\n      swap1\n      jump\t// out\n        /* \"@openzeppelin/contracts/utils/cryptography/ECDSA.sol\":2129:2907  function tryRecover(... */\n    tag_14:\n        /* \"smart-contracts/remix-ide/contracts/Sample.sol\":145:1412  contract Sample is KRNL {... */\n      dup2\n      mload\n      swap2\n        /* \"@openzeppelin/contracts/utils/cryptography/ECDSA.sol\":2129:2907  function tryRecover(... */\n      swap1\n        /* \"@openzeppelin/contracts/utils/cryptography/ECDSA.sol\":2319:2321  65 */\n      0x41\n        /* \"@openzeppelin/contracts/utils/cryptography/ECDSA.sol\":2299:2321  signature.length == 65 */\n      dup4\n      sub\n        /* \"@openzeppelin/contracts/utils/cryptography/ECDSA.sol\":2319:2321  65 */\n      tag_230\n      jumpi\n        /* \"@openzeppelin/contracts/utils/cryptography/ECDSA.sol\":2751:2776  tryRecover(hash, v, r, s) */\n      tag_232\n        /* \"@openzeppelin/contracts/utils/cryptography/ECDSA.sol\":2535:2731  assembly (\"memory-safe\") {... */\n      swap3\n      pop\n      0x20\n      dup3\n      add\n      mload\n      swap1\n      0x60\n      0x40\n      dup5\n      add\n      mload\n      swap4\n      add\n      mload\n      0x00\n      byte\n        /* \"@openzeppelin/contracts/utils/cryptography/ECDSA.sol\":2751:2776  tryRecover(hash, v, r, s) */\n      swap1\n      tag_16\n      jump\t// in\n    tag_232:\n        /* \"@openzeppelin/contracts/utils/cryptography/ECDSA.sol\":2744:2776  return tryRecover(hash, v, r, s) */\n      swap2\n      swap3\n      swap1\n      swap2\n      swap1\n      jump\t// out\n        /* \"@openzeppelin/contracts/utils/cryptography/ECDSA.sol\":2295:2901  if (signature.length == 65) {... */\n    tag_230:\n        /* \"@openzeppelin/contracts/utils/cryptography/ECDSA.sol\":2807:2890  return (address(0), RecoverError.InvalidSignatureLength, bytes32(signature.length)) */\n      pop\n      pop\n        /* \"@openzeppelin/contracts/utils/cryptography/ECDSA.sol\":2823:2824  0 */\n      0x00\n        /* \"@openzeppelin/contracts/utils/cryptography/ECDSA.sol\":2807:2890  return (address(0), RecoverError.InvalidSignatureLength, bytes32(signature.length)) */\n      swap2\n        /* \"@openzeppelin/contracts/utils/cryptography/ECDSA.sol\":2827:2862  RecoverError.InvalidSignatureLength */\n      0x02\n        /* \"@openzeppelin/contracts/utils/cryptography/ECDSA.sol\":2807:2890  return (address(0), RecoverError.InvalidSignatureLength, bytes32(signature.length)) */\n      swap2\n      swap1\n      jump\t// out\n        /* \"@openzeppelin/contracts/utils/cryptography/ECDSA.sol\":7280:7812  function _throwError(RecoverError error, bytes32 errorArg) private pure {... */\n    tag_15:\n        /* \"smart-contracts/remix-ide/contracts/Sample.sol\":145:1412  contract Sample is KRNL {... */\n      0x04\n      dup2\n      lt\n      iszero\n      tag_233\n      jumpi\n        /* \"@openzeppelin/contracts/utils/cryptography/ECDSA.sol\":7366:7395  error == RecoverError.NoError */\n      dup1\n      tag_235\n      jumpi\n        /* \"@openzeppelin/contracts/utils/cryptography/ECDSA.sol\":7411:7418  return; */\n      pop\n      pop\n      jump\t// out\n        /* \"@openzeppelin/contracts/utils/cryptography/ECDSA.sol\":7362:7806  if (error == RecoverError.NoError) {... */\n    tag_235:\n        /* \"smart-contracts/remix-ide/contracts/Sample.sol\":145:1412  contract Sample is KRNL {... */\n      0x01\n        /* \"@openzeppelin/contracts/utils/cryptography/ECDSA.sol\":7462:7500  error == RecoverError.InvalidSignature */\n      dup2\n      sub\n        /* \"smart-contracts/remix-ide/contracts/Sample.sol\":145:1412  contract Sample is KRNL {... */\n      tag_237\n      jumpi\n      mload(0x40)\n      shl(0xe0, 0xf645eedf)\n        /* \"@openzeppelin/contracts/utils/cryptography/ECDSA.sol\":7523:7546  ECDSAInvalidSignature() */\n      dup2\n      mstore\n        /* \"smart-contracts/remix-ide/contracts/Sample.sol\":145:1412  contract Sample is KRNL {... */\n      0x04\n      swap1\n        /* \"@openzeppelin/contracts/utils/cryptography/ECDSA.sol\":7523:7546  ECDSAInvalidSignature() */\n      revert\n        /* \"@openzeppelin/contracts/utils/cryptography/ECDSA.sol\":7458:7806  if (error == RecoverError.InvalidSignature) {... */\n    tag_237:\n        /* \"@openzeppelin/contracts/utils/cryptography/ECDSA.sol\":7576:7611  RecoverError.InvalidSignatureLength */\n      0x02\n        /* \"@openzeppelin/contracts/utils/cryptography/ECDSA.sol\":7567:7611  error == RecoverError.InvalidSignatureLength */\n      dup2\n      sub\n        /* \"@openzeppelin/contracts/utils/cryptography/ECDSA.sol\":7576:7611  RecoverError.InvalidSignatureLength */\n      tag_239\n      jumpi\n        /* \"smart-contracts/remix-ide/contracts/Sample.sol\":145:1412  contract Sample is KRNL {... */\n      mload(0x40)\n      shl(0xe0, 0xfce698f7)\n        /* \"@openzeppelin/contracts/utils/cryptography/ECDSA.sol\":7634:7680  ECDSAInvalidSignatureLength(uint256(errorArg)) */\n      dup2\n      mstore\n        /* \"smart-contracts/remix-ide/contracts/Sample.sol\":145:1412  contract Sample is KRNL {... */\n      0x04\n        /* \"@openzeppelin/contracts/utils/cryptography/ECDSA.sol\":7634:7680  ECDSAInvalidSignatureLength(uint256(errorArg)) */\n      dup2\n      add\n        /* \"smart-contracts/remix-ide/contracts/Sample.sol\":145:1412  contract Sample is KRNL {... */\n      dup4\n      swap1\n      mstore\n      0x24\n      swap1\n        /* \"@openzeppelin/contracts/utils/cryptography/ECDSA.sol\":7634:7680  ECDSAInvalidSignatureLength(uint256(errorArg)) */\n      revert\n        /* \"@openzeppelin/contracts/utils/cryptography/ECDSA.sol\":7563:7806  if (error == RecoverError.InvalidSignatureLength) {... */\n    tag_239:\n        /* \"@openzeppelin/contracts/utils/cryptography/ECDSA.sol\":7710:7740  RecoverError.InvalidSignatureS */\n      0x03\n        /* \"@openzeppelin/contracts/utils/cryptography/ECDSA.sol\":7701:7740  error == RecoverError.InvalidSignatureS */\n      eq\n        /* \"@openzeppelin/contracts/utils/cryptography/ECDSA.sol\":7697:7806  if (error == RecoverError.InvalidSignatureS) {... */\n      tag_241\n      jumpi\n        /* \"@openzeppelin/contracts/utils/cryptography/ECDSA.sol\":7563:7806  if (error == RecoverError.InvalidSignatureLength) {... */\n      pop\n        /* \"@openzeppelin/contracts/utils/cryptography/ECDSA.sol\":7280:7812  function _throwError(RecoverError error, bytes32 errorArg) private pure {... */\n      jump\t// out\n        /* \"@openzeppelin/contracts/utils/cryptography/ECDSA.sol\":7697:7806  if (error == RecoverError.InvalidSignatureS) {... */\n    tag_241:\n        /* \"smart-contracts/remix-ide/contracts/Sample.sol\":145:1412  contract Sample is KRNL {... */\n      0x24\n      swap1\n      mload(0x40)\n        /* \"@openzeppelin/contracts/utils/cryptography/ECDSA.sol\":7763:7795  ECDSAInvalidSignatureS(errorArg) */\n      swap1\n      shl(0xe2, 0x35e2f383)\n      dup3\n      mstore\n        /* \"smart-contracts/remix-ide/contracts/Sample.sol\":145:1412  contract Sample is KRNL {... */\n      0x04\n        /* \"@openzeppelin/contracts/utils/cryptography/ECDSA.sol\":7763:7795  ECDSAInvalidSignatureS(errorArg) */\n      dup3\n      add\n        /* \"smart-contracts/remix-ide/contracts/Sample.sol\":145:1412  contract Sample is KRNL {... */\n      mstore\n        /* \"@openzeppelin/contracts/utils/cryptography/ECDSA.sol\":7763:7795  ECDSAInvalidSignatureS(errorArg) */\n      revert\n        /* \"smart-contracts/remix-ide/contracts/Sample.sol\":145:1412  contract Sample is KRNL {... */\n    tag_233:\n      shl(0xe0, 0x4e487b71)\n        /* \"@openzeppelin/contracts/utils/cryptography/ECDSA.sol\":7375:7395  RecoverError.NoError */\n      0x00\n        /* \"smart-contracts/remix-ide/contracts/Sample.sol\":145:1412  contract Sample is KRNL {... */\n      mstore\n      mstore(0x04, 0x21)\n      0x24\n        /* \"@openzeppelin/contracts/utils/cryptography/ECDSA.sol\":7375:7395  RecoverError.NoError */\n      0x00\n        /* \"smart-contracts/remix-ide/contracts/Sample.sol\":145:1412  contract Sample is KRNL {... */\n      revert\n        /* \"@openzeppelin/contracts/utils/cryptography/ECDSA.sol\":5203:6754  function tryRecover(... */\n    tag_16:\n      swap2\n      swap1\n        /* \"@openzeppelin/contracts/utils/cryptography/ECDSA.sol\":6283:6349  0x7FFFFFFFFFFFFFFFFFFFFFFFFFFFFFFF5D576E7357A4501DDFE92F46681B20A0 */\n      0x7fffffffffffffffffffffffffffffff5d576e7357a4501ddfe92f46681b20a0\n        /* \"@openzeppelin/contracts/utils/cryptography/ECDSA.sol\":6270:6349  uint256(s) > 0x7FFFFFFFFFFFFFFFFFFFFFFFFFFFFFFF5D576E7357A4501DDFE92F46681B20A0 */\n      dup5\n      gt\n        /* \"@openzeppelin/contracts/utils/cryptography/ECDSA.sol\":6266:6430  if (uint256(s) > 0x7FFFFFFFFFFFFFFFFFFFFFFFFFFFFFFF5D576E7357A4501DDFE92F46681B20A0) {... */\n      tag_243\n      jumpi\n        /* \"smart-contracts/remix-ide/contracts/Sample.sol\":145:1412  contract Sample is KRNL {... */\n      swap2\n      0x20\n      swap4\n      0x80\n      swap3\n      0xff\n      0x00\n      swap6\n      mload(0x40)\n      swap5\n      dup6\n      mstore\n      and\n      dup7\n      dup5\n      add\n      mstore\n      0x40\n      dup4\n      add\n      mstore\n      0x60\n      dup3\n      add\n      mstore\n        /* \"@openzeppelin/contracts/utils/cryptography/ECDSA.sol\":6541:6565  ecrecover(hash, v, r, s) */\n      dup3\n      dup1\n      mstore\n      0x01\n      gas\n      staticcall\n      iszero\n      tag_245\n      jumpi\n      mload(0x00)\n      sub(shl(0xa0, 0x01), 0x01)\n        /* \"smart-contracts/remix-ide/contracts/Sample.sol\":145:1412  contract Sample is KRNL {... */\n      dup2\n      and\n        /* \"@openzeppelin/contracts/utils/cryptography/ECDSA.sol\":6579:6599  signer == address(0) */\n      iszero\n        /* \"@openzeppelin/contracts/utils/cryptography/ECDSA.sol\":6575:6688  if (signer == address(0)) {... */\n      tag_247\n      jumpi\n        /* \"@openzeppelin/contracts/utils/cryptography/ECDSA.sol\":6698:6747  return (signer, RecoverError.NoError, bytes32(0)) */\n      swap1\n      0x00\n      swap1\n      0x00\n        /* \"@openzeppelin/contracts/utils/cryptography/ECDSA.sol\":5203:6754  function tryRecover(... */\n      swap1\n      jump\t// out\n        /* \"@openzeppelin/contracts/utils/cryptography/ECDSA.sol\":6575:6688  if (signer == address(0)) {... */\n    tag_247:\n        /* \"@openzeppelin/contracts/utils/cryptography/ECDSA.sol\":6615:6677  return (address(0), RecoverError.InvalidSignature, bytes32(0)) */\n      pop\n      0x00\n      swap1\n        /* \"@openzeppelin/contracts/utils/cryptography/ECDSA.sol\":6541:6565  ecrecover(hash, v, r, s) */\n      0x01\n        /* \"@openzeppelin/contracts/utils/cryptography/ECDSA.sol\":6615:6677  return (address(0), RecoverError.InvalidSignature, bytes32(0)) */\n      swap1\n      0x00\n      swap1\n      jump\t// out\n        /* \"@openzeppelin/contracts/utils/cryptography/ECDSA.sol\":6541:6565  ecrecover(hash, v, r, s) */\n    tag_245:\n        /* \"smart-contracts/remix-ide/contracts/Sample.sol\":145:1412  contract Sample is KRNL {... */\n      mload(0x40)\n      returndatasize\n      0x00\n      dup3\n      returndatacopy\n      returndatasize\n      swap1\n      revert\n        /* \"@openzeppelin/contracts/utils/cryptography/ECDSA.sol\":6266:6430  if (uint256(s) > 0x7FFFFFFFFFFFFFFFFFFFFFFFFFFFFFFF5D576E7357A4501DDFE92F46681B20A0) {... */\n    tag_243:\n        /* \"@openzeppelin/contracts/utils/cryptography/ECDSA.sol\":6365:6419  return (address(0), RecoverError.InvalidSignatureS, s) */\n      pop\n      pop\n      pop\n        /* \"@openzeppelin/contracts/utils/cryptography/ECDSA.sol\":6381:6382  0 */\n      0x00\n        /* \"@openzeppelin/contracts/utils/cryptography/ECDSA.sol\":6365:6419  return (address(0), RecoverError.InvalidSignatureS, s) */\n      swap2\n        /* \"@openzeppelin/contracts/utils/cryptography/ECDSA.sol\":6385:6415  RecoverError.InvalidSignatureS */\n      0x03\n        /* \"@openzeppelin/contracts/utils/cryptography/ECDSA.sol\":6365:6419  return (address(0), RecoverError.InvalidSignatureS, s) */\n      swap2\n      swap1\n      jump\t// out\n\n    auxdata: 0xa2646970667358221220e0f14259d8befe52d1986af03f3360a6d163a664b92cf945cb370e6ae0b2e43f64736f6c63430008180033\n}\n",
				"bytecode": {
					"linkReferences": {},
					"object": "60803461015d57601f610f1d38819003918201601f19168301916001600160401b038311848410176101615780849260209460405283398101031261015d57516001600160a01b03908181169081900361015d573315610145575f549060018060a01b03199133838216175f55604051933391167f8be0079c531659141344cd1fd0a4f28419497f9722a3daafe3b4186f6b6457e05f80a36001916001541617600155600354600181811c9116801561013b575b602082101461012757601f81116100e0575b600a6468656c6c6f60d81b01600355610da783816101768239f35b60035f52601f0160051c7fc2575a0e9e593c00f959f8c92f12db2869c3395a3b0502d05e2516446f71f85b908101905b81811061011d57506100c5565b5f81558201610110565b634e487b7160e01b5f52602260045260245ffd5b90607f16906100b3565b604051631e4fbdf760e01b81525f6004820152602490fd5b5f80fd5b634e487b7160e01b5f52604160045260245ffdfe6080806040526004361015610012575f80fd5b5f3560e01c908163031d5d011461094f575080634ba1cfe414610927578063715018a6146108d05780638da5cb5b146108a9578063909dd26314610848578063d213d86b14610803578063df2fb9b9146100ff5763f2fde38b14610074575f80fd5b346100fb5760203660031901126100fb576004356001600160a01b03818116918290036100fb576100a3610bd0565b81156100e3575f54826001600160601b0360a01b8216175f55167f8be0079c531659141344cd1fd0a4f28419497f9722a3daafe3b4186f6b6457e05f80a3005b604051631e4fbdf760e01b81525f6004820152602490fd5b5f80fd5b346100fb576003196040368201126100fb57600435906001600160401b0382116100fb5760609082360301126100fb576040519061013c82610a74565b80600401356001600160401b0381116100fb5761015f9060043691840101610b01565b825260248101356001600160401b0381116100fb576101849060043691840101610b01565b60208301526044810135906001600160401b0382116100fb5760046101ac9236920101610b01565b60408201526024356001600160401b0381116100fb57366023820112156100fb576101e1903690602481600401359101610acb565b9060405160208082015261020a816101fc6040820186610a4f565b03601f198101835282610a8f565b815190815182019060a083602084019303126100fb5760208301516001600160401b0381116100fb5782602061024292860101610b8e565b926040810151926060820151906001600160401b0382116100fb57602061026b92840101610b8e565b9060a06080820151910151908115918215036100fb57816107c5576102b16102ba9660208901516040516102a9816101fc6020820194339086610bfb565b519020610c27565b90979197610c61565b6001546001600160a01b039081169616869003610771578460408801516040516102ee816101fc6020820194339086610bfb565b5190209460208151910120940361072c57604051946020860194855260408601523360601b606086015260748501521560f81b60948401526075835260a08301918383106001600160401b038411176105f85761035d9361035493604052519020610c27565b90929192610c61565b6001600160a01b0316036106db5760200151805181016020828203126100fb576020820151916001600160401b0383116100fb5760208201603f8483010112156100fb5760208382010151906001600160401b0382116105f857604051936103cb60208460051b0186610a8f565b82855260208501906020850160408560051b8386010101116100fb57604081840101915b60408560051b8386010101831061060c5787875f805b82518110156104535761015161041b8285610ba8565b51511461042b575b600101610405565b905060206104398284610ba8565b5101516020818051810103126100fb576020015190610423565b50828051916001600160401b0383116105f85760036104728154610b1f565b601f8111610596575b50602093601f81116001146104f857807fd5609c6ad246ea472bde0ce5c102ad7b553d441be78efcc4a9ac8c5b46cfd9a5955f916104ed575b508160011b915f1990841b1c19161790555b6104e86040519283923384526020840152606060408401526060830190610a4f565b0390a1005b9050840151866104b4565b601f19811694825f527fc2575a0e9e593c00f959f8c92f12db2869c3395a3b0502d05e2516446f71f85b955f5b81811061057e57509582916001937fd5609c6ad246ea472bde0ce5c102ad7b553d441be78efcc4a9ac8c5b46cfd9a59810610567575b5050811b0190556104c6565b8601515f1983861b60f8161c19169055868061055b565b86830151885560019097019660209283019201610525565b815f527fc2575a0e9e593c00f959f8c92f12db2869c3395a3b0502d05e2516446f71f85b601f860160051c810191602087106105ee575b601f0160051c01905b8181106105e3575061047b565b5f81556001016105d6565b90915081906105cd565b634e487b7160e01b5f52604160045260245ffd5b8251906001600160401b0382116100fb57606085840183018803601f1901126100fb576040519161063c83610a74565b858401810160408101518452606001516001600160401b0381116100fb5761067190604060208b019184888b01010101610b8e565b6020840152608081858801010151916001600160401b0383116100fb5760208901605f8484888b0101010112156100fb576040936106ca602094938960608796878f01938b8b8383838801010101519401010101610b57565b8582015281520193019290506103ef565b60405162461bcd60e51b815260206004820152602360248201527f496e76616c6964207369676e617475726520666f722066756e6374696f6e2063604482015262185b1b60ea1b6064820152608490fd5b60405162461bcd60e51b815260206004820152601c60248201527f496e76616c6964206b65726e656c20706172616d7320646967657374000000006044820152606490fd5b60405162461bcd60e51b815260206004820152602660248201527f496e76616c6964207369676e617475726520666f72206b65726e656c20726573604482015265706f6e73657360d01b6064820152608490fd5b60405162461bcd60e51b8152602060048201526016602482015275119a5b985b081bdc1a5b9a5bdb881c995d995c9d195960521b6044820152606490fd5b346100fb5760203660031901126100fb576004356001600160a01b038116908190036100fb57610831610bd0565b6001600160601b0360a01b60015416176001555f80f35b346100fb5760203660031901126100fb576004356001600160401b0381116100fb5760ff610893602061088081943690600401610b01565b8160405193828580945193849201610a2e565b8101600281520301902054166040519015158152f35b346100fb575f3660031901126100fb575f546040516001600160a01b039091168152602090f35b346100fb575f3660031901126100fb576108e8610bd0565b5f80546001600160a01b0319811682556001600160a01b03167f8be0079c531659141344cd1fd0a4f28419497f9722a3daafe3b4186f6b6457e08280a3005b346100fb575f3660031901126100fb576001546040516001600160a01b039091168152602090f35b346100fb575f3660031901126100fb576003545f8261096d83610b1f565b91828252602093600190856001821691825f14610a0e5750506001146109b3575b5061099b92500383610a8f565b6109af604051928284938452830190610a4f565b0390f35b84915060035f527fc2575a0e9e593c00f959f8c92f12db2869c3395a3b0502d05e2516446f71f85b905f915b8583106109f657505061099b93508201018561098e565b805483890185015287945086939092019181016109df565b60ff19168582015261099b95151560051b850101925087915061098e9050565b5f5b838110610a3f5750505f910152565b8181015183820152602001610a30565b90602091610a6881518092818552858086019101610a2e565b601f01601f1916010190565b606081019081106001600160401b038211176105f857604052565b90601f801991011681019081106001600160401b038211176105f857604052565b6001600160401b0381116105f857601f01601f191660200190565b929192610ad782610ab0565b91610ae56040519384610a8f565b8294818452818301116100fb578281602093845f960137010152565b9080601f830112156100fb57816020610b1c93359101610acb565b90565b90600182811c92168015610b4d575b6020831014610b3957565b634e487b7160e01b5f52602260045260245ffd5b91607f1691610b2e565b90929192610b6481610ab0565b91610b726040519384610a8f565b8294828452828201116100fb576020610b8c930190610a2e565b565b9080601f830112156100fb578151610b1c92602001610b57565b8051821015610bbc5760209160051b010190565b634e487b7160e01b5f52603260045260245ffd5b5f546001600160a01b03163303610be357565b60405163118cdaa760e01b8152336004820152602490fd5b602090610c116014949382815194859201610a2e565b01906001600160601b03199060601b1681520190565b8151919060418303610c5757610c509250602082015190606060408401519301515f1a90610ce4565b9192909190565b50505f9160029190565b6004811015610cd05780610c73575050565b60018103610c8d5760405163f645eedf60e01b8152600490fd5b60028103610cae5760405163fce698f760e01b815260048101839052602490fd5b600314610cb85750565b602490604051906335e2f38360e21b82526004820152fd5b634e487b7160e01b5f52602160045260245ffd5b91907f7fffffffffffffffffffffffffffffff5d576e7357a4501ddfe92f46681b20a08411610d66579160209360809260ff5f9560405194855216868401526040830152606082015282805260015afa15610d5b575f516001600160a01b03811615610d5157905f905f90565b505f906001905f90565b6040513d5f823e3d90fd5b5050505f916003919056fea2646970667358221220e0f14259d8befe52d1986af03f3360a6d163a664b92cf945cb370e6ae0b2e43f64736f6c63430008180033",
					"opcodes": "PUSH1 0x80 CALLVALUE PUSH2 0x15D JUMPI PUSH1 0x1F PUSH2 0xF1D CODESIZE DUP2 SWAP1 SUB SWAP2 DUP3 ADD PUSH1 0x1F NOT AND DUP4 ADD SWAP2 PUSH1 0x1 PUSH1 0x1 PUSH1 0x40 SHL SUB DUP4 GT DUP5 DUP5 LT OR PUSH2 0x161 JUMPI DUP1 DUP5 SWAP3 PUSH1 0x20 SWAP5 PUSH1 0x40 MSTORE DUP4 CODECOPY DUP2 ADD SUB SLT PUSH2 0x15D JUMPI MLOAD PUSH1 0x1 PUSH1 0x1 PUSH1 0xA0 SHL SUB SWAP1 DUP2 DUP2 AND SWAP1 DUP2 SWAP1 SUB PUSH2 0x15D JUMPI CALLER ISZERO PUSH2 0x145 JUMPI PUSH0 SLOAD SWAP1 PUSH1 0x1 DUP1 PUSH1 0xA0 SHL SUB NOT SWAP2 CALLER DUP4 DUP3 AND OR PUSH0 SSTORE PUSH1 0x40 MLOAD SWAP4 CALLER SWAP2 AND PUSH32 0x8BE0079C531659141344CD1FD0A4F28419497F9722A3DAAFE3B4186F6B6457E0 PUSH0 DUP1 LOG3 PUSH1 0x1 SWAP2 PUSH1 0x1 SLOAD AND OR PUSH1 0x1 SSTORE PUSH1 0x3 SLOAD PUSH1 0x1 DUP2 DUP2 SHR SWAP2 AND DUP1 ISZERO PUSH2 0x13B JUMPI JUMPDEST PUSH1 0x20 DUP3 LT EQ PUSH2 0x127 JUMPI PUSH1 0x1F DUP2 GT PUSH2 0xE0 JUMPI JUMPDEST PUSH1 0xA PUSH5 0x68656C6C6F PUSH1 0xD8 SHL ADD PUSH1 0x3 SSTORE PUSH2 0xDA7 DUP4 DUP2 PUSH2 0x176 DUP3 CODECOPY RETURN JUMPDEST PUSH1 0x3 PUSH0 MSTORE PUSH1 0x1F ADD PUSH1 0x5 SHR PUSH32 0xC2575A0E9E593C00F959F8C92F12DB2869C3395A3B0502D05E2516446F71F85B SWAP1 DUP2 ADD SWAP1 JUMPDEST DUP2 DUP2 LT PUSH2 0x11D JUMPI POP PUSH2 0xC5 JUMP JUMPDEST PUSH0 DUP2 SSTORE DUP3 ADD PUSH2 0x110 JUMP JUMPDEST PUSH4 0x4E487B71 PUSH1 0xE0 SHL PUSH0 MSTORE PUSH1 0x22 PUSH1 0x4 MSTORE PUSH1 0x24 PUSH0 REVERT JUMPDEST SWAP1 PUSH1 0x7F AND SWAP1 PUSH2 0xB3 JUMP JUMPDEST PUSH1 0x40 MLOAD PUSH4 0x1E4FBDF7 PUSH1 0xE0 SHL DUP2 MSTORE PUSH0 PUSH1 0x4 DUP3 ADD MSTORE PUSH1 0x24 SWAP1 REVERT JUMPDEST PUSH0 DUP1 REVERT JUMPDEST PUSH4 0x4E487B71 PUSH1 0xE0 SHL PUSH0 MSTORE PUSH1 0x41 PUSH1 0x4 MSTORE PUSH1 0x24 PUSH0 REVERT INVALID PUSH1 0x80 DUP1 PUSH1 0x40 MSTORE PUSH1 0x4 CALLDATASIZE LT ISZERO PUSH2 0x12 JUMPI PUSH0 DUP1 REVERT JUMPDEST PUSH0 CALLDATALOAD PUSH1 0xE0 SHR SWAP1 DUP2 PUSH4 0x31D5D01 EQ PUSH2 0x94F JUMPI POP DUP1 PUSH4 0x4BA1CFE4 EQ PUSH2 0x927 JUMPI DUP1 PUSH4 0x715018A6 EQ PUSH2 0x8D0 JUMPI DUP1 PUSH4 0x8DA5CB5B EQ PUSH2 0x8A9 JUMPI DUP1 PUSH4 0x909DD263 EQ PUSH2 0x848 JUMPI DUP1 PUSH4 0xD213D86B EQ PUSH2 0x803 JUMPI DUP1 PUSH4 0xDF2FB9B9 EQ PUSH2 0xFF JUMPI PUSH4 0xF2FDE38B EQ PUSH2 0x74 JUMPI PUSH0 DUP1 REVERT JUMPDEST CALLVALUE PUSH2 0xFB JUMPI PUSH1 0x20 CALLDATASIZE PUSH1 0x3 NOT ADD SLT PUSH2 0xFB JUMPI PUSH1 0x4 CALLDATALOAD PUSH1 0x1 PUSH1 0x1 PUSH1 0xA0 SHL SUB DUP2 DUP2 AND SWAP2 DUP3 SWAP1 SUB PUSH2 0xFB JUMPI PUSH2 0xA3 PUSH2 0xBD0 JUMP JUMPDEST DUP2 ISZERO PUSH2 0xE3 JUMPI PUSH0 SLOAD DUP3 PUSH1 0x1 PUSH1 0x1 PUSH1 0x60 SHL SUB PUSH1 0xA0 SHL DUP3 AND OR PUSH0 SSTORE AND PUSH32 0x8BE0079C531659141344CD1FD0A4F28419497F9722A3DAAFE3B4186F6B6457E0 PUSH0 DUP1 LOG3 STOP JUMPDEST PUSH1 0x40 MLOAD PUSH4 0x1E4FBDF7 PUSH1 0xE0 SHL DUP2 MSTORE PUSH0 PUSH1 0x4 DUP3 ADD MSTORE PUSH1 0x24 SWAP1 REVERT JUMPDEST PUSH0 DUP1 REVERT JUMPDEST CALLVALUE PUSH2 0xFB JUMPI PUSH1 0x3 NOT PUSH1 0x40 CALLDATASIZE DUP3 ADD SLT PUSH2 0xFB JUMPI PUSH1 0x4 CALLDATALOAD SWAP1 PUSH1 0x1 PUSH1 0x1 PUSH1 0x40 SHL SUB DUP3 GT PUSH2 0xFB JUMPI PUSH1 0x60 SWAP1 DUP3 CALLDATASIZE SUB ADD SLT PUSH2 0xFB JUMPI PUSH1 0x40 MLOAD SWAP1 PUSH2 0x13C DUP3 PUSH2 0xA74 JUMP JUMPDEST DUP1 PUSH1 0x4 ADD CALLDATALOAD PUSH1 0x1 PUSH1 0x1 PUSH1 0x40 SHL SUB DUP2 GT PUSH2 0xFB JUMPI PUSH2 0x15F SWAP1 PUSH1 0x4 CALLDATASIZE SWAP2 DUP5 ADD ADD PUSH2 0xB01 JUMP JUMPDEST DUP3 MSTORE PUSH1 0x24 DUP2 ADD CALLDATALOAD PUSH1 0x1 PUSH1 0x1 PUSH1 0x40 SHL SUB DUP2 GT PUSH2 0xFB JUMPI PUSH2 0x184 SWAP1 PUSH1 0x4 CALLDATASIZE SWAP2 DUP5 ADD ADD PUSH2 0xB01 JUMP JUMPDEST PUSH1 0x20 DUP4 ADD MSTORE PUSH1 0x44 DUP2 ADD CALLDATALOAD SWAP1 PUSH1 0x1 PUSH1 0x1 PUSH1 0x40 SHL SUB DUP3 GT PUSH2 0xFB JUMPI PUSH1 0x4 PUSH2 0x1AC SWAP3 CALLDATASIZE SWAP3 ADD ADD PUSH2 0xB01 JUMP JUMPDEST PUSH1 0x40 DUP3 ADD MSTORE PUSH1 0x24 CALLDATALOAD PUSH1 0x1 PUSH1 0x1 PUSH1 0x40 SHL SUB DUP2 GT PUSH2 0xFB JUMPI CALLDATASIZE PUSH1 0x23 DUP3 ADD SLT ISZERO PUSH2 0xFB JUMPI PUSH2 0x1E1 SWAP1 CALLDATASIZE SWAP1 PUSH1 0x24 DUP2 PUSH1 0x4 ADD CALLDATALOAD SWAP2 ADD PUSH2 0xACB JUMP JUMPDEST SWAP1 PUSH1 0x40 MLOAD PUSH1 0x20 DUP1 DUP3 ADD MSTORE PUSH2 0x20A DUP2 PUSH2 0x1FC PUSH1 0x40 DUP3 ADD DUP7 PUSH2 0xA4F JUMP JUMPDEST SUB PUSH1 0x1F NOT DUP2 ADD DUP4 MSTORE DUP3 PUSH2 0xA8F JUMP JUMPDEST DUP2 MLOAD SWAP1 DUP2 MLOAD DUP3 ADD SWAP1 PUSH1 0xA0 DUP4 PUSH1 0x20 DUP5 ADD SWAP4 SUB SLT PUSH2 0xFB JUMPI PUSH1 0x20 DUP4 ADD MLOAD PUSH1 0x1 PUSH1 0x1 PUSH1 0x40 SHL SUB DUP2 GT PUSH2 0xFB JUMPI DUP3 PUSH1 0x20 PUSH2 0x242 SWAP3 DUP7 ADD ADD PUSH2 0xB8E JUMP JUMPDEST SWAP3 PUSH1 0x40 DUP2 ADD MLOAD SWAP3 PUSH1 0x60 DUP3 ADD MLOAD SWAP1 PUSH1 0x1 PUSH1 0x1 PUSH1 0x40 SHL SUB DUP3 GT PUSH2 0xFB JUMPI PUSH1 0x20 PUSH2 0x26B SWAP3 DUP5 ADD ADD PUSH2 0xB8E JUMP JUMPDEST SWAP1 PUSH1 0xA0 PUSH1 0x80 DUP3 ADD MLOAD SWAP2 ADD MLOAD SWAP1 DUP2 ISZERO SWAP2 DUP3 ISZERO SUB PUSH2 0xFB JUMPI DUP2 PUSH2 0x7C5 JUMPI PUSH2 0x2B1 PUSH2 0x2BA SWAP7 PUSH1 0x20 DUP10 ADD MLOAD PUSH1 0x40 MLOAD PUSH2 0x2A9 DUP2 PUSH2 0x1FC PUSH1 0x20 DUP3 ADD SWAP5 CALLER SWAP1 DUP7 PUSH2 0xBFB JUMP JUMPDEST MLOAD SWAP1 KECCAK256 PUSH2 0xC27 JUMP JUMPDEST SWAP1 SWAP8 SWAP2 SWAP8 PUSH2 0xC61 JUMP JUMPDEST PUSH1 0x1 SLOAD PUSH1 0x1 PUSH1 0x1 PUSH1 0xA0 SHL SUB SWAP1 DUP2 AND SWAP7 AND DUP7 SWAP1 SUB PUSH2 0x771 JUMPI DUP5 PUSH1 0x40 DUP9 ADD MLOAD PUSH1 0x40 MLOAD PUSH2 0x2EE DUP2 PUSH2 0x1FC PUSH1 0x20 DUP3 ADD SWAP5 CALLER SWAP1 DUP7 PUSH2 0xBFB JUMP JUMPDEST MLOAD SWAP1 KECCAK256 SWAP5 PUSH1 0x20 DUP2 MLOAD SWAP2 ADD KECCAK256 SWAP5 SUB PUSH2 0x72C JUMPI PUSH1 0x40 MLOAD SWAP5 PUSH1 0x20 DUP7 ADD SWAP5 DUP6 MSTORE PUSH1 0x40 DUP7 ADD MSTORE CALLER PUSH1 0x60 SHL PUSH1 0x60 DUP7 ADD MSTORE PUSH1 0x74 DUP6 ADD MSTORE ISZERO PUSH1 0xF8 SHL PUSH1 0x94 DUP5 ADD MSTORE PUSH1 0x75 DUP4 MSTORE PUSH1 0xA0 DUP4 ADD SWAP2 DUP4 DUP4 LT PUSH1 0x1 PUSH1 0x1 PUSH1 0x40 SHL SUB DUP5 GT OR PUSH2 0x5F8 JUMPI PUSH2 0x35D SWAP4 PUSH2 0x354 SWAP4 PUSH1 0x40 MSTORE MLOAD SWAP1 KECCAK256 PUSH2 0xC27 JUMP JUMPDEST SWAP1 SWAP3 SWAP2 SWAP3 PUSH2 0xC61 JUMP JUMPDEST PUSH1 0x1 PUSH1 0x1 PUSH1 0xA0 SHL SUB AND SUB PUSH2 0x6DB JUMPI PUSH1 0x20 ADD MLOAD DUP1 MLOAD DUP2 ADD PUSH1 0x20 DUP3 DUP3 SUB SLT PUSH2 0xFB JUMPI PUSH1 0x20 DUP3 ADD MLOAD SWAP2 PUSH1 0x1 PUSH1 0x1 PUSH1 0x40 SHL SUB DUP4 GT PUSH2 0xFB JUMPI PUSH1 0x20 DUP3 ADD PUSH1 0x3F DUP5 DUP4 ADD ADD SLT ISZERO PUSH2 0xFB JUMPI PUSH1 0x20 DUP4 DUP3 ADD ADD MLOAD SWAP1 PUSH1 0x1 PUSH1 0x1 PUSH1 0x40 SHL SUB DUP3 GT PUSH2 0x5F8 JUMPI PUSH1 0x40 MLOAD SWAP4 PUSH2 0x3CB PUSH1 0x20 DUP5 PUSH1 0x5 SHL ADD DUP7 PUSH2 0xA8F JUMP JUMPDEST DUP3 DUP6 MSTORE PUSH1 0x20 DUP6 ADD SWAP1 PUSH1 0x20 DUP6 ADD PUSH1 0x40 DUP6 PUSH1 0x5 SHL DUP4 DUP7 ADD ADD ADD GT PUSH2 0xFB JUMPI PUSH1 0x40 DUP2 DUP5 ADD ADD SWAP2 JUMPDEST PUSH1 0x40 DUP6 PUSH1 0x5 SHL DUP4 DUP7 ADD ADD ADD DUP4 LT PUSH2 0x60C JUMPI DUP8 DUP8 PUSH0 DUP1 JUMPDEST DUP3 MLOAD DUP2 LT ISZERO PUSH2 0x453 JUMPI PUSH2 0x151 PUSH2 0x41B DUP3 DUP6 PUSH2 0xBA8 JUMP JUMPDEST MLOAD MLOAD EQ PUSH2 0x42B JUMPI JUMPDEST PUSH1 0x1 ADD PUSH2 0x405 JUMP JUMPDEST SWAP1 POP PUSH1 0x20 PUSH2 0x439 DUP3 DUP5 PUSH2 0xBA8 JUMP JUMPDEST MLOAD ADD MLOAD PUSH1 0x20 DUP2 DUP1 MLOAD DUP2 ADD SUB SLT PUSH2 0xFB JUMPI PUSH1 0x20 ADD MLOAD SWAP1 PUSH2 0x423 JUMP JUMPDEST POP DUP3 DUP1 MLOAD SWAP2 PUSH1 0x1 PUSH1 0x1 PUSH1 0x40 SHL SUB DUP4 GT PUSH2 0x5F8 JUMPI PUSH1 0x3 PUSH2 0x472 DUP2 SLOAD PUSH2 0xB1F JUMP JUMPDEST PUSH1 0x1F DUP2 GT PUSH2 0x596 JUMPI JUMPDEST POP PUSH1 0x20 SWAP4 PUSH1 0x1F DUP2 GT PUSH1 0x1 EQ PUSH2 0x4F8 JUMPI DUP1 PUSH32 0xD5609C6AD246EA472BDE0CE5C102AD7B553D441BE78EFCC4A9AC8C5B46CFD9A5 SWAP6 PUSH0 SWAP2 PUSH2 0x4ED JUMPI JUMPDEST POP DUP2 PUSH1 0x1 SHL SWAP2 PUSH0 NOT SWAP1 DUP5 SHL SHR NOT AND OR SWAP1 SSTORE JUMPDEST PUSH2 0x4E8 PUSH1 0x40 MLOAD SWAP3 DUP4 SWAP3 CALLER DUP5 MSTORE PUSH1 0x20 DUP5 ADD MSTORE PUSH1 0x60 PUSH1 0x40 DUP5 ADD MSTORE PUSH1 0x60 DUP4 ADD SWAP1 PUSH2 0xA4F JUMP JUMPDEST SUB SWAP1 LOG1 STOP JUMPDEST SWAP1 POP DUP5 ADD MLOAD DUP7 PUSH2 0x4B4 JUMP JUMPDEST PUSH1 0x1F NOT DUP2 AND SWAP5 DUP3 PUSH0 MSTORE PUSH32 0xC2575A0E9E593C00F959F8C92F12DB2869C3395A3B0502D05E2516446F71F85B SWAP6 PUSH0 JUMPDEST DUP2 DUP2 LT PUSH2 0x57E JUMPI POP SWAP6 DUP3 SWAP2 PUSH1 0x1 SWAP4 PUSH32 0xD5609C6AD246EA472BDE0CE5C102AD7B553D441BE78EFCC4A9AC8C5B46CFD9A5 SWAP9 LT PUSH2 0x567 JUMPI JUMPDEST POP POP DUP2 SHL ADD SWAP1 SSTORE PUSH2 0x4C6 JUMP JUMPDEST DUP7 ADD MLOAD PUSH0 NOT DUP4 DUP7 SHL PUSH1 0xF8 AND SHR NOT AND SWAP1 SSTORE DUP7 DUP1 PUSH2 0x55B JUMP JUMPDEST DUP7 DUP4 ADD MLOAD DUP9 SSTORE PUSH1 0x1 SWAP1 SWAP8 ADD SWAP7 PUSH1 0x20 SWAP3 DUP4 ADD SWAP3 ADD PUSH2 0x525 JUMP JUMPDEST DUP2 PUSH0 MSTORE PUSH32 0xC2575A0E9E593C00F959F8C92F12DB2869C3395A3B0502D05E2516446F71F85B PUSH1 0x1F DUP7 ADD PUSH1 0x5 SHR DUP2 ADD SWAP2 PUSH1 0x20 DUP8 LT PUSH2 0x5EE JUMPI JUMPDEST PUSH1 0x1F ADD PUSH1 0x5 SHR ADD SWAP1 JUMPDEST DUP2 DUP2 LT PUSH2 0x5E3 JUMPI POP PUSH2 0x47B JUMP JUMPDEST PUSH0 DUP2 SSTORE PUSH1 0x1 ADD PUSH2 0x5D6 JUMP JUMPDEST SWAP1 SWAP2 POP DUP2 SWAP1 PUSH2 0x5CD JUMP JUMPDEST PUSH4 0x4E487B71 PUSH1 0xE0 SHL PUSH0 MSTORE PUSH1 0x41 PUSH1 0x4 MSTORE PUSH1 0x24 PUSH0 REVERT JUMPDEST DUP3 MLOAD SWAP1 PUSH1 0x1 PUSH1 0x1 PUSH1 0x40 SHL SUB DUP3 GT PUSH2 0xFB JUMPI PUSH1 0x60 DUP6 DUP5 ADD DUP4 ADD DUP9 SUB PUSH1 0x1F NOT ADD SLT PUSH2 0xFB JUMPI PUSH1 0x40 MLOAD SWAP2 PUSH2 0x63C DUP4 PUSH2 0xA74 JUMP JUMPDEST DUP6 DUP5 ADD DUP2 ADD PUSH1 0x40 DUP2 ADD MLOAD DUP5 MSTORE PUSH1 0x60 ADD MLOAD PUSH1 0x1 PUSH1 0x1 PUSH1 0x40 SHL SUB DUP2 GT PUSH2 0xFB JUMPI PUSH2 0x671 SWAP1 PUSH1 0x40 PUSH1 0x20 DUP12 ADD SWAP2 DUP5 DUP9 DUP12 ADD ADD ADD ADD PUSH2 0xB8E JUMP JUMPDEST PUSH1 0x20 DUP5 ADD MSTORE PUSH1 0x80 DUP2 DUP6 DUP9 ADD ADD ADD MLOAD SWAP2 PUSH1 0x1 PUSH1 0x1 PUSH1 0x40 SHL SUB DUP4 GT PUSH2 0xFB JUMPI PUSH1 0x20 DUP10 ADD PUSH1 0x5F DUP5 DUP5 DUP9 DUP12 ADD ADD ADD ADD SLT ISZERO PUSH2 0xFB JUMPI PUSH1 0x40 SWAP4 PUSH2 0x6CA PUSH1 0x20 SWAP5 SWAP4 DUP10 PUSH1 0x60 DUP8 SWAP7 DUP8 DUP16 ADD SWAP4 DUP12 DUP12 DUP4 DUP4 DUP4 DUP9 ADD ADD ADD ADD MLOAD SWAP5 ADD ADD ADD ADD PUSH2 0xB57 JUMP JUMPDEST DUP6 DUP3 ADD MSTORE DUP2 MSTORE ADD SWAP4 ADD SWAP3 SWAP1 POP PUSH2 0x3EF JUMP JUMPDEST PUSH1 0x40 MLOAD PUSH3 0x461BCD PUSH1 0xE5 SHL DUP2 MSTORE PUSH1 0x20 PUSH1 0x4 DUP3 ADD MSTORE PUSH1 0x23 PUSH1 0x24 DUP3 ADD MSTORE PUSH32 0x496E76616C6964207369676E617475726520666F722066756E6374696F6E2063 PUSH1 0x44 DUP3 ADD MSTORE PUSH3 0x185B1B PUSH1 0xEA SHL PUSH1 0x64 DUP3 ADD MSTORE PUSH1 0x84 SWAP1 REVERT JUMPDEST PUSH1 0x40 MLOAD PUSH3 0x461BCD PUSH1 0xE5 SHL DUP2 MSTORE PUSH1 0x20 PUSH1 0x4 DUP3 ADD MSTORE PUSH1 0x1C PUSH1 0x24 DUP3 ADD MSTORE PUSH32 0x496E76616C6964206B65726E656C20706172616D732064696765737400000000 PUSH1 0x44 DUP3 ADD MSTORE PUSH1 0x64 SWAP1 REVERT JUMPDEST PUSH1 0x40 MLOAD PUSH3 0x461BCD PUSH1 0xE5 SHL DUP2 MSTORE PUSH1 0x20 PUSH1 0x4 DUP3 ADD MSTORE PUSH1 0x26 PUSH1 0x24 DUP3 ADD MSTORE PUSH32 0x496E76616C6964207369676E617475726520666F72206B65726E656C20726573 PUSH1 0x44 DUP3 ADD MSTORE PUSH6 0x706F6E736573 PUSH1 0xD0 SHL PUSH1 0x64 DUP3 ADD MSTORE PUSH1 0x84 SWAP1 REVERT JUMPDEST PUSH1 0x40 MLOAD PUSH3 0x461BCD PUSH1 0xE5 SHL DUP2 MSTORE PUSH1 0x20 PUSH1 0x4 DUP3 ADD MSTORE PUSH1 0x16 PUSH1 0x24 DUP3 ADD MSTORE PUSH22 0x119A5B985B081BDC1A5B9A5BDB881C995D995C9D1959 PUSH1 0x52 SHL PUSH1 0x44 DUP3 ADD MSTORE PUSH1 0x64 SWAP1 REVERT JUMPDEST CALLVALUE PUSH2 0xFB JUMPI PUSH1 0x20 CALLDATASIZE PUSH1 0x3 NOT ADD SLT PUSH2 0xFB JUMPI PUSH1 0x4 CALLDATALOAD PUSH1 0x1 PUSH1 0x1 PUSH1 0xA0 SHL SUB DUP2 AND SWAP1 DUP2 SWAP1 SUB PUSH2 0xFB JUMPI PUSH2 0x831 PUSH2 0xBD0 JUMP JUMPDEST PUSH1 0x1 PUSH1 0x1 PUSH1 0x60 SHL SUB PUSH1 0xA0 SHL PUSH1 0x1 SLOAD AND OR PUSH1 0x1 SSTORE PUSH0 DUP1 RETURN JUMPDEST CALLVALUE PUSH2 0xFB JUMPI PUSH1 0x20 CALLDATASIZE PUSH1 0x3 NOT ADD SLT PUSH2 0xFB JUMPI PUSH1 0x4 CALLDATALOAD PUSH1 0x1 PUSH1 0x1 PUSH1 0x40 SHL SUB DUP2 GT PUSH2 0xFB JUMPI PUSH1 0xFF PUSH2 0x893 PUSH1 0x20 PUSH2 0x880 DUP2 SWAP5 CALLDATASIZE SWAP1 PUSH1 0x4 ADD PUSH2 0xB01 JUMP JUMPDEST DUP2 PUSH1 0x40 MLOAD SWAP4 DUP3 DUP6 DUP1 SWAP5 MLOAD SWAP4 DUP5 SWAP3 ADD PUSH2 0xA2E JUMP JUMPDEST DUP2 ADD PUSH1 0x2 DUP2 MSTORE SUB ADD SWAP1 KECCAK256 SLOAD AND PUSH1 0x40 MLOAD SWAP1 ISZERO ISZERO DUP2 MSTORE RETURN JUMPDEST CALLVALUE PUSH2 0xFB JUMPI PUSH0 CALLDATASIZE PUSH1 0x3 NOT ADD SLT PUSH2 0xFB JUMPI PUSH0 SLOAD PUSH1 0x40 MLOAD PUSH1 0x1 PUSH1 0x1 PUSH1 0xA0 SHL SUB SWAP1 SWAP2 AND DUP2 MSTORE PUSH1 0x20 SWAP1 RETURN JUMPDEST CALLVALUE PUSH2 0xFB JUMPI PUSH0 CALLDATASIZE PUSH1 0x3 NOT ADD SLT PUSH2 0xFB JUMPI PUSH2 0x8E8 PUSH2 0xBD0 JUMP JUMPDEST PUSH0 DUP1 SLOAD PUSH1 0x1 PUSH1 0x1 PUSH1 0xA0 SHL SUB NOT DUP2 AND DUP3 SSTORE PUSH1 0x1 PUSH1 0x1 PUSH1 0xA0 SHL SUB AND PUSH32 0x8BE0079C531659141344CD1FD0A4F28419497F9722A3DAAFE3B4186F6B6457E0 DUP3 DUP1 LOG3 STOP JUMPDEST CALLVALUE PUSH2 0xFB JUMPI PUSH0 CALLDATASIZE PUSH1 0x3 NOT ADD SLT PUSH2 0xFB JUMPI PUSH1 0x1 SLOAD PUSH1 0x40 MLOAD PUSH1 0x1 PUSH1 0x1 PUSH1 0xA0 SHL SUB SWAP1 SWAP2 AND DUP2 MSTORE PUSH1 0x20 SWAP1 RETURN JUMPDEST CALLVALUE PUSH2 0xFB JUMPI PUSH0 CALLDATASIZE PUSH1 0x3 NOT ADD SLT PUSH2 0xFB JUMPI PUSH1 0x3 SLOAD PUSH0 DUP3 PUSH2 0x96D DUP4 PUSH2 0xB1F JUMP JUMPDEST SWAP2 DUP3 DUP3 MSTORE PUSH1 0x20 SWAP4 PUSH1 0x1 SWAP1 DUP6 PUSH1 0x1 DUP3 AND SWAP2 DUP3 PUSH0 EQ PUSH2 0xA0E JUMPI POP POP PUSH1 0x1 EQ PUSH2 0x9B3 JUMPI JUMPDEST POP PUSH2 0x99B SWAP3 POP SUB DUP4 PUSH2 0xA8F JUMP JUMPDEST PUSH2 0x9AF PUSH1 0x40 MLOAD SWAP3 DUP3 DUP5 SWAP4 DUP5 MSTORE DUP4 ADD SWAP1 PUSH2 0xA4F JUMP JUMPDEST SUB SWAP1 RETURN JUMPDEST DUP5 SWAP2 POP PUSH1 0x3 PUSH0 MSTORE PUSH32 0xC2575A0E9E593C00F959F8C92F12DB2869C3395A3B0502D05E2516446F71F85B SWAP1 PUSH0 SWAP2 JUMPDEST DUP6 DUP4 LT PUSH2 0x9F6 JUMPI POP POP PUSH2 0x99B SWAP4 POP DUP3 ADD ADD DUP6 PUSH2 0x98E JUMP JUMPDEST DUP1 SLOAD DUP4 DUP10 ADD DUP6 ADD MSTORE DUP8 SWAP5 POP DUP7 SWAP4 SWAP1 SWAP3 ADD SWAP2 DUP2 ADD PUSH2 0x9DF JUMP JUMPDEST PUSH1 0xFF NOT AND DUP6 DUP3 ADD MSTORE PUSH2 0x99B SWAP6 ISZERO ISZERO PUSH1 0x5 SHL DUP6 ADD ADD SWAP3 POP DUP8 SWAP2 POP PUSH2 0x98E SWAP1 POP JUMP JUMPDEST PUSH0 JUMPDEST DUP4 DUP2 LT PUSH2 0xA3F JUMPI POP POP PUSH0 SWAP2 ADD MSTORE JUMP JUMPDEST DUP2 DUP2 ADD MLOAD DUP4 DUP3 ADD MSTORE PUSH1 0x20 ADD PUSH2 0xA30 JUMP JUMPDEST SWAP1 PUSH1 0x20 SWAP2 PUSH2 0xA68 DUP2 MLOAD DUP1 SWAP3 DUP2 DUP6 MSTORE DUP6 DUP1 DUP7 ADD SWAP2 ADD PUSH2 0xA2E JUMP JUMPDEST PUSH1 0x1F ADD PUSH1 0x1F NOT AND ADD ADD SWAP1 JUMP JUMPDEST PUSH1 0x60 DUP2 ADD SWAP1 DUP2 LT PUSH1 0x1 PUSH1 0x1 PUSH1 0x40 SHL SUB DUP3 GT OR PUSH2 0x5F8 JUMPI PUSH1 0x40 MSTORE JUMP JUMPDEST SWAP1 PUSH1 0x1F DUP1 NOT SWAP2 ADD AND DUP2 ADD SWAP1 DUP2 LT PUSH1 0x1 PUSH1 0x1 PUSH1 0x40 SHL SUB DUP3 GT OR PUSH2 0x5F8 JUMPI PUSH1 0x40 MSTORE JUMP JUMPDEST PUSH1 0x1 PUSH1 0x1 PUSH1 0x40 SHL SUB DUP2 GT PUSH2 0x5F8 JUMPI PUSH1 0x1F ADD PUSH1 0x1F NOT AND PUSH1 0x20 ADD SWAP1 JUMP JUMPDEST SWAP3 SWAP2 SWAP3 PUSH2 0xAD7 DUP3 PUSH2 0xAB0 JUMP JUMPDEST SWAP2 PUSH2 0xAE5 PUSH1 0x40 MLOAD SWAP4 DUP5 PUSH2 0xA8F JUMP JUMPDEST DUP3 SWAP5 DUP2 DUP5 MSTORE DUP2 DUP4 ADD GT PUSH2 0xFB JUMPI DUP3 DUP2 PUSH1 0x20 SWAP4 DUP5 PUSH0 SWAP7 ADD CALLDATACOPY ADD ADD MSTORE JUMP JUMPDEST SWAP1 DUP1 PUSH1 0x1F DUP4 ADD SLT ISZERO PUSH2 0xFB JUMPI DUP2 PUSH1 0x20 PUSH2 0xB1C SWAP4 CALLDATALOAD SWAP2 ADD PUSH2 0xACB JUMP JUMPDEST SWAP1 JUMP JUMPDEST SWAP1 PUSH1 0x1 DUP3 DUP2 SHR SWAP3 AND DUP1 ISZERO PUSH2 0xB4D JUMPI JUMPDEST PUSH1 0x20 DUP4 LT EQ PUSH2 0xB39 JUMPI JUMP JUMPDEST PUSH4 0x4E487B71 PUSH1 0xE0 SHL PUSH0 MSTORE PUSH1 0x22 PUSH1 0x4 MSTORE PUSH1 0x24 PUSH0 REVERT JUMPDEST SWAP2 PUSH1 0x7F AND SWAP2 PUSH2 0xB2E JUMP JUMPDEST SWAP1 SWAP3 SWAP2 SWAP3 PUSH2 0xB64 DUP2 PUSH2 0xAB0 JUMP JUMPDEST SWAP2 PUSH2 0xB72 PUSH1 0x40 MLOAD SWAP4 DUP5 PUSH2 0xA8F JUMP JUMPDEST DUP3 SWAP5 DUP3 DUP5 MSTORE DUP3 DUP3 ADD GT PUSH2 0xFB JUMPI PUSH1 0x20 PUSH2 0xB8C SWAP4 ADD SWAP1 PUSH2 0xA2E JUMP JUMPDEST JUMP JUMPDEST SWAP1 DUP1 PUSH1 0x1F DUP4 ADD SLT ISZERO PUSH2 0xFB JUMPI DUP2 MLOAD PUSH2 0xB1C SWAP3 PUSH1 0x20 ADD PUSH2 0xB57 JUMP JUMPDEST DUP1 MLOAD DUP3 LT ISZERO PUSH2 0xBBC JUMPI PUSH1 0x20 SWAP2 PUSH1 0x5 SHL ADD ADD SWAP1 JUMP JUMPDEST PUSH4 0x4E487B71 PUSH1 0xE0 SHL PUSH0 MSTORE PUSH1 0x32 PUSH1 0x4 MSTORE PUSH1 0x24 PUSH0 REVERT JUMPDEST PUSH0 SLOAD PUSH1 0x1 PUSH1 0x1 PUSH1 0xA0 SHL SUB AND CALLER SUB PUSH2 0xBE3 JUMPI JUMP JUMPDEST PUSH1 0x40 MLOAD PUSH4 0x118CDAA7 PUSH1 0xE0 SHL DUP2 MSTORE CALLER PUSH1 0x4 DUP3 ADD MSTORE PUSH1 0x24 SWAP1 REVERT JUMPDEST PUSH1 0x20 SWAP1 PUSH2 0xC11 PUSH1 0x14 SWAP5 SWAP4 DUP3 DUP2 MLOAD SWAP5 DUP6 SWAP3 ADD PUSH2 0xA2E JUMP JUMPDEST ADD SWAP1 PUSH1 0x1 PUSH1 0x1 PUSH1 0x60 SHL SUB NOT SWAP1 PUSH1 0x60 SHL AND DUP2 MSTORE ADD SWAP1 JUMP JUMPDEST DUP2 MLOAD SWAP2 SWAP1 PUSH1 0x41 DUP4 SUB PUSH2 0xC57 JUMPI PUSH2 0xC50 SWAP3 POP PUSH1 0x20 DUP3 ADD MLOAD SWAP1 PUSH1 0x60 PUSH1 0x40 DUP5 ADD MLOAD SWAP4 ADD MLOAD PUSH0 BYTE SWAP1 PUSH2 0xCE4 JUMP JUMPDEST SWAP2 SWAP3 SWAP1 SWAP2 SWAP1 JUMP JUMPDEST POP POP PUSH0 SWAP2 PUSH1 0x2 SWAP2 SWAP1 JUMP JUMPDEST PUSH1 0x4 DUP2 LT ISZERO PUSH2 0xCD0 JUMPI DUP1 PUSH2 0xC73 JUMPI POP POP JUMP JUMPDEST PUSH1 0x1 DUP2 SUB PUSH2 0xC8D JUMPI PUSH1 0x40 MLOAD PUSH4 0xF645EEDF PUSH1 0xE0 SHL DUP2 MSTORE PUSH1 0x4 SWAP1 REVERT JUMPDEST PUSH1 0x2 DUP2 SUB PUSH2 0xCAE JUMPI PUSH1 0x40 MLOAD PUSH4 0xFCE698F7 PUSH1 0xE0 SHL DUP2 MSTORE PUSH1 0x4 DUP2 ADD DUP4 SWAP1 MSTORE PUSH1 0x24 SWAP1 REVERT JUMPDEST PUSH1 0x3 EQ PUSH2 0xCB8 JUMPI POP JUMP JUMPDEST PUSH1 0x24 SWAP1 PUSH1 0x40 MLOAD SWAP1 PUSH4 0x35E2F383 PUSH1 0xE2 SHL DUP3 MSTORE PUSH1 0x4 DUP3 ADD MSTORE REVERT JUMPDEST PUSH4 0x4E487B71 PUSH1 0xE0 SHL PUSH0 MSTORE PUSH1 0x21 PUSH1 0x4 MSTORE PUSH1 0x24 PUSH0 REVERT JUMPDEST SWAP2 SWAP1 PUSH32 0x7FFFFFFFFFFFFFFFFFFFFFFFFFFFFFFF5D576E7357A4501DDFE92F46681B20A0 DUP5 GT PUSH2 0xD66 JUMPI SWAP2 PUSH1 0x20 SWAP4 PUSH1 0x80 SWAP3 PUSH1 0xFF PUSH0 SWAP6 PUSH1 0x40 MLOAD SWAP5 DUP6 MSTORE AND DUP7 DUP5 ADD MSTORE PUSH1 0x40 DUP4 ADD MSTORE PUSH1 0x60 DUP3 ADD MSTORE DUP3 DUP1 MSTORE PUSH1 0x1 GAS STATICCALL ISZERO PUSH2 0xD5B JUMPI PUSH0 MLOAD PUSH1 0x1 PUSH1 0x1 PUSH1 0xA0 SHL SUB DUP2 AND ISZERO PUSH2 0xD51 JUMPI SWAP1 PUSH0 SWAP1 PUSH0 SWAP1 JUMP JUMPDEST POP PUSH0 SWAP1 PUSH1 0x1 SWAP1 PUSH0 SWAP1 JUMP JUMPDEST PUSH1 0x40 MLOAD RETURNDATASIZE PUSH0 DUP3 RETURNDATACOPY RETURNDATASIZE SWAP1 REVERT JUMPDEST POP POP POP PUSH0 SWAP2 PUSH1 0x3 SWAP2 SWAP1 JUMP INVALID LOG2 PUSH5 0x6970667358 0x22 SLT KECCAK256 0xE0 CALL TIMESTAMP MSIZE 0xD8 0xBE INVALID MSTORE 0xD1 SWAP9 PUSH11 0xF03F3360A6D163A664B92C 0xF9 GASLIMIT 0xCB CALLDATACOPY 0xE PUSH11 0xE0B2E43F64736F6C634300 ADDMOD XOR STOP CALLER "
				},
				"gasEstimates": {
					"creation": {
						"codeDepositCost": "699000",
						"executionCost": "infinite",
						"totalCost": "infinite"
					},
					"external": {
						"executed(bytes)": "infinite",
						"owner()": "2345",
						"protectedFunction((bytes,bytes,bytes),string)": "infinite",
						"readMessage()": "infinite",
						"renounceOwnership()": "28094",
						"setTokenAuthorityPublicKey(address)": "26692",
						"tokenAuthorityPublicKey()": "2302",
						"transferOwnership(address)": "28265"
					}
				},
				"methodIdentifiers": {
					"executed(bytes)": "909dd263",
					"owner()": "8da5cb5b",
					"protectedFunction((bytes,bytes,bytes),string)": "df2fb9b9",
					"readMessage()": "031d5d01",
					"renounceOwnership()": "715018a6",
					"setTokenAuthorityPublicKey(address)": "d213d86b",
					"tokenAuthorityPublicKey()": "4ba1cfe4",
					"transferOwnership(address)": "f2fde38b"
				}
			},
			"storageLayout": {
				"storage": [
					{
						"astId": 8,
						"contract": "smart-contracts/remix-ide/contracts/Sample.sol:Sample",
						"label": "_owner",
						"offset": 0,
						"slot": "0",
						"type": "t_address"
					},
					{
						"astId": 5401,
						"contract": "smart-contracts/remix-ide/contracts/Sample.sol:Sample",
						"label": "tokenAuthorityPublicKey",
						"offset": 0,
						"slot": "1",
						"type": "t_address"
					},
					{
						"astId": 5405,
						"contract": "smart-contracts/remix-ide/contracts/Sample.sol:Sample",
						"label": "executed",
						"offset": 0,
						"slot": "2",
						"type": "t_mapping(t_bytes_memory_ptr,t_bool)"
					},
					{
						"astId": 5608,
						"contract": "smart-contracts/remix-ide/contracts/Sample.sol:Sample",
						"label": "message",
						"offset": 0,
						"slot": "3",
						"type": "t_string_storage"
					}
				],
				"types": {
					"t_address": {
						"encoding": "inplace",
						"label": "address",
						"numberOfBytes": "20"
					},
					"t_bool": {
						"encoding": "inplace",
						"label": "bool",
						"numberOfBytes": "1"
					},
					"t_bytes_memory_ptr": {
						"encoding": "bytes",
						"label": "bytes",
						"numberOfBytes": "32"
					},
					"t_mapping(t_bytes_memory_ptr,t_bool)": {
						"encoding": "mapping",
						"key": "t_bytes_memory_ptr",
						"label": "mapping(bytes => bool)",
						"numberOfBytes": "32",
						"value": "t_bool"
					},
					"t_string_storage": {
						"encoding": "bytes",
						"label": "string",
						"numberOfBytes": "32"
					}
				}
			},
			"userdoc": {
				"kind": "user",
				"methods": {},
				"version": 1
			}
		}
	}
}