{
	"data": {
		"bytecode": {
			"linkReferences": {},
			"object": "6080604081815234620006265781620026b8803803809162000022828562000646565b83396020938491810103126200062657516001600160a01b0380821691829003620006265781156200060f575f548260018060a01b03198216175f55167f8be0079c531659141344cd1fd0a4f28419497f9722a3daafe3b4186f6b6457e05f80a36200008d62000686565b805180516001600160401b0394929185821162000375576001928354928484811c9416801562000604575b868510146200044e578592601f94858111620005ad575b5083908583116001146200054a575f9190836200053e575b50505f19600383901b1c191690851b1784555b01518051908682116200037557600254908482811c9216801562000533575b868310146200044e578184849311620004df575b50859084831160011462000479575f926200046d575b50505f19600383901b1c191690831b176002555b6200016162000686565b94855180519682881162000375576003978854928684811c9416801562000462575b888510146200044e578386899511620003f7575b50839086831160011462000395575f91908362000389575b50505f19828b1b1c191690861b1788555b0151958651918211620003755760049283548581811c911680156200036a575b8782101462000357578181116200030f575b5085908311600114620002a7578293949596975f936200029b575b505082851b925f19911b1c19161790555b6101515f52600882526007835f209260ff1993838582541617905573c770eac29244c1f88e14a61a6b99d184bfae93f55f5260068152845f2083858254161790557f876924e18dd46dd3cbcad570a87137bbd828a7d0f3cad309f78ad2c9402eeeb75f5252825f209182541617905551611d849081620009348239f35b015191505f806200020d565b90601f19831691845f52865f20925f5b818110620002f9575098848798999a97969710620002df575b50505050811b0190556200021e565b01519060f8845f19921b161c191690555f808080620002d0565b8a830151855593870193918801918801620002b7565b845f52865f208280860160051c8201928987106200034d575b0160051c019086905b82811062000341575050620001f2565b5f815501869062000331565b9250819262000328565b602285634e487b7160e01b5f525260245ffd5b90607f1690620001e0565b634e487b7160e01b5f52604160045260245ffd5b015190505f80620001af565b879291601f198316918c5f52865f20925f5b818110620003de57508411620003c6575b505050811b018855620001c0565b01515f19838d1b60f8161c191690555f8080620003b8565b8383015185558c988c97909501949384019301620003a7565b9091929350895f52875f208680850160051c8201928a861062000444575b9189918b97969594930160051c01915b8281106200043557505062000197565b5f81558a965089910162000425565b9250819262000415565b634e487b7160e01b5f52602260045260245ffd5b93607f169362000183565b015190505f8062000143565b90859350601f1983169160025f52875f20925f5b89828210620004c85750508411620004af575b505050811b0160025562000157565b01515f1960f88460031b161c191690555f8080620004a0565b83850151865589979095019493840193016200048d565b90915060025f52855f208480850160051c82019288861062000529575b918791869594930160051c01915b8281106200051a5750506200012d565b5f81558594508791016200050a565b92508192620004fc565b91607f169162000119565b015190505f80620000e7565b869291601f19831691845f52865f20925f5b81811062000594575084116200057b575b505050811b018455620000fa565b01515f1960f88460031b161c191690555f80806200056d565b8383015185558b988b979095019493840193016200055c565b9091929350855f52865f208580850160051c820192898610620005fa575b9188918a97969594930160051c01915b828110620005eb575050620000cf565b5f8155899650889101620005db565b92508192620005cb565b93607f1693620000b8565b8251631e4fbdf760e01b81525f6004820152602490fd5b5f80fd5b604081019081106001600160401b038211176200037557604052565b601f909101601f19168101906001600160401b038211908210176200037557604052565b6001600160401b0381116200037557601f01601f191660200190565b604080519062000696826200062a565b606080835260209283015280516001600160401b03929080820184811182821017620003755783525f81525f8084519283620006e286820192878452888084015260608301906200088b565b0393620006f8601f199586810183528262000646565b51907301000000000000000000000000000000000000015afa906200071c620008b2565b911562000824575f91829162000758865191826200074b88820195600487528a8084015260608301906200088b565b0390810183528262000646565b51907301000000000000000000000000000000000000055afa926200077c620008b2565b9315620007e15783518401838584830192031262000626578285015182811162000626578184620007b092880101620008e6565b94848101519283116200062657620007cb92018301620008e6565b915192620007d9846200062a565b835282015290565b50606491519062461bcd60e51b82526004820152601b60248201527f67656e207369676e696e67206b6579706169723a206661696c656400000000006044820152fd5b835162461bcd60e51b815260048101849052601360248201527f72616e646f6d42797465733a206661696c6564000000000000000000000000006044820152606490fd5b5f5b8381106200087a5750505f910152565b81810151838201526020016200086a565b90602091620008a68151809281855285808601910162000868565b601f01601f1916010190565b3d15620008e1573d90620008c6826200066a565b91620008d6604051938462000646565b82523d5f602084013e565b606090565b81601f8201121562000626578051620008ff816200066a565b926200090f604051948562000646565b81845260208284010111620006265762000930916020808501910162000868565b9056fe60806040526004361015610011575f80fd5b5f3560e01c8063097b8b3b14610104578063270e7c2f146100ff5780634c22e6a1146100fa5780634cf0d40a146100f557806353d6fd59146100f057806364d6c07d146100eb578063688b87e8146100e6578063715018a6146100e15780637355f88b146100dc5780637998efb8146100d75780638da5cb5b146100d2578063aa775b4a146100cd578063c7878ba1146100c8578063e498de5f146100c35763f2fde38b146100be575f80fd5b610971565b61091d565b6108bc565b61086b565b610844565b610803565b6106c2565b61066b565b610562565b610510565b610475565b61042e565b610345565b6102ba565b6101e4565b9181601f84011215610136578235916001600160401b038311610136576020838186019501011161013657565b5f80fd5b602435906001600160a01b038216820361013657565b600435906001600160a01b038216820361013657565b5f5b8381106101775750505f910152565b8181015183820152602001610168565b906020916101a081518092818552858086019101610166565b601f01601f1916010190565b92916060926101c96101dc93979697608087526080870190610187565b9160208601528482036040860152610187565b931515910152565b346101365760c0366003190112610136576001600160401b0360048035828111610136576102159036908301610109565b9061021e61013a565b604435858111610136576102359036908601610109565b6064929192358781116101365761024f9036908801610109565b91608435898111610136576102679036908a01610109565b95909460a4359a8b116101365761028761028f9a61029f9c369101610109565b999098610dd1565b90604094929451948594856101ac565b0390f35b8015150361013657565b35906102b8826102a3565b565b34610136576040366003190112610136576103016024356102da816102a3565b6102e26119c2565b6004355f52600860205260405f209060ff801983541691151516179055565b005b602060031982011261013657600435906001600160401b0382116101365761032d91600401610109565b9091565b906020610342928181520190610187565b90565b346101365761035e61035636610303565b810190611012565b5f5b81518110156103fc578061015161037960019385611170565b515114610387575b01610360565b6103a76020806103978487611170565b5101518051810182019101611189565b156103d7576103c360606103bb8386611170565b510160019052565b6103d260806103bb8386611170565b610381565b5f60606103e48386611170565b5101525f60806103f48386611170565b510152610381565b60405161029f90610422816104148660208301611198565b03601f198101835282610a60565b60405191829182610331565b346101365760403660031901126101365761030160243561044e816102a3565b6104566119c2565b6004355f52600760205260405f209060ff801983541691151516179055565b3461013657604036600319011261013657610301610491610150565b6024359061049e826102a3565b6104a66119c2565b60018060a01b03165f52600660205260405f209060ff801983541691151516179055565b6040600319820112610136576001600160401b039160043583811161013657826104f691600401610109565b939093926024359182116101365761032d91600401610109565b346101365761053c610531610524366104ca565b9492909391810190610afa565b505050505090611550565b156101365761029f9161054e916112d1565b604051918291602083526020830190610187565b34610136576020806003193601126101365760405181810190600435825282815261058c81610a0f565b51902060405190828201528181526105a381610a0f565b604051915f906004546105b581610b8e565b8086529060019081811690811561064d57506001146105f8575b61029f61042287876105e382890383610a60565b604051916105f083610a2a565b5f83526116a0565b60045f9081529293507f8a35acfbc15ff81a39ae7d344fd709f28e8600b4aa8c65c6b64bfe7fe36bd19b5b82841061063a57505050830101816105e3846105cf565b8054878501860152928401928101610623565b60ff1916848801525050151560051b8401019050816105e3846105cf565b34610136575f366003190112610136576106836119c2565b5f80546001600160a01b0319811682556001600160a01b03167f8be0079c531659141344cd1fd0a4f28419497f9722a3daafe3b4186f6b6457e08280a3005b34610136576106f66106ff6106d6366104ca565b919490926106e26119c2565b604051956106ef87610a0f565b3691610aa9565b84523691610aa9565b60209160208101918252518051926001600160401b0384116107fe576001916107318561072c8554610b8e565b611353565b602091601f86116001146107795750938061076592610301965f9261076e575b50508160011b915f199060031b1c19161790565b90555b51611431565b015190505f80610751565b60015f529190601f1986167fb10e2d527612073b26eecdfd717e6a320cf44b4afac2b0732d9fcbe2b7fa0cf6935f905b8282106107e757505091849391876103019894106107cf575b505050811b019055610768565b01515f1960f88460031b161c191690555f80806107c2565b8087869782949787015181550196019401906107a9565b6109fb565b346101365761081136610303565b6108196119c2565b61083c602060405183819483830196873781015f83820152038084520182610a60565b519020600555005b34610136575f366003190112610136575f546040516001600160a01b039091168152602090f35b346101365761087936610303565b906108826119c2565b600554916108a9602060405183819483830196873781015f83820152038084520182610a60565b519020036101365761029f61054e610bc6565b34610136576040366003190112610136576004356001600160401b038111610136576105316108f26108fa923690600401610109565b810190610afa565b15610136576024355f526008602052602060ff60405f2054166040519015158152f35b34610136575f3660031901126101365761095d61094061093b610c87565b6119ed565b610948610c87565b90604051928392604084526040840190610187565b6001600160a01b0390911660208301520390f35b346101365760203660031901126101365761098a610150565b6109926119c2565b6001600160a01b039081169081156109e3575f54826bffffffffffffffffffffffff60a01b8216175f55167f8be0079c531659141344cd1fd0a4f28419497f9722a3daafe3b4186f6b6457e05f80a3005b604051631e4fbdf760e01b81525f6004820152602490fd5b634e487b7160e01b5f52604160045260245ffd5b604081019081106001600160401b038211176107fe57604052565b602081019081106001600160401b038211176107fe57604052565b60e081019081106001600160401b038211176107fe57604052565b90601f801991011681019081106001600160401b038211176107fe57604052565b604051906102b882610a45565b6001600160401b0381116107fe57601f01601f191660200190565b929192610ab582610a8e565b91610ac36040519384610a60565b829481845281830111610136578281602093845f960137010152565b9080601f830112156101365781602061034293359101610aa9565b9160e083830312610136578235926001600160401b039260208201358481116101365781610b29918401610adf565b9360408301359360608401358281116101365783610b48918601610adf565b9360808101359360a08201359360c0830135908111610136576103429201610adf565b826014949392823701906bffffffffffffffffffffffff199060601b1681520190565b90600182811c92168015610bbc575b6020831014610ba857565b634e487b7160e01b5f52602260045260245ffd5b91607f1691610b9d565b604051905f8260025491610bd983610b8e565b80835292602090600190818116908115610c635750600114610c04575b50506102b892500383610a60565b91509260025f527f405787fa12a823e0f2b7631cc41b3ba8828b3321ca811111fa75cd3aa3bb5ace935f925b828410610c4b57506102b89450505081016020015f80610bf6565b85548885018301529485019487945092810192610c30565b915050602092506102b894915060ff191682840152151560051b8201015f80610bf6565b604051905f82600191600154610c9c81610b8e565b8084529360209160018116908115610c635750600114610cc45750506102b892500383610a60565b91509260015f527fb10e2d527612073b26eecdfd717e6a320cf44b4afac2b0732d9fcbe2b7fa0cf6935f925b828410610d0b57506102b89450505081016020015f80610bf6565b85548885018301529485019487945092810192610cf0565b604051905f8260035491610d3683610b8e565b80835292602090600190818116908115610c635750600114610d605750506102b892500383610a60565b91509260035f527fc2575a0e9e593c00f959f8c92f12db2869c3395a3b0502d05e2516446f71f85b935f925b828410610da757506102b89450505081016020015f80610bf6565b85548885018301529485019487945092810192610d8c565b60405190610dcc82610a2a565b5f8252565b909a97929a999596989499610de6858d611510565b15610136578101610dfa6105318284610afa565b1561013657610e0891610afa565b50509593505050506040998a5196876020978589830193610e299285610b6b565b0397601f19988981018252610e3e9082610a60565b5190208b518781018281528190602001038981018252610e5e9082610a60565b610e66610bc6565b90610e6f610dbf565b90610e79926116a0565b610e81610c87565b91610e8b92611779565b805188820151918e0151909a925060ff168d518981019b8c5260208c019290925260f81b6001600160f81b03191660408b0152988990604101038881018a52610ed4908a610a60565b3690610edf92610aa9565b858151910120988a5180918488830194610ef99286610b6b565b038781018252610f099082610a60565b519020998a93610f189161198f565b8951858101998a5260208a019490945260609190911b6bffffffffffffffffffffffff19166040890152605488019190915280151560f81b607488015295908060758301038481018252610f6c9082610a60565b51902086518281018281528190602001038481018252610f8c9082610a60565b610f94610bc6565b90610f9d610dbf565b90610fa7926116a0565b610faf610c87565b91610fb992611779565b8097915051908083890151980151610fd19060ff1690565b9051928301918252602082019790975260f89690961b6001600160f81b031916604087015294859060410103908101855261100c9085610a60565b93929190565b60209081818403126101365780356001600160401b039182821161013657019083601f83011215610136578135938185116107fe578460051b90604080519661105d87850189610a60565b875285808801938601019482861161013657868101935b86851061108657505050505050505090565b84358681116101365782019060e09081601f198488030112610136576110aa610a81565b8a84013581528584013589811161013657878c6110c992870101610adf565b8b820152606092838501358a811161013657888d6110e992880101610adf565b878301526080936110fb8587016102ad565b9083015260a09361110d8587016102ad565b9083015260c093848601358b811161013657898e61112d92890101610adf565b90830152840135928984116101365761114d888d80979681970101610adf565b90820152815201940193611074565b634e487b7160e01b5f52603260045260245ffd5b80518210156111845760209160051b010190565b61115c565b90816020910312610136575190565b6020808201908083528351809252604092604081018260408560051b8401019601945f925b8584106111ce575050505050505090565b909192939495968580611257600193603f198682030188528b5161124461121961120960e08451865287850151908089880152860190610187565b8a8401518582038c870152610187565b60608381015115159085015260808084015115159085015260a0808401519085830390860152610187565b9160c08092015191818403910152610187565b9901940194019295949391906111bd565b602081830312610136578051906001600160401b038211610136570181601f8201121561013657805161129a81610a8e565b926112a86040519485610a60565b81845260208284010111610136576103429160208085019101610166565b6040513d5f823e3d90fd5b604051634c22e6a160e01b8152602060048201526024810183905291808260448501375f604482850101525f83604481601f19601f8601168101030181305afa5f938161132f575b5061132a5761034292503691610aa9565b505090565b61134c9194503d805f833e6113448183610a60565b810190611268565b925f611319565b90601f8211611360575050565b60019160015f527fb10e2d527612073b26eecdfd717e6a320cf44b4afac2b0732d9fcbe2b7fa0cf6906020601f840160051c830193106113ba575b601f0160051c01905b8181106113b057505050565b5f815582016113a4565b909150819061139b565b601f81116113d0575050565b60025f527f405787fa12a823e0f2b7631cc41b3ba8828b3321ca811111fa75cd3aa3bb5ace906020601f840160051c83019310611427575b601f0160051c01905b81811061141c575050565b5f8155600101611411565b9091508190611408565b9081516001600160401b0381116107fe5761145681611451600254610b8e565b6113c4565b602080601f831160011461148b5750819061148693945f9261076e5750508160011b915f199060031b1c19161790565b600255565b90601f198316946114bd60025f527f405787fa12a823e0f2b7631cc41b3ba8828b3321ca811111fa75cd3aa3bb5ace90565b925f905b8782106114f85750508360019596106114e0575b505050811b01600255565b01515f1960f88460031b161c191690555f80806114d5565b806001859682949686015181550195019301906114c1565b61151c91810190611012565b5f5b81518110156115495760606115338284611170565b510151156115435760010161151e565b50505f90565b5050600190565b5f806115c361160f959460409687918251611603602098828a80940191825283815261157b81610a0f565b519020928551938385015282845261159284610a0f565b6115f361159d610d23565b6115e36115d08951926115af84610a2a565b8c845260a08b519b8c998a019d8e60049052565b89015260c0880190610187565b601f199788888303016060890152610187565b9086868303016080870152610187565b90848483030160a0850152610187565b03908101835282610a60565b51906007600160981b015afa90611624611671565b911561163d576103429293508082518301019101611afa565b60649084519062461bcd60e51b82526004820152600e60248201526d1d995c9a599e4e8819985a5b195960921b6044820152fd5b3d1561169b573d9061168282610a8e565b916116906040519384610a60565b82523d5f602084013e565b606090565b6116036116fa5f949385946040519384916116ea6116d760208501986116c68a60049052565b6080604087015260a0860190610187565b601f199586868303016060870152610187565b9084848303016080850152610187565b51906006600160981b015afa61170e611671565b90156117175790565b60405162461bcd60e51b815260206004820152600c60248201526b1cda59db8e8819985a5b195960a21b6044820152606490fd5b60405190606082018281106001600160401b038211176107fe576040525f6040838281528260208201520152565b61178f909391929361178961174b565b506119ed565b9261179861174b565b6008825110611957576001600160f81b031991600360fc1b836117cb6117bd84611b0f565b516001600160f81b03191690565b160361195757600160f91b80846117e46117bd85611b1c565b1603611957576118086118026117fc6117bd85611b2c565b60f81c90565b60ff1690565b9061181b6118026117fc6117bd86611b3c565b91602183116119575761182d83611b81565b906118496118026117fc6117bd61184386611b94565b89611b5c565b92602184116119575761186f6118626117bd8589611b5c565b6001600160f81b03191690565b0361195757806118876118828587611bbe565b611ba2565b0361195757611897855191611bb0565b03611957576118a590611bb0565b60049560218414611969575b6021831461191f575b50602090816102b89786010151940101519160208110611908575b50602081106118f0575b509082526020820152809385611c13565b6118fc61190191611bd9565b611bfb565b1c5f6118df565b6118fc61191791949294611bd9565b1c915f6118d5565b61192f6117bd8387999599611b5c565b16611957576102b895602061194d6119478294611b94565b92611bcb565b93975050906118ba565b6040516386cd05c560e01b8152600490fd5b809396506119796117bd86611b4c565b1661195757611989600596611bcb565b926118b1565b61199b91810190611012565b5f5b81518110156115495760806119b28284611170565b510151156115435760010161199d565b5f546001600160a01b031633036119d557565b60405163118cdaa760e01b8152336004820152602490fd5b6021815103611ae857602181015190805115611184576020015160f81c600281141580611add575b611acb575f806401000003d019604051602081019160208352602060408301526020606083015280600781808a80098a0908608083015263400000f4600160fe1b0360a083015260c0808301919091528152611a7081610a45565b519060055afa91611a7f611671565b9215611ab957611aa4611a9e611a9761034295611d2c565b9384611bbe565b60011690565b15611cef5790611ab390611be7565b90611cef565b60405163102875ed60e01b8152600490fd5b60405163ab4be04160e01b8152600490fd5b506003811415611a15565b604051636446a2c560e11b8152600490fd5b908160209103126101365751610342816102a3565b8051156111845760200190565b8051600210156111845760220190565b8051600110156111845760210190565b8051600310156111845760230190565b8051600410156111845760240190565b908151811015611184570160200190565b634e487b7160e01b5f52601160045260245ffd5b6004019081600411611b8f57565b611b6d565b9060018201809211611b8f57565b9060048201809211611b8f57565b9060028201809211611b8f57565b91908201809211611b8f57565b5f19810191908211611b8f57565b6020039060208211611b8f57565b6401000003d01990810391908211611b8f57565b600381901b91906001600160fd1b03811603611b8f57565b916040810191601b835281519060205f81850193845190611c52604051928392878460609194939260808201958252601b602083015260408201520152565b838052039060015afa15611cea575f516001600160a01b039586169516859003611c7e575b5050505050565b611cb05f93601c602096525192516040519384938460609194939260808201958252601c602083015260408201520152565b838052039060015afa15611cea575f516001600160a01b031603611cd8575f80808080611c77565b604051634532600d60e01b8152600490fd5b6112c6565b6040519160208301918252604083015260408252606082018281106001600160401b038211176107fe57604052905190206001600160a01b031690565b602081519101519060208110611d40575090565b5f199060200360031b1b169056fea2646970667358221220b11d5e70cae314f5696c6302fc4d518043b09a38d71f5feb88e6fb225631b26d64736f6c63430008180033",
			"opcodes": "PUSH1 0x80 PUSH1 0x40 DUP2 DUP2 MSTORE CALLVALUE PUSH3 0x626 JUMPI DUP2 PUSH3 0x26B8 DUP1 CODESIZE SUB DUP1 SWAP2 PUSH3 0x22 DUP3 DUP6 PUSH3 0x646 JUMP JUMPDEST DUP4 CODECOPY PUSH1 0x20 SWAP4 DUP5 SWAP2 DUP2 ADD SUB SLT PUSH3 0x626 JUMPI MLOAD PUSH1 0x1 PUSH1 0x1 PUSH1 0xA0 SHL SUB DUP1 DUP3 AND SWAP2 DUP3 SWAP1 SUB PUSH3 0x626 JUMPI DUP2 ISZERO PUSH3 0x60F JUMPI PUSH0 SLOAD DUP3 PUSH1 0x1 DUP1 PUSH1 0xA0 SHL SUB NOT DUP3 AND OR PUSH0 SSTORE AND PUSH32 0x8BE0079C531659141344CD1FD0A4F28419497F9722A3DAAFE3B4186F6B6457E0 PUSH0 DUP1 LOG3 PUSH3 0x8D PUSH3 0x686 JUMP JUMPDEST DUP1 MLOAD DUP1 MLOAD PUSH1 0x1 PUSH1 0x1 PUSH1 0x40 SHL SUB SWAP5 SWAP3 SWAP2 DUP6 DUP3 GT PUSH3 0x375 JUMPI PUSH1 0x1 SWAP3 DUP4 SLOAD SWAP3 DUP5 DUP5 DUP2 SHR SWAP5 AND DUP1 ISZERO PUSH3 0x604 JUMPI JUMPDEST DUP7 DUP6 LT EQ PUSH3 0x44E JUMPI DUP6 SWAP3 PUSH1 0x1F SWAP5 DUP6 DUP2 GT PUSH3 0x5AD JUMPI JUMPDEST POP DUP4 SWAP1 DUP6 DUP4 GT PUSH1 0x1 EQ PUSH3 0x54A JUMPI PUSH0 SWAP2 SWAP1 DUP4 PUSH3 0x53E JUMPI JUMPDEST POP POP PUSH0 NOT PUSH1 0x3 DUP4 SWAP1 SHL SHR NOT AND SWAP1 DUP6 SHL OR DUP5 SSTORE JUMPDEST ADD MLOAD DUP1 MLOAD SWAP1 DUP7 DUP3 GT PUSH3 0x375 JUMPI PUSH1 0x2 SLOAD SWAP1 DUP5 DUP3 DUP2 SHR SWAP3 AND DUP1 ISZERO PUSH3 0x533 JUMPI JUMPDEST DUP7 DUP4 LT EQ PUSH3 0x44E JUMPI DUP2 DUP5 DUP5 SWAP4 GT PUSH3 0x4DF JUMPI JUMPDEST POP DUP6 SWAP1 DUP5 DUP4 GT PUSH1 0x1 EQ PUSH3 0x479 JUMPI PUSH0 SWAP3 PUSH3 0x46D JUMPI JUMPDEST POP POP PUSH0 NOT PUSH1 0x3 DUP4 SWAP1 SHL SHR NOT AND SWAP1 DUP4 SHL OR PUSH1 0x2 SSTORE JUMPDEST PUSH3 0x161 PUSH3 0x686 JUMP JUMPDEST SWAP5 DUP6 MLOAD DUP1 MLOAD SWAP7 DUP3 DUP9 GT PUSH3 0x375 JUMPI PUSH1 0x3 SWAP8 DUP9 SLOAD SWAP3 DUP7 DUP5 DUP2 SHR SWAP5 AND DUP1 ISZERO PUSH3 0x462 JUMPI JUMPDEST DUP9 DUP6 LT EQ PUSH3 0x44E JUMPI DUP4 DUP7 DUP10 SWAP6 GT PUSH3 0x3F7 JUMPI JUMPDEST POP DUP4 SWAP1 DUP7 DUP4 GT PUSH1 0x1 EQ PUSH3 0x395 JUMPI PUSH0 SWAP2 SWAP1 DUP4 PUSH3 0x389 JUMPI JUMPDEST POP POP PUSH0 NOT DUP3 DUP12 SHL SHR NOT AND SWAP1 DUP7 SHL OR DUP9 SSTORE JUMPDEST ADD MLOAD SWAP6 DUP7 MLOAD SWAP2 DUP3 GT PUSH3 0x375 JUMPI PUSH1 0x4 SWAP3 DUP4 SLOAD DUP6 DUP2 DUP2 SHR SWAP2 AND DUP1 ISZERO PUSH3 0x36A JUMPI JUMPDEST DUP8 DUP3 LT EQ PUSH3 0x357 JUMPI DUP2 DUP2 GT PUSH3 0x30F JUMPI JUMPDEST POP DUP6 SWAP1 DUP4 GT PUSH1 0x1 EQ PUSH3 0x2A7 JUMPI DUP3 SWAP4 SWAP5 SWAP6 SWAP7 SWAP8 PUSH0 SWAP4 PUSH3 0x29B JUMPI JUMPDEST POP POP DUP3 DUP6 SHL SWAP3 PUSH0 NOT SWAP2 SHL SHR NOT AND OR SWAP1 SSTORE JUMPDEST PUSH2 0x151 PUSH0 MSTORE PUSH1 0x8 DUP3 MSTORE PUSH1 0x7 DUP4 PUSH0 KECCAK256 SWAP3 PUSH1 0xFF NOT SWAP4 DUP4 DUP6 DUP3 SLOAD AND OR SWAP1 SSTORE PUSH20 0xC770EAC29244C1F88E14A61A6B99D184BFAE93F5 PUSH0 MSTORE PUSH1 0x6 DUP2 MSTORE DUP5 PUSH0 KECCAK256 DUP4 DUP6 DUP3 SLOAD AND OR SWAP1 SSTORE PUSH32 0x876924E18DD46DD3CBCAD570A87137BBD828A7D0F3CAD309F78AD2C9402EEEB7 PUSH0 MSTORE MSTORE DUP3 PUSH0 KECCAK256 SWAP2 DUP3 SLOAD AND OR SWAP1 SSTORE MLOAD PUSH2 0x1D84 SWAP1 DUP2 PUSH3 0x934 DUP3 CODECOPY RETURN JUMPDEST ADD MLOAD SWAP2 POP PUSH0 DUP1 PUSH3 0x20D JUMP JUMPDEST SWAP1 PUSH1 0x1F NOT DUP4 AND SWAP2 DUP5 PUSH0 MSTORE DUP7 PUSH0 KECCAK256 SWAP3 PUSH0 JUMPDEST DUP2 DUP2 LT PUSH3 0x2F9 JUMPI POP SWAP9 DUP5 DUP8 SWAP9 SWAP10 SWAP11 SWAP8 SWAP7 SWAP8 LT PUSH3 0x2DF JUMPI JUMPDEST POP POP POP POP DUP2 SHL ADD SWAP1 SSTORE PUSH3 0x21E JUMP JUMPDEST ADD MLOAD SWAP1 PUSH1 0xF8 DUP5 PUSH0 NOT SWAP3 SHL AND SHR NOT AND SWAP1 SSTORE PUSH0 DUP1 DUP1 DUP1 PUSH3 0x2D0 JUMP JUMPDEST DUP11 DUP4 ADD MLOAD DUP6 SSTORE SWAP4 DUP8 ADD SWAP4 SWAP2 DUP9 ADD SWAP2 DUP9 ADD PUSH3 0x2B7 JUMP JUMPDEST DUP5 PUSH0 MSTORE DUP7 PUSH0 KECCAK256 DUP3 DUP1 DUP7 ADD PUSH1 0x5 SHR DUP3 ADD SWAP3 DUP10 DUP8 LT PUSH3 0x34D JUMPI JUMPDEST ADD PUSH1 0x5 SHR ADD SWAP1 DUP7 SWAP1 JUMPDEST DUP3 DUP2 LT PUSH3 0x341 JUMPI POP POP PUSH3 0x1F2 JUMP JUMPDEST PUSH0 DUP2 SSTORE ADD DUP7 SWAP1 PUSH3 0x331 JUMP JUMPDEST SWAP3 POP DUP2 SWAP3 PUSH3 0x328 JUMP JUMPDEST PUSH1 0x22 DUP6 PUSH4 0x4E487B71 PUSH1 0xE0 SHL PUSH0 MSTORE MSTORE PUSH1 0x24 PUSH0 REVERT JUMPDEST SWAP1 PUSH1 0x7F AND SWAP1 PUSH3 0x1E0 JUMP JUMPDEST PUSH4 0x4E487B71 PUSH1 0xE0 SHL PUSH0 MSTORE PUSH1 0x41 PUSH1 0x4 MSTORE PUSH1 0x24 PUSH0 REVERT JUMPDEST ADD MLOAD SWAP1 POP PUSH0 DUP1 PUSH3 0x1AF JUMP JUMPDEST DUP8 SWAP3 SWAP2 PUSH1 0x1F NOT DUP4 AND SWAP2 DUP13 PUSH0 MSTORE DUP7 PUSH0 KECCAK256 SWAP3 PUSH0 JUMPDEST DUP2 DUP2 LT PUSH3 0x3DE JUMPI POP DUP5 GT PUSH3 0x3C6 JUMPI JUMPDEST POP POP POP DUP2 SHL ADD DUP9 SSTORE PUSH3 0x1C0 JUMP JUMPDEST ADD MLOAD PUSH0 NOT DUP4 DUP14 SHL PUSH1 0xF8 AND SHR NOT AND SWAP1 SSTORE PUSH0 DUP1 DUP1 PUSH3 0x3B8 JUMP JUMPDEST DUP4 DUP4 ADD MLOAD DUP6 SSTORE DUP13 SWAP9 DUP13 SWAP8 SWAP1 SWAP6 ADD SWAP5 SWAP4 DUP5 ADD SWAP4 ADD PUSH3 0x3A7 JUMP JUMPDEST SWAP1 SWAP2 SWAP3 SWAP4 POP DUP10 PUSH0 MSTORE DUP8 PUSH0 KECCAK256 DUP7 DUP1 DUP6 ADD PUSH1 0x5 SHR DUP3 ADD SWAP3 DUP11 DUP7 LT PUSH3 0x444 JUMPI JUMPDEST SWAP2 DUP10 SWAP2 DUP12 SWAP8 SWAP7 SWAP6 SWAP5 SWAP4 ADD PUSH1 0x5 SHR ADD SWAP2 JUMPDEST DUP3 DUP2 LT PUSH3 0x435 JUMPI POP POP PUSH3 0x197 JUMP JUMPDEST PUSH0 DUP2 SSTORE DUP11 SWAP7 POP DUP10 SWAP2 ADD PUSH3 0x425 JUMP JUMPDEST SWAP3 POP DUP2 SWAP3 PUSH3 0x415 JUMP JUMPDEST PUSH4 0x4E487B71 PUSH1 0xE0 SHL PUSH0 MSTORE PUSH1 0x22 PUSH1 0x4 MSTORE PUSH1 0x24 PUSH0 REVERT JUMPDEST SWAP4 PUSH1 0x7F AND SWAP4 PUSH3 0x183 JUMP JUMPDEST ADD MLOAD SWAP1 POP PUSH0 DUP1 PUSH3 0x143 JUMP JUMPDEST SWAP1 DUP6 SWAP4 POP PUSH1 0x1F NOT DUP4 AND SWAP2 PUSH1 0x2 PUSH0 MSTORE DUP8 PUSH0 KECCAK256 SWAP3 PUSH0 JUMPDEST DUP10 DUP3 DUP3 LT PUSH3 0x4C8 JUMPI POP POP DUP5 GT PUSH3 0x4AF JUMPI JUMPDEST POP POP POP DUP2 SHL ADD PUSH1 0x2 SSTORE PUSH3 0x157 JUMP JUMPDEST ADD MLOAD PUSH0 NOT PUSH1 0xF8 DUP5 PUSH1 0x3 SHL AND SHR NOT AND SWAP1 SSTORE PUSH0 DUP1 DUP1 PUSH3 0x4A0 JUMP JUMPDEST DUP4 DUP6 ADD MLOAD DUP7 SSTORE DUP10 SWAP8 SWAP1 SWAP6 ADD SWAP5 SWAP4 DUP5 ADD SWAP4 ADD PUSH3 0x48D JUMP JUMPDEST SWAP1 SWAP2 POP PUSH1 0x2 PUSH0 MSTORE DUP6 PUSH0 KECCAK256 DUP5 DUP1 DUP6 ADD PUSH1 0x5 SHR DUP3 ADD SWAP3 DUP9 DUP7 LT PUSH3 0x529 JUMPI JUMPDEST SWAP2 DUP8 SWAP2 DUP7 SWAP6 SWAP5 SWAP4 ADD PUSH1 0x5 SHR ADD SWAP2 JUMPDEST DUP3 DUP2 LT PUSH3 0x51A JUMPI POP POP PUSH3 0x12D JUMP JUMPDEST PUSH0 DUP2 SSTORE DUP6 SWAP5 POP DUP8 SWAP2 ADD PUSH3 0x50A JUMP JUMPDEST SWAP3 POP DUP2 SWAP3 PUSH3 0x4FC JUMP JUMPDEST SWAP2 PUSH1 0x7F AND SWAP2 PUSH3 0x119 JUMP JUMPDEST ADD MLOAD SWAP1 POP PUSH0 DUP1 PUSH3 0xE7 JUMP JUMPDEST DUP7 SWAP3 SWAP2 PUSH1 0x1F NOT DUP4 AND SWAP2 DUP5 PUSH0 MSTORE DUP7 PUSH0 KECCAK256 SWAP3 PUSH0 JUMPDEST DUP2 DUP2 LT PUSH3 0x594 JUMPI POP DUP5 GT PUSH3 0x57B JUMPI JUMPDEST POP POP POP DUP2 SHL ADD DUP5 SSTORE PUSH3 0xFA JUMP JUMPDEST ADD MLOAD PUSH0 NOT PUSH1 0xF8 DUP5 PUSH1 0x3 SHL AND SHR NOT AND SWAP1 SSTORE PUSH0 DUP1 DUP1 PUSH3 0x56D JUMP JUMPDEST DUP4 DUP4 ADD MLOAD DUP6 SSTORE DUP12 SWAP9 DUP12 SWAP8 SWAP1 SWAP6 ADD SWAP5 SWAP4 DUP5 ADD SWAP4 ADD PUSH3 0x55C JUMP JUMPDEST SWAP1 SWAP2 SWAP3 SWAP4 POP DUP6 PUSH0 MSTORE DUP7 PUSH0 KECCAK256 DUP6 DUP1 DUP6 ADD PUSH1 0x5 SHR DUP3 ADD SWAP3 DUP10 DUP7 LT PUSH3 0x5FA JUMPI JUMPDEST SWAP2 DUP9 SWAP2 DUP11 SWAP8 SWAP7 SWAP6 SWAP5 SWAP4 ADD PUSH1 0x5 SHR ADD SWAP2 JUMPDEST DUP3 DUP2 LT PUSH3 0x5EB JUMPI POP POP PUSH3 0xCF JUMP JUMPDEST PUSH0 DUP2 SSTORE DUP10 SWAP7 POP DUP9 SWAP2 ADD PUSH3 0x5DB JUMP JUMPDEST SWAP3 POP DUP2 SWAP3 PUSH3 0x5CB JUMP JUMPDEST SWAP4 PUSH1 0x7F AND SWAP4 PUSH3 0xB8 JUMP JUMPDEST DUP3 MLOAD PUSH4 0x1E4FBDF7 PUSH1 0xE0 SHL DUP2 MSTORE PUSH0 PUSH1 0x4 DUP3 ADD MSTORE PUSH1 0x24 SWAP1 REVERT JUMPDEST PUSH0 DUP1 REVERT JUMPDEST PUSH1 0x40 DUP2 ADD SWAP1 DUP2 LT PUSH1 0x1 PUSH1 0x1 PUSH1 0x40 SHL SUB DUP3 GT OR PUSH3 0x375 JUMPI PUSH1 0x40 MSTORE JUMP JUMPDEST PUSH1 0x1F SWAP1 SWAP2 ADD PUSH1 0x1F NOT AND DUP2 ADD SWAP1 PUSH1 0x1 PUSH1 0x1 PUSH1 0x40 SHL SUB DUP3 GT SWAP1 DUP3 LT OR PUSH3 0x375 JUMPI PUSH1 0x40 MSTORE JUMP JUMPDEST PUSH1 0x1 PUSH1 0x1 PUSH1 0x40 SHL SUB DUP2 GT PUSH3 0x375 JUMPI PUSH1 0x1F ADD PUSH1 0x1F NOT AND PUSH1 0x20 ADD SWAP1 JUMP JUMPDEST PUSH1 0x40 DUP1 MLOAD SWAP1 PUSH3 0x696 DUP3 PUSH3 0x62A JUMP JUMPDEST PUSH1 0x60 DUP1 DUP4 MSTORE PUSH1 0x20 SWAP3 DUP4 ADD MSTORE DUP1 MLOAD PUSH1 0x1 PUSH1 0x1 PUSH1 0x40 SHL SUB SWAP3 SWAP1 DUP1 DUP3 ADD DUP5 DUP2 GT DUP3 DUP3 LT OR PUSH3 0x375 JUMPI DUP4 MSTORE PUSH0 DUP2 MSTORE PUSH0 DUP1 DUP5 MLOAD SWAP3 DUP4 PUSH3 0x6E2 DUP7 DUP3 ADD SWAP3 DUP8 DUP5 MSTORE DUP9 DUP1 DUP5 ADD MSTORE PUSH1 0x60 DUP4 ADD SWAP1 PUSH3 0x88B JUMP JUMPDEST SUB SWAP4 PUSH3 0x6F8 PUSH1 0x1F NOT SWAP6 DUP7 DUP2 ADD DUP4 MSTORE DUP3 PUSH3 0x646 JUMP JUMPDEST MLOAD SWAP1 PUSH20 0x100000000000000000000000000000000000001 GAS STATICCALL SWAP1 PUSH3 0x71C PUSH3 0x8B2 JUMP JUMPDEST SWAP2 ISZERO PUSH3 0x824 JUMPI PUSH0 SWAP2 DUP3 SWAP2 PUSH3 0x758 DUP7 MLOAD SWAP2 DUP3 PUSH3 0x74B DUP9 DUP3 ADD SWAP6 PUSH1 0x4 DUP8 MSTORE DUP11 DUP1 DUP5 ADD MSTORE PUSH1 0x60 DUP4 ADD SWAP1 PUSH3 0x88B JUMP JUMPDEST SUB SWAP1 DUP2 ADD DUP4 MSTORE DUP3 PUSH3 0x646 JUMP JUMPDEST MLOAD SWAP1 PUSH20 0x100000000000000000000000000000000000005 GAS STATICCALL SWAP3 PUSH3 0x77C PUSH3 0x8B2 JUMP JUMPDEST SWAP4 ISZERO PUSH3 0x7E1 JUMPI DUP4 MLOAD DUP5 ADD DUP4 DUP6 DUP5 DUP4 ADD SWAP3 SUB SLT PUSH3 0x626 JUMPI DUP3 DUP6 ADD MLOAD DUP3 DUP2 GT PUSH3 0x626 JUMPI DUP2 DUP5 PUSH3 0x7B0 SWAP3 DUP9 ADD ADD PUSH3 0x8E6 JUMP JUMPDEST SWAP5 DUP5 DUP2 ADD MLOAD SWAP3 DUP4 GT PUSH3 0x626 JUMPI PUSH3 0x7CB SWAP3 ADD DUP4 ADD PUSH3 0x8E6 JUMP JUMPDEST SWAP2 MLOAD SWAP3 PUSH3 0x7D9 DUP5 PUSH3 0x62A JUMP JUMPDEST DUP4 MSTORE DUP3 ADD MSTORE SWAP1 JUMP JUMPDEST POP PUSH1 0x64 SWAP2 MLOAD SWAP1 PUSH3 0x461BCD PUSH1 0xE5 SHL DUP3 MSTORE PUSH1 0x4 DUP3 ADD MSTORE PUSH1 0x1B PUSH1 0x24 DUP3 ADD MSTORE PUSH32 0x67656E207369676E696E67206B6579706169723A206661696C65640000000000 PUSH1 0x44 DUP3 ADD MSTORE REVERT JUMPDEST DUP4 MLOAD PUSH3 0x461BCD PUSH1 0xE5 SHL DUP2 MSTORE PUSH1 0x4 DUP2 ADD DUP5 SWAP1 MSTORE PUSH1 0x13 PUSH1 0x24 DUP3 ADD MSTORE PUSH32 0x72616E646F6D42797465733A206661696C656400000000000000000000000000 PUSH1 0x44 DUP3 ADD MSTORE PUSH1 0x64 SWAP1 REVERT JUMPDEST PUSH0 JUMPDEST DUP4 DUP2 LT PUSH3 0x87A JUMPI POP POP PUSH0 SWAP2 ADD MSTORE JUMP JUMPDEST DUP2 DUP2 ADD MLOAD DUP4 DUP3 ADD MSTORE PUSH1 0x20 ADD PUSH3 0x86A JUMP JUMPDEST SWAP1 PUSH1 0x20 SWAP2 PUSH3 0x8A6 DUP2 MLOAD DUP1 SWAP3 DUP2 DUP6 MSTORE DUP6 DUP1 DUP7 ADD SWAP2 ADD PUSH3 0x868 JUMP JUMPDEST PUSH1 0x1F ADD PUSH1 0x1F NOT AND ADD ADD SWAP1 JUMP JUMPDEST RETURNDATASIZE ISZERO PUSH3 0x8E1 JUMPI RETURNDATASIZE SWAP1 PUSH3 0x8C6 DUP3 PUSH3 0x66A JUMP JUMPDEST SWAP2 PUSH3 0x8D6 PUSH1 0x40 MLOAD SWAP4 DUP5 PUSH3 0x646 JUMP JUMPDEST DUP3 MSTORE RETURNDATASIZE PUSH0 PUSH1 0x20 DUP5 ADD RETURNDATACOPY JUMP JUMPDEST PUSH1 0x60 SWAP1 JUMP JUMPDEST DUP2 PUSH1 0x1F DUP3 ADD SLT ISZERO PUSH3 0x626 JUMPI DUP1 MLOAD PUSH3 0x8FF DUP2 PUSH3 0x66A JUMP JUMPDEST SWAP3 PUSH3 0x90F PUSH1 0x40 MLOAD SWAP5 DUP6 PUSH3 0x646 JUMP JUMPDEST DUP2 DUP5 MSTORE PUSH1 0x20 DUP3 DUP5 ADD ADD GT PUSH3 0x626 JUMPI PUSH3 0x930 SWAP2 PUSH1 0x20 DUP1 DUP6 ADD SWAP2 ADD PUSH3 0x868 JUMP JUMPDEST SWAP1 JUMP INVALID PUSH1 0x80 PUSH1 0x40 MSTORE PUSH1 0x4 CALLDATASIZE LT ISZERO PUSH2 0x11 JUMPI PUSH0 DUP1 REVERT JUMPDEST PUSH0 CALLDATALOAD PUSH1 0xE0 SHR DUP1 PUSH4 0x97B8B3B EQ PUSH2 0x104 JUMPI DUP1 PUSH4 0x270E7C2F EQ PUSH2 0xFF JUMPI DUP1 PUSH4 0x4C22E6A1 EQ PUSH2 0xFA JUMPI DUP1 PUSH4 0x4CF0D40A EQ PUSH2 0xF5 JUMPI DUP1 PUSH4 0x53D6FD59 EQ PUSH2 0xF0 JUMPI DUP1 PUSH4 0x64D6C07D EQ PUSH2 0xEB JUMPI DUP1 PUSH4 0x688B87E8 EQ PUSH2 0xE6 JUMPI DUP1 PUSH4 0x715018A6 EQ PUSH2 0xE1 JUMPI DUP1 PUSH4 0x7355F88B EQ PUSH2 0xDC JUMPI DUP1 PUSH4 0x7998EFB8 EQ PUSH2 0xD7 JUMPI DUP1 PUSH4 0x8DA5CB5B EQ PUSH2 0xD2 JUMPI DUP1 PUSH4 0xAA775B4A EQ PUSH2 0xCD JUMPI DUP1 PUSH4 0xC7878BA1 EQ PUSH2 0xC8 JUMPI DUP1 PUSH4 0xE498DE5F EQ PUSH2 0xC3 JUMPI PUSH4 0xF2FDE38B EQ PUSH2 0xBE JUMPI PUSH0 DUP1 REVERT JUMPDEST PUSH2 0x971 JUMP JUMPDEST PUSH2 0x91D JUMP JUMPDEST PUSH2 0x8BC JUMP JUMPDEST PUSH2 0x86B JUMP JUMPDEST PUSH2 0x844 JUMP JUMPDEST PUSH2 0x803 JUMP JUMPDEST PUSH2 0x6C2 JUMP JUMPDEST PUSH2 0x66B JUMP JUMPDEST PUSH2 0x562 JUMP JUMPDEST PUSH2 0x510 JUMP JUMPDEST PUSH2 0x475 JUMP JUMPDEST PUSH2 0x42E JUMP JUMPDEST PUSH2 0x345 JUMP JUMPDEST PUSH2 0x2BA JUMP JUMPDEST PUSH2 0x1E4 JUMP JUMPDEST SWAP2 DUP2 PUSH1 0x1F DUP5 ADD SLT ISZERO PUSH2 0x136 JUMPI DUP3 CALLDATALOAD SWAP2 PUSH1 0x1 PUSH1 0x1 PUSH1 0x40 SHL SUB DUP4 GT PUSH2 0x136 JUMPI PUSH1 0x20 DUP4 DUP2 DUP7 ADD SWAP6 ADD ADD GT PUSH2 0x136 JUMPI JUMP JUMPDEST PUSH0 DUP1 REVERT JUMPDEST PUSH1 0x24 CALLDATALOAD SWAP1 PUSH1 0x1 PUSH1 0x1 PUSH1 0xA0 SHL SUB DUP3 AND DUP3 SUB PUSH2 0x136 JUMPI JUMP JUMPDEST PUSH1 0x4 CALLDATALOAD SWAP1 PUSH1 0x1 PUSH1 0x1 PUSH1 0xA0 SHL SUB DUP3 AND DUP3 SUB PUSH2 0x136 JUMPI JUMP JUMPDEST PUSH0 JUMPDEST DUP4 DUP2 LT PUSH2 0x177 JUMPI POP POP PUSH0 SWAP2 ADD MSTORE JUMP JUMPDEST DUP2 DUP2 ADD MLOAD DUP4 DUP3 ADD MSTORE PUSH1 0x20 ADD PUSH2 0x168 JUMP JUMPDEST SWAP1 PUSH1 0x20 SWAP2 PUSH2 0x1A0 DUP2 MLOAD DUP1 SWAP3 DUP2 DUP6 MSTORE DUP6 DUP1 DUP7 ADD SWAP2 ADD PUSH2 0x166 JUMP JUMPDEST PUSH1 0x1F ADD PUSH1 0x1F NOT AND ADD ADD SWAP1 JUMP JUMPDEST SWAP3 SWAP2 PUSH1 0x60 SWAP3 PUSH2 0x1C9 PUSH2 0x1DC SWAP4 SWAP8 SWAP7 SWAP8 PUSH1 0x80 DUP8 MSTORE PUSH1 0x80 DUP8 ADD SWAP1 PUSH2 0x187 JUMP JUMPDEST SWAP2 PUSH1 0x20 DUP7 ADD MSTORE DUP5 DUP3 SUB PUSH1 0x40 DUP7 ADD MSTORE PUSH2 0x187 JUMP JUMPDEST SWAP4 ISZERO ISZERO SWAP2 ADD MSTORE JUMP JUMPDEST CALLVALUE PUSH2 0x136 JUMPI PUSH1 0xC0 CALLDATASIZE PUSH1 0x3 NOT ADD SLT PUSH2 0x136 JUMPI PUSH1 0x1 PUSH1 0x1 PUSH1 0x40 SHL SUB PUSH1 0x4 DUP1 CALLDATALOAD DUP3 DUP2 GT PUSH2 0x136 JUMPI PUSH2 0x215 SWAP1 CALLDATASIZE SWAP1 DUP4 ADD PUSH2 0x109 JUMP JUMPDEST SWAP1 PUSH2 0x21E PUSH2 0x13A JUMP JUMPDEST PUSH1 0x44 CALLDATALOAD DUP6 DUP2 GT PUSH2 0x136 JUMPI PUSH2 0x235 SWAP1 CALLDATASIZE SWAP1 DUP7 ADD PUSH2 0x109 JUMP JUMPDEST PUSH1 0x64 SWAP3 SWAP2 SWAP3 CALLDATALOAD DUP8 DUP2 GT PUSH2 0x136 JUMPI PUSH2 0x24F SWAP1 CALLDATASIZE SWAP1 DUP9 ADD PUSH2 0x109 JUMP JUMPDEST SWAP2 PUSH1 0x84 CALLDATALOAD DUP10 DUP2 GT PUSH2 0x136 JUMPI PUSH2 0x267 SWAP1 CALLDATASIZE SWAP1 DUP11 ADD PUSH2 0x109 JUMP JUMPDEST SWAP6 SWAP1 SWAP5 PUSH1 0xA4 CALLDATALOAD SWAP11 DUP12 GT PUSH2 0x136 JUMPI PUSH2 0x287 PUSH2 0x28F SWAP11 PUSH2 0x29F SWAP13 CALLDATASIZE SWAP2 ADD PUSH2 0x109 JUMP JUMPDEST SWAP10 SWAP1 SWAP9 PUSH2 0xDD1 JUMP JUMPDEST SWAP1 PUSH1 0x40 SWAP5 SWAP3 SWAP5 MLOAD SWAP5 DUP6 SWAP5 DUP6 PUSH2 0x1AC JUMP JUMPDEST SUB SWAP1 RETURN JUMPDEST DUP1 ISZERO ISZERO SUB PUSH2 0x136 JUMPI JUMP JUMPDEST CALLDATALOAD SWAP1 PUSH2 0x2B8 DUP3 PUSH2 0x2A3 JUMP JUMPDEST JUMP JUMPDEST CALLVALUE PUSH2 0x136 JUMPI PUSH1 0x40 CALLDATASIZE PUSH1 0x3 NOT ADD SLT PUSH2 0x136 JUMPI PUSH2 0x301 PUSH1 0x24 CALLDATALOAD PUSH2 0x2DA DUP2 PUSH2 0x2A3 JUMP JUMPDEST PUSH2 0x2E2 PUSH2 0x19C2 JUMP JUMPDEST PUSH1 0x4 CALLDATALOAD PUSH0 MSTORE PUSH1 0x8 PUSH1 0x20 MSTORE PUSH1 0x40 PUSH0 KECCAK256 SWAP1 PUSH1 0xFF DUP1 NOT DUP4 SLOAD AND SWAP2 ISZERO ISZERO AND OR SWAP1 SSTORE JUMP JUMPDEST STOP JUMPDEST PUSH1 0x20 PUSH1 0x3 NOT DUP3 ADD SLT PUSH2 0x136 JUMPI PUSH1 0x4 CALLDATALOAD SWAP1 PUSH1 0x1 PUSH1 0x1 PUSH1 0x40 SHL SUB DUP3 GT PUSH2 0x136 JUMPI PUSH2 0x32D SWAP2 PUSH1 0x4 ADD PUSH2 0x109 JUMP JUMPDEST SWAP1 SWAP2 JUMP JUMPDEST SWAP1 PUSH1 0x20 PUSH2 0x342 SWAP3 DUP2 DUP2 MSTORE ADD SWAP1 PUSH2 0x187 JUMP JUMPDEST SWAP1 JUMP JUMPDEST CALLVALUE PUSH2 0x136 JUMPI PUSH2 0x35E PUSH2 0x356 CALLDATASIZE PUSH2 0x303 JUMP JUMPDEST DUP2 ADD SWAP1 PUSH2 0x1012 JUMP JUMPDEST PUSH0 JUMPDEST DUP2 MLOAD DUP2 LT ISZERO PUSH2 0x3FC JUMPI DUP1 PUSH2 0x151 PUSH2 0x379 PUSH1 0x1 SWAP4 DUP6 PUSH2 0x1170 JUMP JUMPDEST MLOAD MLOAD EQ PUSH2 0x387 JUMPI JUMPDEST ADD PUSH2 0x360 JUMP JUMPDEST PUSH2 0x3A7 PUSH1 0x20 DUP1 PUSH2 0x397 DUP5 DUP8 PUSH2 0x1170 JUMP JUMPDEST MLOAD ADD MLOAD DUP1 MLOAD DUP2 ADD DUP3 ADD SWAP2 ADD PUSH2 0x1189 JUMP JUMPDEST ISZERO PUSH2 0x3D7 JUMPI PUSH2 0x3C3 PUSH1 0x60 PUSH2 0x3BB DUP4 DUP7 PUSH2 0x1170 JUMP JUMPDEST MLOAD ADD PUSH1 0x1 SWAP1 MSTORE JUMP JUMPDEST PUSH2 0x3D2 PUSH1 0x80 PUSH2 0x3BB DUP4 DUP7 PUSH2 0x1170 JUMP JUMPDEST PUSH2 0x381 JUMP JUMPDEST PUSH0 PUSH1 0x60 PUSH2 0x3E4 DUP4 DUP7 PUSH2 0x1170 JUMP JUMPDEST MLOAD ADD MSTORE PUSH0 PUSH1 0x80 PUSH2 0x3F4 DUP4 DUP7 PUSH2 0x1170 JUMP JUMPDEST MLOAD ADD MSTORE PUSH2 0x381 JUMP JUMPDEST PUSH1 0x40 MLOAD PUSH2 0x29F SWAP1 PUSH2 0x422 DUP2 PUSH2 0x414 DUP7 PUSH1 0x20 DUP4 ADD PUSH2 0x1198 JUMP JUMPDEST SUB PUSH1 0x1F NOT DUP2 ADD DUP4 MSTORE DUP3 PUSH2 0xA60 JUMP JUMPDEST PUSH1 0x40 MLOAD SWAP2 DUP3 SWAP2 DUP3 PUSH2 0x331 JUMP JUMPDEST CALLVALUE PUSH2 0x136 JUMPI PUSH1 0x40 CALLDATASIZE PUSH1 0x3 NOT ADD SLT PUSH2 0x136 JUMPI PUSH2 0x301 PUSH1 0x24 CALLDATALOAD PUSH2 0x44E DUP2 PUSH2 0x2A3 JUMP JUMPDEST PUSH2 0x456 PUSH2 0x19C2 JUMP JUMPDEST PUSH1 0x4 CALLDATALOAD PUSH0 MSTORE PUSH1 0x7 PUSH1 0x20 MSTORE PUSH1 0x40 PUSH0 KECCAK256 SWAP1 PUSH1 0xFF DUP1 NOT DUP4 SLOAD AND SWAP2 ISZERO ISZERO AND OR SWAP1 SSTORE JUMP JUMPDEST CALLVALUE PUSH2 0x136 JUMPI PUSH1 0x40 CALLDATASIZE PUSH1 0x3 NOT ADD SLT PUSH2 0x136 JUMPI PUSH2 0x301 PUSH2 0x491 PUSH2 0x150 JUMP JUMPDEST PUSH1 0x24 CALLDATALOAD SWAP1 PUSH2 0x49E DUP3 PUSH2 0x2A3 JUMP JUMPDEST PUSH2 0x4A6 PUSH2 0x19C2 JUMP JUMPDEST PUSH1 0x1 DUP1 PUSH1 0xA0 SHL SUB AND PUSH0 MSTORE PUSH1 0x6 PUSH1 0x20 MSTORE PUSH1 0x40 PUSH0 KECCAK256 SWAP1 PUSH1 0xFF DUP1 NOT DUP4 SLOAD AND SWAP2 ISZERO ISZERO AND OR SWAP1 SSTORE JUMP JUMPDEST PUSH1 0x40 PUSH1 0x3 NOT DUP3 ADD SLT PUSH2 0x136 JUMPI PUSH1 0x1 PUSH1 0x1 PUSH1 0x40 SHL SUB SWAP2 PUSH1 0x4 CALLDATALOAD DUP4 DUP2 GT PUSH2 0x136 JUMPI DUP3 PUSH2 0x4F6 SWAP2 PUSH1 0x4 ADD PUSH2 0x109 JUMP JUMPDEST SWAP4 SWAP1 SWAP4 SWAP3 PUSH1 0x24 CALLDATALOAD SWAP2 DUP3 GT PUSH2 0x136 JUMPI PUSH2 0x32D SWAP2 PUSH1 0x4 ADD PUSH2 0x109 JUMP JUMPDEST CALLVALUE PUSH2 0x136 JUMPI PUSH2 0x53C PUSH2 0x531 PUSH2 0x524 CALLDATASIZE PUSH2 0x4CA JUMP JUMPDEST SWAP5 SWAP3 SWAP1 SWAP4 SWAP2 DUP2 ADD SWAP1 PUSH2 0xAFA JUMP JUMPDEST POP POP POP POP POP SWAP1 PUSH2 0x1550 JUMP JUMPDEST ISZERO PUSH2 0x136 JUMPI PUSH2 0x29F SWAP2 PUSH2 0x54E SWAP2 PUSH2 0x12D1 JUMP JUMPDEST PUSH1 0x40 MLOAD SWAP2 DUP3 SWAP2 PUSH1 0x20 DUP4 MSTORE PUSH1 0x20 DUP4 ADD SWAP1 PUSH2 0x187 JUMP JUMPDEST CALLVALUE PUSH2 0x136 JUMPI PUSH1 0x20 DUP1 PUSH1 0x3 NOT CALLDATASIZE ADD SLT PUSH2 0x136 JUMPI PUSH1 0x40 MLOAD DUP2 DUP2 ADD SWAP1 PUSH1 0x4 CALLDATALOAD DUP3 MSTORE DUP3 DUP2 MSTORE PUSH2 0x58C DUP2 PUSH2 0xA0F JUMP JUMPDEST MLOAD SWAP1 KECCAK256 PUSH1 0x40 MLOAD SWAP1 DUP3 DUP3 ADD MSTORE DUP2 DUP2 MSTORE PUSH2 0x5A3 DUP2 PUSH2 0xA0F JUMP JUMPDEST PUSH1 0x40 MLOAD SWAP2 PUSH0 SWAP1 PUSH1 0x4 SLOAD PUSH2 0x5B5 DUP2 PUSH2 0xB8E JUMP JUMPDEST DUP1 DUP7 MSTORE SWAP1 PUSH1 0x1 SWAP1 DUP2 DUP2 AND SWAP1 DUP2 ISZERO PUSH2 0x64D JUMPI POP PUSH1 0x1 EQ PUSH2 0x5F8 JUMPI JUMPDEST PUSH2 0x29F PUSH2 0x422 DUP8 DUP8 PUSH2 0x5E3 DUP3 DUP10 SUB DUP4 PUSH2 0xA60 JUMP JUMPDEST PUSH1 0x40 MLOAD SWAP2 PUSH2 0x5F0 DUP4 PUSH2 0xA2A JUMP JUMPDEST PUSH0 DUP4 MSTORE PUSH2 0x16A0 JUMP JUMPDEST PUSH1 0x4 PUSH0 SWAP1 DUP2 MSTORE SWAP3 SWAP4 POP PUSH32 0x8A35ACFBC15FF81A39AE7D344FD709F28E8600B4AA8C65C6B64BFE7FE36BD19B JUMPDEST DUP3 DUP5 LT PUSH2 0x63A JUMPI POP POP POP DUP4 ADD ADD DUP2 PUSH2 0x5E3 DUP5 PUSH2 0x5CF JUMP JUMPDEST DUP1 SLOAD DUP8 DUP6 ADD DUP7 ADD MSTORE SWAP3 DUP5 ADD SWAP3 DUP2 ADD PUSH2 0x623 JUMP JUMPDEST PUSH1 0xFF NOT AND DUP5 DUP9 ADD MSTORE POP POP ISZERO ISZERO PUSH1 0x5 SHL DUP5 ADD ADD SWAP1 POP DUP2 PUSH2 0x5E3 DUP5 PUSH2 0x5CF JUMP JUMPDEST CALLVALUE PUSH2 0x136 JUMPI PUSH0 CALLDATASIZE PUSH1 0x3 NOT ADD SLT PUSH2 0x136 JUMPI PUSH2 0x683 PUSH2 0x19C2 JUMP JUMPDEST PUSH0 DUP1 SLOAD PUSH1 0x1 PUSH1 0x1 PUSH1 0xA0 SHL SUB NOT DUP2 AND DUP3 SSTORE PUSH1 0x1 PUSH1 0x1 PUSH1 0xA0 SHL SUB AND PUSH32 0x8BE0079C531659141344CD1FD0A4F28419497F9722A3DAAFE3B4186F6B6457E0 DUP3 DUP1 LOG3 STOP JUMPDEST CALLVALUE PUSH2 0x136 JUMPI PUSH2 0x6F6 PUSH2 0x6FF PUSH2 0x6D6 CALLDATASIZE PUSH2 0x4CA JUMP JUMPDEST SWAP2 SWAP5 SWAP1 SWAP3 PUSH2 0x6E2 PUSH2 0x19C2 JUMP JUMPDEST PUSH1 0x40 MLOAD SWAP6 PUSH2 0x6EF DUP8 PUSH2 0xA0F JUMP JUMPDEST CALLDATASIZE SWAP2 PUSH2 0xAA9 JUMP JUMPDEST DUP5 MSTORE CALLDATASIZE SWAP2 PUSH2 0xAA9 JUMP JUMPDEST PUSH1 0x20 SWAP2 PUSH1 0x20 DUP2 ADD SWAP2 DUP3 MSTORE MLOAD DUP1 MLOAD SWAP3 PUSH1 0x1 PUSH1 0x1 PUSH1 0x40 SHL SUB DUP5 GT PUSH2 0x7FE JUMPI PUSH1 0x1 SWAP2 PUSH2 0x731 DUP6 PUSH2 0x72C DUP6 SLOAD PUSH2 0xB8E JUMP JUMPDEST PUSH2 0x1353 JUMP JUMPDEST PUSH1 0x20 SWAP2 PUSH1 0x1F DUP7 GT PUSH1 0x1 EQ PUSH2 0x779 JUMPI POP SWAP4 DUP1 PUSH2 0x765 SWAP3 PUSH2 0x301 SWAP7 PUSH0 SWAP3 PUSH2 0x76E JUMPI JUMPDEST POP POP DUP2 PUSH1 0x1 SHL SWAP2 PUSH0 NOT SWAP1 PUSH1 0x3 SHL SHR NOT AND OR SWAP1 JUMP JUMPDEST SWAP1 SSTORE JUMPDEST MLOAD PUSH2 0x1431 JUMP JUMPDEST ADD MLOAD SWAP1 POP PUSH0 DUP1 PUSH2 0x751 JUMP JUMPDEST PUSH1 0x1 PUSH0 MSTORE SWAP2 SWAP1 PUSH1 0x1F NOT DUP7 AND PUSH32 0xB10E2D527612073B26EECDFD717E6A320CF44B4AFAC2B0732D9FCBE2B7FA0CF6 SWAP4 PUSH0 SWAP1 JUMPDEST DUP3 DUP3 LT PUSH2 0x7E7 JUMPI POP POP SWAP2 DUP5 SWAP4 SWAP2 DUP8 PUSH2 0x301 SWAP9 SWAP5 LT PUSH2 0x7CF JUMPI JUMPDEST POP POP POP DUP2 SHL ADD SWAP1 SSTORE PUSH2 0x768 JUMP JUMPDEST ADD MLOAD PUSH0 NOT PUSH1 0xF8 DUP5 PUSH1 0x3 SHL AND SHR NOT AND SWAP1 SSTORE PUSH0 DUP1 DUP1 PUSH2 0x7C2 JUMP JUMPDEST DUP1 DUP8 DUP7 SWAP8 DUP3 SWAP5 SWAP8 DUP8 ADD MLOAD DUP2 SSTORE ADD SWAP7 ADD SWAP5 ADD SWAP1 PUSH2 0x7A9 JUMP JUMPDEST PUSH2 0x9FB JUMP JUMPDEST CALLVALUE PUSH2 0x136 JUMPI PUSH2 0x811 CALLDATASIZE PUSH2 0x303 JUMP JUMPDEST PUSH2 0x819 PUSH2 0x19C2 JUMP JUMPDEST PUSH2 0x83C PUSH1 0x20 PUSH1 0x40 MLOAD DUP4 DUP2 SWAP5 DUP4 DUP4 ADD SWAP7 DUP8 CALLDATACOPY DUP2 ADD PUSH0 DUP4 DUP3 ADD MSTORE SUB DUP1 DUP5 MSTORE ADD DUP3 PUSH2 0xA60 JUMP JUMPDEST MLOAD SWAP1 KECCAK256 PUSH1 0x5 SSTORE STOP JUMPDEST CALLVALUE PUSH2 0x136 JUMPI PUSH0 CALLDATASIZE PUSH1 0x3 NOT ADD SLT PUSH2 0x136 JUMPI PUSH0 SLOAD PUSH1 0x40 MLOAD PUSH1 0x1 PUSH1 0x1 PUSH1 0xA0 SHL SUB SWAP1 SWAP2 AND DUP2 MSTORE PUSH1 0x20 SWAP1 RETURN JUMPDEST CALLVALUE PUSH2 0x136 JUMPI PUSH2 0x879 CALLDATASIZE PUSH2 0x303 JUMP JUMPDEST SWAP1 PUSH2 0x882 PUSH2 0x19C2 JUMP JUMPDEST PUSH1 0x5 SLOAD SWAP2 PUSH2 0x8A9 PUSH1 0x20 PUSH1 0x40 MLOAD DUP4 DUP2 SWAP5 DUP4 DUP4 ADD SWAP7 DUP8 CALLDATACOPY DUP2 ADD PUSH0 DUP4 DUP3 ADD MSTORE SUB DUP1 DUP5 MSTORE ADD DUP3 PUSH2 0xA60 JUMP JUMPDEST MLOAD SWAP1 KECCAK256 SUB PUSH2 0x136 JUMPI PUSH2 0x29F PUSH2 0x54E PUSH2 0xBC6 JUMP JUMPDEST CALLVALUE PUSH2 0x136 JUMPI PUSH1 0x40 CALLDATASIZE PUSH1 0x3 NOT ADD SLT PUSH2 0x136 JUMPI PUSH1 0x4 CALLDATALOAD PUSH1 0x1 PUSH1 0x1 PUSH1 0x40 SHL SUB DUP2 GT PUSH2 0x136 JUMPI PUSH2 0x531 PUSH2 0x8F2 PUSH2 0x8FA SWAP3 CALLDATASIZE SWAP1 PUSH1 0x4 ADD PUSH2 0x109 JUMP JUMPDEST DUP2 ADD SWAP1 PUSH2 0xAFA JUMP JUMPDEST ISZERO PUSH2 0x136 JUMPI PUSH1 0x24 CALLDATALOAD PUSH0 MSTORE PUSH1 0x8 PUSH1 0x20 MSTORE PUSH1 0x20 PUSH1 0xFF PUSH1 0x40 PUSH0 KECCAK256 SLOAD AND PUSH1 0x40 MLOAD SWAP1 ISZERO ISZERO DUP2 MSTORE RETURN JUMPDEST CALLVALUE PUSH2 0x136 JUMPI PUSH0 CALLDATASIZE PUSH1 0x3 NOT ADD SLT PUSH2 0x136 JUMPI PUSH2 0x95D PUSH2 0x940 PUSH2 0x93B PUSH2 0xC87 JUMP JUMPDEST PUSH2 0x19ED JUMP JUMPDEST PUSH2 0x948 PUSH2 0xC87 JUMP JUMPDEST SWAP1 PUSH1 0x40 MLOAD SWAP3 DUP4 SWAP3 PUSH1 0x40 DUP5 MSTORE PUSH1 0x40 DUP5 ADD SWAP1 PUSH2 0x187 JUMP JUMPDEST PUSH1 0x1 PUSH1 0x1 PUSH1 0xA0 SHL SUB SWAP1 SWAP2 AND PUSH1 0x20 DUP4 ADD MSTORE SUB SWAP1 RETURN JUMPDEST CALLVALUE PUSH2 0x136 JUMPI PUSH1 0x20 CALLDATASIZE PUSH1 0x3 NOT ADD SLT PUSH2 0x136 JUMPI PUSH2 0x98A PUSH2 0x150 JUMP JUMPDEST PUSH2 0x992 PUSH2 0x19C2 JUMP JUMPDEST PUSH1 0x1 PUSH1 0x1 PUSH1 0xA0 SHL SUB SWAP1 DUP2 AND SWAP1 DUP2 ISZERO PUSH2 0x9E3 JUMPI PUSH0 SLOAD DUP3 PUSH12 0xFFFFFFFFFFFFFFFFFFFFFFFF PUSH1 0xA0 SHL DUP3 AND OR PUSH0 SSTORE AND PUSH32 0x8BE0079C531659141344CD1FD0A4F28419497F9722A3DAAFE3B4186F6B6457E0 PUSH0 DUP1 LOG3 STOP JUMPDEST PUSH1 0x40 MLOAD PUSH4 0x1E4FBDF7 PUSH1 0xE0 SHL DUP2 MSTORE PUSH0 PUSH1 0x4 DUP3 ADD MSTORE PUSH1 0x24 SWAP1 REVERT JUMPDEST PUSH4 0x4E487B71 PUSH1 0xE0 SHL PUSH0 MSTORE PUSH1 0x41 PUSH1 0x4 MSTORE PUSH1 0x24 PUSH0 REVERT JUMPDEST PUSH1 0x40 DUP2 ADD SWAP1 DUP2 LT PUSH1 0x1 PUSH1 0x1 PUSH1 0x40 SHL SUB DUP3 GT OR PUSH2 0x7FE JUMPI PUSH1 0x40 MSTORE JUMP JUMPDEST PUSH1 0x20 DUP2 ADD SWAP1 DUP2 LT PUSH1 0x1 PUSH1 0x1 PUSH1 0x40 SHL SUB DUP3 GT OR PUSH2 0x7FE JUMPI PUSH1 0x40 MSTORE JUMP JUMPDEST PUSH1 0xE0 DUP2 ADD SWAP1 DUP2 LT PUSH1 0x1 PUSH1 0x1 PUSH1 0x40 SHL SUB DUP3 GT OR PUSH2 0x7FE JUMPI PUSH1 0x40 MSTORE JUMP JUMPDEST SWAP1 PUSH1 0x1F DUP1 NOT SWAP2 ADD AND DUP2 ADD SWAP1 DUP2 LT PUSH1 0x1 PUSH1 0x1 PUSH1 0x40 SHL SUB DUP3 GT OR PUSH2 0x7FE JUMPI PUSH1 0x40 MSTORE JUMP JUMPDEST PUSH1 0x40 MLOAD SWAP1 PUSH2 0x2B8 DUP3 PUSH2 0xA45 JUMP JUMPDEST PUSH1 0x1 PUSH1 0x1 PUSH1 0x40 SHL SUB DUP2 GT PUSH2 0x7FE JUMPI PUSH1 0x1F ADD PUSH1 0x1F NOT AND PUSH1 0x20 ADD SWAP1 JUMP JUMPDEST SWAP3 SWAP2 SWAP3 PUSH2 0xAB5 DUP3 PUSH2 0xA8E JUMP JUMPDEST SWAP2 PUSH2 0xAC3 PUSH1 0x40 MLOAD SWAP4 DUP5 PUSH2 0xA60 JUMP JUMPDEST DUP3 SWAP5 DUP2 DUP5 MSTORE DUP2 DUP4 ADD GT PUSH2 0x136 JUMPI DUP3 DUP2 PUSH1 0x20 SWAP4 DUP5 PUSH0 SWAP7 ADD CALLDATACOPY ADD ADD MSTORE JUMP JUMPDEST SWAP1 DUP1 PUSH1 0x1F DUP4 ADD SLT ISZERO PUSH2 0x136 JUMPI DUP2 PUSH1 0x20 PUSH2 0x342 SWAP4 CALLDATALOAD SWAP2 ADD PUSH2 0xAA9 JUMP JUMPDEST SWAP2 PUSH1 0xE0 DUP4 DUP4 SUB SLT PUSH2 0x136 JUMPI DUP3 CALLDATALOAD SWAP3 PUSH1 0x1 PUSH1 0x1 PUSH1 0x40 SHL SUB SWAP3 PUSH1 0x20 DUP3 ADD CALLDATALOAD DUP5 DUP2 GT PUSH2 0x136 JUMPI DUP2 PUSH2 0xB29 SWAP2 DUP5 ADD PUSH2 0xADF JUMP JUMPDEST SWAP4 PUSH1 0x40 DUP4 ADD CALLDATALOAD SWAP4 PUSH1 0x60 DUP5 ADD CALLDATALOAD DUP3 DUP2 GT PUSH2 0x136 JUMPI DUP4 PUSH2 0xB48 SWAP2 DUP7 ADD PUSH2 0xADF JUMP JUMPDEST SWAP4 PUSH1 0x80 DUP2 ADD CALLDATALOAD SWAP4 PUSH1 0xA0 DUP3 ADD CALLDATALOAD SWAP4 PUSH1 0xC0 DUP4 ADD CALLDATALOAD SWAP1 DUP2 GT PUSH2 0x136 JUMPI PUSH2 0x342 SWAP3 ADD PUSH2 0xADF JUMP JUMPDEST DUP3 PUSH1 0x14 SWAP5 SWAP4 SWAP3 DUP3 CALLDATACOPY ADD SWAP1 PUSH12 0xFFFFFFFFFFFFFFFFFFFFFFFF NOT SWAP1 PUSH1 0x60 SHL AND DUP2 MSTORE ADD SWAP1 JUMP JUMPDEST SWAP1 PUSH1 0x1 DUP3 DUP2 SHR SWAP3 AND DUP1 ISZERO PUSH2 0xBBC JUMPI JUMPDEST PUSH1 0x20 DUP4 LT EQ PUSH2 0xBA8 JUMPI JUMP JUMPDEST PUSH4 0x4E487B71 PUSH1 0xE0 SHL PUSH0 MSTORE PUSH1 0x22 PUSH1 0x4 MSTORE PUSH1 0x24 PUSH0 REVERT JUMPDEST SWAP2 PUSH1 0x7F AND SWAP2 PUSH2 0xB9D JUMP JUMPDEST PUSH1 0x40 MLOAD SWAP1 PUSH0 DUP3 PUSH1 0x2 SLOAD SWAP2 PUSH2 0xBD9 DUP4 PUSH2 0xB8E JUMP JUMPDEST DUP1 DUP4 MSTORE SWAP3 PUSH1 0x20 SWAP1 PUSH1 0x1 SWAP1 DUP2 DUP2 AND SWAP1 DUP2 ISZERO PUSH2 0xC63 JUMPI POP PUSH1 0x1 EQ PUSH2 0xC04 JUMPI JUMPDEST POP POP PUSH2 0x2B8 SWAP3 POP SUB DUP4 PUSH2 0xA60 JUMP JUMPDEST SWAP2 POP SWAP3 PUSH1 0x2 PUSH0 MSTORE PUSH32 0x405787FA12A823E0F2B7631CC41B3BA8828B3321CA811111FA75CD3AA3BB5ACE SWAP4 PUSH0 SWAP3 JUMPDEST DUP3 DUP5 LT PUSH2 0xC4B JUMPI POP PUSH2 0x2B8 SWAP5 POP POP POP DUP2 ADD PUSH1 0x20 ADD PUSH0 DUP1 PUSH2 0xBF6 JUMP JUMPDEST DUP6 SLOAD DUP9 DUP6 ADD DUP4 ADD MSTORE SWAP5 DUP6 ADD SWAP5 DUP8 SWAP5 POP SWAP3 DUP2 ADD SWAP3 PUSH2 0xC30 JUMP JUMPDEST SWAP2 POP POP PUSH1 0x20 SWAP3 POP PUSH2 0x2B8 SWAP5 SWAP2 POP PUSH1 0xFF NOT AND DUP3 DUP5 ADD MSTORE ISZERO ISZERO PUSH1 0x5 SHL DUP3 ADD ADD PUSH0 DUP1 PUSH2 0xBF6 JUMP JUMPDEST PUSH1 0x40 MLOAD SWAP1 PUSH0 DUP3 PUSH1 0x1 SWAP2 PUSH1 0x1 SLOAD PUSH2 0xC9C DUP2 PUSH2 0xB8E JUMP JUMPDEST DUP1 DUP5 MSTORE SWAP4 PUSH1 0x20 SWAP2 PUSH1 0x1 DUP2 AND SWAP1 DUP2 ISZERO PUSH2 0xC63 JUMPI POP PUSH1 0x1 EQ PUSH2 0xCC4 JUMPI POP POP PUSH2 0x2B8 SWAP3 POP SUB DUP4 PUSH2 0xA60 JUMP JUMPDEST SWAP2 POP SWAP3 PUSH1 0x1 PUSH0 MSTORE PUSH32 0xB10E2D527612073B26EECDFD717E6A320CF44B4AFAC2B0732D9FCBE2B7FA0CF6 SWAP4 PUSH0 SWAP3 JUMPDEST DUP3 DUP5 LT PUSH2 0xD0B JUMPI POP PUSH2 0x2B8 SWAP5 POP POP POP DUP2 ADD PUSH1 0x20 ADD PUSH0 DUP1 PUSH2 0xBF6 JUMP JUMPDEST DUP6 SLOAD DUP9 DUP6 ADD DUP4 ADD MSTORE SWAP5 DUP6 ADD SWAP5 DUP8 SWAP5 POP SWAP3 DUP2 ADD SWAP3 PUSH2 0xCF0 JUMP JUMPDEST PUSH1 0x40 MLOAD SWAP1 PUSH0 DUP3 PUSH1 0x3 SLOAD SWAP2 PUSH2 0xD36 DUP4 PUSH2 0xB8E JUMP JUMPDEST DUP1 DUP4 MSTORE SWAP3 PUSH1 0x20 SWAP1 PUSH1 0x1 SWAP1 DUP2 DUP2 AND SWAP1 DUP2 ISZERO PUSH2 0xC63 JUMPI POP PUSH1 0x1 EQ PUSH2 0xD60 JUMPI POP POP PUSH2 0x2B8 SWAP3 POP SUB DUP4 PUSH2 0xA60 JUMP JUMPDEST SWAP2 POP SWAP3 PUSH1 0x3 PUSH0 MSTORE PUSH32 0xC2575A0E9E593C00F959F8C92F12DB2869C3395A3B0502D05E2516446F71F85B SWAP4 PUSH0 SWAP3 JUMPDEST DUP3 DUP5 LT PUSH2 0xDA7 JUMPI POP PUSH2 0x2B8 SWAP5 POP POP POP DUP2 ADD PUSH1 0x20 ADD PUSH0 DUP1 PUSH2 0xBF6 JUMP JUMPDEST DUP6 SLOAD DUP9 DUP6 ADD DUP4 ADD MSTORE SWAP5 DUP6 ADD SWAP5 DUP8 SWAP5 POP SWAP3 DUP2 ADD SWAP3 PUSH2 0xD8C JUMP JUMPDEST PUSH1 0x40 MLOAD SWAP1 PUSH2 0xDCC DUP3 PUSH2 0xA2A JUMP JUMPDEST PUSH0 DUP3 MSTORE JUMP JUMPDEST SWAP1 SWAP11 SWAP8 SWAP3 SWAP11 SWAP10 SWAP6 SWAP7 SWAP9 SWAP5 SWAP10 PUSH2 0xDE6 DUP6 DUP14 PUSH2 0x1510 JUMP JUMPDEST ISZERO PUSH2 0x136 JUMPI DUP2 ADD PUSH2 0xDFA PUSH2 0x531 DUP3 DUP5 PUSH2 0xAFA JUMP JUMPDEST ISZERO PUSH2 0x136 JUMPI PUSH2 0xE08 SWAP2 PUSH2 0xAFA JUMP JUMPDEST POP POP SWAP6 SWAP4 POP POP POP POP PUSH1 0x40 SWAP10 DUP11 MLOAD SWAP7 DUP8 PUSH1 0x20 SWAP8 DUP6 DUP10 DUP4 ADD SWAP4 PUSH2 0xE29 SWAP3 DUP6 PUSH2 0xB6B JUMP JUMPDEST SUB SWAP8 PUSH1 0x1F NOT SWAP9 DUP10 DUP2 ADD DUP3 MSTORE PUSH2 0xE3E SWAP1 DUP3 PUSH2 0xA60 JUMP JUMPDEST MLOAD SWAP1 KECCAK256 DUP12 MLOAD DUP8 DUP2 ADD DUP3 DUP2 MSTORE DUP2 SWAP1 PUSH1 0x20 ADD SUB DUP10 DUP2 ADD DUP3 MSTORE PUSH2 0xE5E SWAP1 DUP3 PUSH2 0xA60 JUMP JUMPDEST PUSH2 0xE66 PUSH2 0xBC6 JUMP JUMPDEST SWAP1 PUSH2 0xE6F PUSH2 0xDBF JUMP JUMPDEST SWAP1 PUSH2 0xE79 SWAP3 PUSH2 0x16A0 JUMP JUMPDEST PUSH2 0xE81 PUSH2 0xC87 JUMP JUMPDEST SWAP2 PUSH2 0xE8B SWAP3 PUSH2 0x1779 JUMP JUMPDEST DUP1 MLOAD DUP9 DUP3 ADD MLOAD SWAP2 DUP15 ADD MLOAD SWAP1 SWAP11 SWAP3 POP PUSH1 0xFF AND DUP14 MLOAD DUP10 DUP2 ADD SWAP12 DUP13 MSTORE PUSH1 0x20 DUP13 ADD SWAP3 SWAP1 SWAP3 MSTORE PUSH1 0xF8 SHL PUSH1 0x1 PUSH1 0x1 PUSH1 0xF8 SHL SUB NOT AND PUSH1 0x40 DUP12 ADD MSTORE SWAP9 DUP10 SWAP1 PUSH1 0x41 ADD SUB DUP9 DUP2 ADD DUP11 MSTORE PUSH2 0xED4 SWAP1 DUP11 PUSH2 0xA60 JUMP JUMPDEST CALLDATASIZE SWAP1 PUSH2 0xEDF SWAP3 PUSH2 0xAA9 JUMP JUMPDEST DUP6 DUP2 MLOAD SWAP2 ADD KECCAK256 SWAP9 DUP11 MLOAD DUP1 SWAP2 DUP5 DUP9 DUP4 ADD SWAP5 PUSH2 0xEF9 SWAP3 DUP7 PUSH2 0xB6B JUMP JUMPDEST SUB DUP8 DUP2 ADD DUP3 MSTORE PUSH2 0xF09 SWAP1 DUP3 PUSH2 0xA60 JUMP JUMPDEST MLOAD SWAP1 KECCAK256 SWAP10 DUP11 SWAP4 PUSH2 0xF18 SWAP2 PUSH2 0x198F JUMP JUMPDEST DUP10 MLOAD DUP6 DUP2 ADD SWAP10 DUP11 MSTORE PUSH1 0x20 DUP11 ADD SWAP5 SWAP1 SWAP5 MSTORE PUSH1 0x60 SWAP2 SWAP1 SWAP2 SHL PUSH12 0xFFFFFFFFFFFFFFFFFFFFFFFF NOT AND PUSH1 0x40 DUP10 ADD MSTORE PUSH1 0x54 DUP9 ADD SWAP2 SWAP1 SWAP2 MSTORE DUP1 ISZERO ISZERO PUSH1 0xF8 SHL PUSH1 0x74 DUP9 ADD MSTORE SWAP6 SWAP1 DUP1 PUSH1 0x75 DUP4 ADD SUB DUP5 DUP2 ADD DUP3 MSTORE PUSH2 0xF6C SWAP1 DUP3 PUSH2 0xA60 JUMP JUMPDEST MLOAD SWAP1 KECCAK256 DUP7 MLOAD DUP3 DUP2 ADD DUP3 DUP2 MSTORE DUP2 SWAP1 PUSH1 0x20 ADD SUB DUP5 DUP2 ADD DUP3 MSTORE PUSH2 0xF8C SWAP1 DUP3 PUSH2 0xA60 JUMP JUMPDEST PUSH2 0xF94 PUSH2 0xBC6 JUMP JUMPDEST SWAP1 PUSH2 0xF9D PUSH2 0xDBF JUMP JUMPDEST SWAP1 PUSH2 0xFA7 SWAP3 PUSH2 0x16A0 JUMP JUMPDEST PUSH2 0xFAF PUSH2 0xC87 JUMP JUMPDEST SWAP2 PUSH2 0xFB9 SWAP3 PUSH2 0x1779 JUMP JUMPDEST DUP1 SWAP8 SWAP2 POP MLOAD SWAP1 DUP1 DUP4 DUP10 ADD MLOAD SWAP9 ADD MLOAD PUSH2 0xFD1 SWAP1 PUSH1 0xFF AND SWAP1 JUMP JUMPDEST SWAP1 MLOAD SWAP3 DUP4 ADD SWAP2 DUP3 MSTORE PUSH1 0x20 DUP3 ADD SWAP8 SWAP1 SWAP8 MSTORE PUSH1 0xF8 SWAP7 SWAP1 SWAP7 SHL PUSH1 0x1 PUSH1 0x1 PUSH1 0xF8 SHL SUB NOT AND PUSH1 0x40 DUP8 ADD MSTORE SWAP5 DUP6 SWAP1 PUSH1 0x41 ADD SUB SWAP1 DUP2 ADD DUP6 MSTORE PUSH2 0x100C SWAP1 DUP6 PUSH2 0xA60 JUMP JUMPDEST SWAP4 SWAP3 SWAP2 SWAP1 JUMP JUMPDEST PUSH1 0x20 SWAP1 DUP2 DUP2 DUP5 SUB SLT PUSH2 0x136 JUMPI DUP1 CALLDATALOAD PUSH1 0x1 PUSH1 0x1 PUSH1 0x40 SHL SUB SWAP2 DUP3 DUP3 GT PUSH2 0x136 JUMPI ADD SWAP1 DUP4 PUSH1 0x1F DUP4 ADD SLT ISZERO PUSH2 0x136 JUMPI DUP2 CALLDATALOAD SWAP4 DUP2 DUP6 GT PUSH2 0x7FE JUMPI DUP5 PUSH1 0x5 SHL SWAP1 PUSH1 0x40 DUP1 MLOAD SWAP7 PUSH2 0x105D DUP8 DUP6 ADD DUP10 PUSH2 0xA60 JUMP JUMPDEST DUP8 MSTORE DUP6 DUP1 DUP9 ADD SWAP4 DUP7 ADD ADD SWAP5 DUP3 DUP7 GT PUSH2 0x136 JUMPI DUP7 DUP2 ADD SWAP4 JUMPDEST DUP7 DUP6 LT PUSH2 0x1086 JUMPI POP POP POP POP POP POP POP POP SWAP1 JUMP JUMPDEST DUP5 CALLDATALOAD DUP7 DUP2 GT PUSH2 0x136 JUMPI DUP3 ADD SWAP1 PUSH1 0xE0 SWAP1 DUP2 PUSH1 0x1F NOT DUP5 DUP9 SUB ADD SLT PUSH2 0x136 JUMPI PUSH2 0x10AA PUSH2 0xA81 JUMP JUMPDEST DUP11 DUP5 ADD CALLDATALOAD DUP2 MSTORE DUP6 DUP5 ADD CALLDATALOAD DUP10 DUP2 GT PUSH2 0x136 JUMPI DUP8 DUP13 PUSH2 0x10C9 SWAP3 DUP8 ADD ADD PUSH2 0xADF JUMP JUMPDEST DUP12 DUP3 ADD MSTORE PUSH1 0x60 SWAP3 DUP4 DUP6 ADD CALLDATALOAD DUP11 DUP2 GT PUSH2 0x136 JUMPI DUP9 DUP14 PUSH2 0x10E9 SWAP3 DUP9 ADD ADD PUSH2 0xADF JUMP JUMPDEST DUP8 DUP4 ADD MSTORE PUSH1 0x80 SWAP4 PUSH2 0x10FB DUP6 DUP8 ADD PUSH2 0x2AD JUMP JUMPDEST SWAP1 DUP4 ADD MSTORE PUSH1 0xA0 SWAP4 PUSH2 0x110D DUP6 DUP8 ADD PUSH2 0x2AD JUMP JUMPDEST SWAP1 DUP4 ADD MSTORE PUSH1 0xC0 SWAP4 DUP5 DUP7 ADD CALLDATALOAD DUP12 DUP2 GT PUSH2 0x136 JUMPI DUP10 DUP15 PUSH2 0x112D SWAP3 DUP10 ADD ADD PUSH2 0xADF JUMP JUMPDEST SWAP1 DUP4 ADD MSTORE DUP5 ADD CALLDATALOAD SWAP3 DUP10 DUP5 GT PUSH2 0x136 JUMPI PUSH2 0x114D DUP9 DUP14 DUP1 SWAP8 SWAP7 DUP2 SWAP8 ADD ADD PUSH2 0xADF JUMP JUMPDEST SWAP1 DUP3 ADD MSTORE DUP2 MSTORE ADD SWAP5 ADD SWAP4 PUSH2 0x1074 JUMP JUMPDEST PUSH4 0x4E487B71 PUSH1 0xE0 SHL PUSH0 MSTORE PUSH1 0x32 PUSH1 0x4 MSTORE PUSH1 0x24 PUSH0 REVERT JUMPDEST DUP1 MLOAD DUP3 LT ISZERO PUSH2 0x1184 JUMPI PUSH1 0x20 SWAP2 PUSH1 0x5 SHL ADD ADD SWAP1 JUMP JUMPDEST PUSH2 0x115C JUMP JUMPDEST SWAP1 DUP2 PUSH1 0x20 SWAP2 SUB SLT PUSH2 0x136 JUMPI MLOAD SWAP1 JUMP JUMPDEST PUSH1 0x20 DUP1 DUP3 ADD SWAP1 DUP1 DUP4 MSTORE DUP4 MLOAD DUP1 SWAP3 MSTORE PUSH1 0x40 SWAP3 PUSH1 0x40 DUP2 ADD DUP3 PUSH1 0x40 DUP6 PUSH1 0x5 SHL DUP5 ADD ADD SWAP7 ADD SWAP5 PUSH0 SWAP3 JUMPDEST DUP6 DUP5 LT PUSH2 0x11CE JUMPI POP POP POP POP POP POP POP SWAP1 JUMP JUMPDEST SWAP1 SWAP2 SWAP3 SWAP4 SWAP5 SWAP6 SWAP7 DUP6 DUP1 PUSH2 0x1257 PUSH1 0x1 SWAP4 PUSH1 0x3F NOT DUP7 DUP3 SUB ADD DUP9 MSTORE DUP12 MLOAD PUSH2 0x1244 PUSH2 0x1219 PUSH2 0x1209 PUSH1 0xE0 DUP5 MLOAD DUP7 MSTORE DUP8 DUP6 ADD MLOAD SWAP1 DUP1 DUP10 DUP9 ADD MSTORE DUP7 ADD SWAP1 PUSH2 0x187 JUMP JUMPDEST DUP11 DUP5 ADD MLOAD DUP6 DUP3 SUB DUP13 DUP8 ADD MSTORE PUSH2 0x187 JUMP JUMPDEST PUSH1 0x60 DUP4 DUP2 ADD MLOAD ISZERO ISZERO SWAP1 DUP6 ADD MSTORE PUSH1 0x80 DUP1 DUP5 ADD MLOAD ISZERO ISZERO SWAP1 DUP6 ADD MSTORE PUSH1 0xA0 DUP1 DUP5 ADD MLOAD SWAP1 DUP6 DUP4 SUB SWAP1 DUP7 ADD MSTORE PUSH2 0x187 JUMP JUMPDEST SWAP2 PUSH1 0xC0 DUP1 SWAP3 ADD MLOAD SWAP2 DUP2 DUP5 SUB SWAP2 ADD MSTORE PUSH2 0x187 JUMP JUMPDEST SWAP10 ADD SWAP5 ADD SWAP5 ADD SWAP3 SWAP6 SWAP5 SWAP4 SWAP2 SWAP1 PUSH2 0x11BD JUMP JUMPDEST PUSH1 0x20 DUP2 DUP4 SUB SLT PUSH2 0x136 JUMPI DUP1 MLOAD SWAP1 PUSH1 0x1 PUSH1 0x1 PUSH1 0x40 SHL SUB DUP3 GT PUSH2 0x136 JUMPI ADD DUP2 PUSH1 0x1F DUP3 ADD SLT ISZERO PUSH2 0x136 JUMPI DUP1 MLOAD PUSH2 0x129A DUP2 PUSH2 0xA8E JUMP JUMPDEST SWAP3 PUSH2 0x12A8 PUSH1 0x40 MLOAD SWAP5 DUP6 PUSH2 0xA60 JUMP JUMPDEST DUP2 DUP5 MSTORE PUSH1 0x20 DUP3 DUP5 ADD ADD GT PUSH2 0x136 JUMPI PUSH2 0x342 SWAP2 PUSH1 0x20 DUP1 DUP6 ADD SWAP2 ADD PUSH2 0x166 JUMP JUMPDEST PUSH1 0x40 MLOAD RETURNDATASIZE PUSH0 DUP3 RETURNDATACOPY RETURNDATASIZE SWAP1 REVERT JUMPDEST PUSH1 0x40 MLOAD PUSH4 0x4C22E6A1 PUSH1 0xE0 SHL DUP2 MSTORE PUSH1 0x20 PUSH1 0x4 DUP3 ADD MSTORE PUSH1 0x24 DUP2 ADD DUP4 SWAP1 MSTORE SWAP2 DUP1 DUP3 PUSH1 0x44 DUP6 ADD CALLDATACOPY PUSH0 PUSH1 0x44 DUP3 DUP6 ADD ADD MSTORE PUSH0 DUP4 PUSH1 0x44 DUP2 PUSH1 0x1F NOT PUSH1 0x1F DUP7 ADD AND DUP2 ADD SUB ADD DUP2 ADDRESS GAS STATICCALL PUSH0 SWAP4 DUP2 PUSH2 0x132F JUMPI JUMPDEST POP PUSH2 0x132A JUMPI PUSH2 0x342 SWAP3 POP CALLDATASIZE SWAP2 PUSH2 0xAA9 JUMP JUMPDEST POP POP SWAP1 JUMP JUMPDEST PUSH2 0x134C SWAP2 SWAP5 POP RETURNDATASIZE DUP1 PUSH0 DUP4 RETURNDATACOPY PUSH2 0x1344 DUP2 DUP4 PUSH2 0xA60 JUMP JUMPDEST DUP2 ADD SWAP1 PUSH2 0x1268 JUMP JUMPDEST SWAP3 PUSH0 PUSH2 0x1319 JUMP JUMPDEST SWAP1 PUSH1 0x1F DUP3 GT PUSH2 0x1360 JUMPI POP POP JUMP JUMPDEST PUSH1 0x1 SWAP2 PUSH1 0x1 PUSH0 MSTORE PUSH32 0xB10E2D527612073B26EECDFD717E6A320CF44B4AFAC2B0732D9FCBE2B7FA0CF6 SWAP1 PUSH1 0x20 PUSH1 0x1F DUP5 ADD PUSH1 0x5 SHR DUP4 ADD SWAP4 LT PUSH2 0x13BA JUMPI JUMPDEST PUSH1 0x1F ADD PUSH1 0x5 SHR ADD SWAP1 JUMPDEST DUP2 DUP2 LT PUSH2 0x13B0 JUMPI POP POP POP JUMP JUMPDEST PUSH0 DUP2 SSTORE DUP3 ADD PUSH2 0x13A4 JUMP JUMPDEST SWAP1 SWAP2 POP DUP2 SWAP1 PUSH2 0x139B JUMP JUMPDEST PUSH1 0x1F DUP2 GT PUSH2 0x13D0 JUMPI POP POP JUMP JUMPDEST PUSH1 0x2 PUSH0 MSTORE PUSH32 0x405787FA12A823E0F2B7631CC41B3BA8828B3321CA811111FA75CD3AA3BB5ACE SWAP1 PUSH1 0x20 PUSH1 0x1F DUP5 ADD PUSH1 0x5 SHR DUP4 ADD SWAP4 LT PUSH2 0x1427 JUMPI JUMPDEST PUSH1 0x1F ADD PUSH1 0x5 SHR ADD SWAP1 JUMPDEST DUP2 DUP2 LT PUSH2 0x141C JUMPI POP POP JUMP JUMPDEST PUSH0 DUP2 SSTORE PUSH1 0x1 ADD PUSH2 0x1411 JUMP JUMPDEST SWAP1 SWAP2 POP DUP2 SWAP1 PUSH2 0x1408 JUMP JUMPDEST SWAP1 DUP2 MLOAD PUSH1 0x1 PUSH1 0x1 PUSH1 0x40 SHL SUB DUP2 GT PUSH2 0x7FE JUMPI PUSH2 0x1456 DUP2 PUSH2 0x1451 PUSH1 0x2 SLOAD PUSH2 0xB8E JUMP JUMPDEST PUSH2 0x13C4 JUMP JUMPDEST PUSH1 0x20 DUP1 PUSH1 0x1F DUP4 GT PUSH1 0x1 EQ PUSH2 0x148B JUMPI POP DUP2 SWAP1 PUSH2 0x1486 SWAP4 SWAP5 PUSH0 SWAP3 PUSH2 0x76E JUMPI POP POP DUP2 PUSH1 0x1 SHL SWAP2 PUSH0 NOT SWAP1 PUSH1 0x3 SHL SHR NOT AND OR SWAP1 JUMP JUMPDEST PUSH1 0x2 SSTORE JUMP JUMPDEST SWAP1 PUSH1 0x1F NOT DUP4 AND SWAP5 PUSH2 0x14BD PUSH1 0x2 PUSH0 MSTORE PUSH32 0x405787FA12A823E0F2B7631CC41B3BA8828B3321CA811111FA75CD3AA3BB5ACE SWAP1 JUMP JUMPDEST SWAP3 PUSH0 SWAP1 JUMPDEST DUP8 DUP3 LT PUSH2 0x14F8 JUMPI POP POP DUP4 PUSH1 0x1 SWAP6 SWAP7 LT PUSH2 0x14E0 JUMPI JUMPDEST POP POP POP DUP2 SHL ADD PUSH1 0x2 SSTORE JUMP JUMPDEST ADD MLOAD PUSH0 NOT PUSH1 0xF8 DUP5 PUSH1 0x3 SHL AND SHR NOT AND SWAP1 SSTORE PUSH0 DUP1 DUP1 PUSH2 0x14D5 JUMP JUMPDEST DUP1 PUSH1 0x1 DUP6 SWAP7 DUP3 SWAP5 SWAP7 DUP7 ADD MLOAD DUP2 SSTORE ADD SWAP6 ADD SWAP4 ADD SWAP1 PUSH2 0x14C1 JUMP JUMPDEST PUSH2 0x151C SWAP2 DUP2 ADD SWAP1 PUSH2 0x1012 JUMP JUMPDEST PUSH0 JUMPDEST DUP2 MLOAD DUP2 LT ISZERO PUSH2 0x1549 JUMPI PUSH1 0x60 PUSH2 0x1533 DUP3 DUP5 PUSH2 0x1170 JUMP JUMPDEST MLOAD ADD MLOAD ISZERO PUSH2 0x1543 JUMPI PUSH1 0x1 ADD PUSH2 0x151E JUMP JUMPDEST POP POP PUSH0 SWAP1 JUMP JUMPDEST POP POP PUSH1 0x1 SWAP1 JUMP JUMPDEST PUSH0 DUP1 PUSH2 0x15C3 PUSH2 0x160F SWAP6 SWAP5 PUSH1 0x40 SWAP7 DUP8 SWAP2 DUP3 MLOAD PUSH2 0x1603 PUSH1 0x20 SWAP9 DUP3 DUP11 DUP1 SWAP5 ADD SWAP2 DUP3 MSTORE DUP4 DUP2 MSTORE PUSH2 0x157B DUP2 PUSH2 0xA0F JUMP JUMPDEST MLOAD SWAP1 KECCAK256 SWAP3 DUP6 MLOAD SWAP4 DUP4 DUP6 ADD MSTORE DUP3 DUP5 MSTORE PUSH2 0x1592 DUP5 PUSH2 0xA0F JUMP JUMPDEST PUSH2 0x15F3 PUSH2 0x159D PUSH2 0xD23 JUMP JUMPDEST PUSH2 0x15E3 PUSH2 0x15D0 DUP10 MLOAD SWAP3 PUSH2 0x15AF DUP5 PUSH2 0xA2A JUMP JUMPDEST DUP13 DUP5 MSTORE PUSH1 0xA0 DUP12 MLOAD SWAP12 DUP13 SWAP10 DUP11 ADD SWAP14 DUP15 PUSH1 0x4 SWAP1 MSTORE JUMP JUMPDEST DUP10 ADD MSTORE PUSH1 0xC0 DUP9 ADD SWAP1 PUSH2 0x187 JUMP JUMPDEST PUSH1 0x1F NOT SWAP8 DUP9 DUP9 DUP4 SUB ADD PUSH1 0x60 DUP10 ADD MSTORE PUSH2 0x187 JUMP JUMPDEST SWAP1 DUP7 DUP7 DUP4 SUB ADD PUSH1 0x80 DUP8 ADD MSTORE PUSH2 0x187 JUMP JUMPDEST SWAP1 DUP5 DUP5 DUP4 SUB ADD PUSH1 0xA0 DUP6 ADD MSTORE PUSH2 0x187 JUMP JUMPDEST SUB SWAP1 DUP2 ADD DUP4 MSTORE DUP3 PUSH2 0xA60 JUMP JUMPDEST MLOAD SWAP1 PUSH1 0x7 PUSH1 0x1 PUSH1 0x98 SHL ADD GAS STATICCALL SWAP1 PUSH2 0x1624 PUSH2 0x1671 JUMP JUMPDEST SWAP2 ISZERO PUSH2 0x163D JUMPI PUSH2 0x342 SWAP3 SWAP4 POP DUP1 DUP3 MLOAD DUP4 ADD ADD SWAP2 ADD PUSH2 0x1AFA JUMP JUMPDEST PUSH1 0x64 SWAP1 DUP5 MLOAD SWAP1 PUSH3 0x461BCD PUSH1 0xE5 SHL DUP3 MSTORE PUSH1 0x4 DUP3 ADD MSTORE PUSH1 0xE PUSH1 0x24 DUP3 ADD MSTORE PUSH14 0x1D995C9A599E4E8819985A5B1959 PUSH1 0x92 SHL PUSH1 0x44 DUP3 ADD MSTORE REVERT JUMPDEST RETURNDATASIZE ISZERO PUSH2 0x169B JUMPI RETURNDATASIZE SWAP1 PUSH2 0x1682 DUP3 PUSH2 0xA8E JUMP JUMPDEST SWAP2 PUSH2 0x1690 PUSH1 0x40 MLOAD SWAP4 DUP5 PUSH2 0xA60 JUMP JUMPDEST DUP3 MSTORE RETURNDATASIZE PUSH0 PUSH1 0x20 DUP5 ADD RETURNDATACOPY JUMP JUMPDEST PUSH1 0x60 SWAP1 JUMP JUMPDEST PUSH2 0x1603 PUSH2 0x16FA PUSH0 SWAP5 SWAP4 DUP6 SWAP5 PUSH1 0x40 MLOAD SWAP4 DUP5 SWAP2 PUSH2 0x16EA PUSH2 0x16D7 PUSH1 0x20 DUP6 ADD SWAP9 PUSH2 0x16C6 DUP11 PUSH1 0x4 SWAP1 MSTORE JUMP JUMPDEST PUSH1 0x80 PUSH1 0x40 DUP8 ADD MSTORE PUSH1 0xA0 DUP7 ADD SWAP1 PUSH2 0x187 JUMP JUMPDEST PUSH1 0x1F NOT SWAP6 DUP7 DUP7 DUP4 SUB ADD PUSH1 0x60 DUP8 ADD MSTORE PUSH2 0x187 JUMP JUMPDEST SWAP1 DUP5 DUP5 DUP4 SUB ADD PUSH1 0x80 DUP6 ADD MSTORE PUSH2 0x187 JUMP JUMPDEST MLOAD SWAP1 PUSH1 0x6 PUSH1 0x1 PUSH1 0x98 SHL ADD GAS STATICCALL PUSH2 0x170E PUSH2 0x1671 JUMP JUMPDEST SWAP1 ISZERO PUSH2 0x1717 JUMPI SWAP1 JUMP JUMPDEST PUSH1 0x40 MLOAD PUSH3 0x461BCD PUSH1 0xE5 SHL DUP2 MSTORE PUSH1 0x20 PUSH1 0x4 DUP3 ADD MSTORE PUSH1 0xC PUSH1 0x24 DUP3 ADD MSTORE PUSH12 0x1CDA59DB8E8819985A5B1959 PUSH1 0xA2 SHL PUSH1 0x44 DUP3 ADD MSTORE PUSH1 0x64 SWAP1 REVERT JUMPDEST PUSH1 0x40 MLOAD SWAP1 PUSH1 0x60 DUP3 ADD DUP3 DUP2 LT PUSH1 0x1 PUSH1 0x1 PUSH1 0x40 SHL SUB DUP3 GT OR PUSH2 0x7FE JUMPI PUSH1 0x40 MSTORE PUSH0 PUSH1 0x40 DUP4 DUP3 DUP2 MSTORE DUP3 PUSH1 0x20 DUP3 ADD MSTORE ADD MSTORE JUMP JUMPDEST PUSH2 0x178F SWAP1 SWAP4 SWAP2 SWAP3 SWAP4 PUSH2 0x1789 PUSH2 0x174B JUMP JUMPDEST POP PUSH2 0x19ED JUMP JUMPDEST SWAP3 PUSH2 0x1798 PUSH2 0x174B JUMP JUMPDEST PUSH1 0x8 DUP3 MLOAD LT PUSH2 0x1957 JUMPI PUSH1 0x1 PUSH1 0x1 PUSH1 0xF8 SHL SUB NOT SWAP2 PUSH1 0x3 PUSH1 0xFC SHL DUP4 PUSH2 0x17CB PUSH2 0x17BD DUP5 PUSH2 0x1B0F JUMP JUMPDEST MLOAD PUSH1 0x1 PUSH1 0x1 PUSH1 0xF8 SHL SUB NOT AND SWAP1 JUMP JUMPDEST AND SUB PUSH2 0x1957 JUMPI PUSH1 0x1 PUSH1 0xF9 SHL DUP1 DUP5 PUSH2 0x17E4 PUSH2 0x17BD DUP6 PUSH2 0x1B1C JUMP JUMPDEST AND SUB PUSH2 0x1957 JUMPI PUSH2 0x1808 PUSH2 0x1802 PUSH2 0x17FC PUSH2 0x17BD DUP6 PUSH2 0x1B2C JUMP JUMPDEST PUSH1 0xF8 SHR SWAP1 JUMP JUMPDEST PUSH1 0xFF AND SWAP1 JUMP JUMPDEST SWAP1 PUSH2 0x181B PUSH2 0x1802 PUSH2 0x17FC PUSH2 0x17BD DUP7 PUSH2 0x1B3C JUMP JUMPDEST SWAP2 PUSH1 0x21 DUP4 GT PUSH2 0x1957 JUMPI PUSH2 0x182D DUP4 PUSH2 0x1B81 JUMP JUMPDEST SWAP1 PUSH2 0x1849 PUSH2 0x1802 PUSH2 0x17FC PUSH2 0x17BD PUSH2 0x1843 DUP7 PUSH2 0x1B94 JUMP JUMPDEST DUP10 PUSH2 0x1B5C JUMP JUMPDEST SWAP3 PUSH1 0x21 DUP5 GT PUSH2 0x1957 JUMPI PUSH2 0x186F PUSH2 0x1862 PUSH2 0x17BD DUP6 DUP10 PUSH2 0x1B5C JUMP JUMPDEST PUSH1 0x1 PUSH1 0x1 PUSH1 0xF8 SHL SUB NOT AND SWAP1 JUMP JUMPDEST SUB PUSH2 0x1957 JUMPI DUP1 PUSH2 0x1887 PUSH2 0x1882 DUP6 DUP8 PUSH2 0x1BBE JUMP JUMPDEST PUSH2 0x1BA2 JUMP JUMPDEST SUB PUSH2 0x1957 JUMPI PUSH2 0x1897 DUP6 MLOAD SWAP2 PUSH2 0x1BB0 JUMP JUMPDEST SUB PUSH2 0x1957 JUMPI PUSH2 0x18A5 SWAP1 PUSH2 0x1BB0 JUMP JUMPDEST PUSH1 0x4 SWAP6 PUSH1 0x21 DUP5 EQ PUSH2 0x1969 JUMPI JUMPDEST PUSH1 0x21 DUP4 EQ PUSH2 0x191F JUMPI JUMPDEST POP PUSH1 0x20 SWAP1 DUP2 PUSH2 0x2B8 SWAP8 DUP7 ADD ADD MLOAD SWAP5 ADD ADD MLOAD SWAP2 PUSH1 0x20 DUP2 LT PUSH2 0x1908 JUMPI JUMPDEST POP PUSH1 0x20 DUP2 LT PUSH2 0x18F0 JUMPI JUMPDEST POP SWAP1 DUP3 MSTORE PUSH1 0x20 DUP3 ADD MSTORE DUP1 SWAP4 DUP6 PUSH2 0x1C13 JUMP JUMPDEST PUSH2 0x18FC PUSH2 0x1901 SWAP2 PUSH2 0x1BD9 JUMP JUMPDEST PUSH2 0x1BFB JUMP JUMPDEST SHR PUSH0 PUSH2 0x18DF JUMP JUMPDEST PUSH2 0x18FC PUSH2 0x1917 SWAP2 SWAP5 SWAP3 SWAP5 PUSH2 0x1BD9 JUMP JUMPDEST SHR SWAP2 PUSH0 PUSH2 0x18D5 JUMP JUMPDEST PUSH2 0x192F PUSH2 0x17BD DUP4 DUP8 SWAP10 SWAP6 SWAP10 PUSH2 0x1B5C JUMP JUMPDEST AND PUSH2 0x1957 JUMPI PUSH2 0x2B8 SWAP6 PUSH1 0x20 PUSH2 0x194D PUSH2 0x1947 DUP3 SWAP5 PUSH2 0x1B94 JUMP JUMPDEST SWAP3 PUSH2 0x1BCB JUMP JUMPDEST SWAP4 SWAP8 POP POP SWAP1 PUSH2 0x18BA JUMP JUMPDEST PUSH1 0x40 MLOAD PUSH4 0x86CD05C5 PUSH1 0xE0 SHL DUP2 MSTORE PUSH1 0x4 SWAP1 REVERT JUMPDEST DUP1 SWAP4 SWAP7 POP PUSH2 0x1979 PUSH2 0x17BD DUP7 PUSH2 0x1B4C JUMP JUMPDEST AND PUSH2 0x1957 JUMPI PUSH2 0x1989 PUSH1 0x5 SWAP7 PUSH2 0x1BCB JUMP JUMPDEST SWAP3 PUSH2 0x18B1 JUMP JUMPDEST PUSH2 0x199B SWAP2 DUP2 ADD SWAP1 PUSH2 0x1012 JUMP JUMPDEST PUSH0 JUMPDEST DUP2 MLOAD DUP2 LT ISZERO PUSH2 0x1549 JUMPI PUSH1 0x80 PUSH2 0x19B2 DUP3 DUP5 PUSH2 0x1170 JUMP JUMPDEST MLOAD ADD MLOAD ISZERO PUSH2 0x1543 JUMPI PUSH1 0x1 ADD PUSH2 0x199D JUMP JUMPDEST PUSH0 SLOAD PUSH1 0x1 PUSH1 0x1 PUSH1 0xA0 SHL SUB AND CALLER SUB PUSH2 0x19D5 JUMPI JUMP JUMPDEST PUSH1 0x40 MLOAD PUSH4 0x118CDAA7 PUSH1 0xE0 SHL DUP2 MSTORE CALLER PUSH1 0x4 DUP3 ADD MSTORE PUSH1 0x24 SWAP1 REVERT JUMPDEST PUSH1 0x21 DUP2 MLOAD SUB PUSH2 0x1AE8 JUMPI PUSH1 0x21 DUP2 ADD MLOAD SWAP1 DUP1 MLOAD ISZERO PUSH2 0x1184 JUMPI PUSH1 0x20 ADD MLOAD PUSH1 0xF8 SHR PUSH1 0x2 DUP2 EQ ISZERO DUP1 PUSH2 0x1ADD JUMPI JUMPDEST PUSH2 0x1ACB JUMPI PUSH0 DUP1 PUSH5 0x1000003D0 NOT PUSH1 0x40 MLOAD PUSH1 0x20 DUP2 ADD SWAP2 PUSH1 0x20 DUP4 MSTORE PUSH1 0x20 PUSH1 0x40 DUP4 ADD MSTORE PUSH1 0x20 PUSH1 0x60 DUP4 ADD MSTORE DUP1 PUSH1 0x7 DUP2 DUP1 DUP11 DUP1 MULMOD DUP11 MULMOD ADDMOD PUSH1 0x80 DUP4 ADD MSTORE PUSH4 0x400000F4 PUSH1 0x1 PUSH1 0xFE SHL SUB PUSH1 0xA0 DUP4 ADD MSTORE PUSH1 0xC0 DUP1 DUP4 ADD SWAP2 SWAP1 SWAP2 MSTORE DUP2 MSTORE PUSH2 0x1A70 DUP2 PUSH2 0xA45 JUMP JUMPDEST MLOAD SWAP1 PUSH1 0x5 GAS STATICCALL SWAP2 PUSH2 0x1A7F PUSH2 0x1671 JUMP JUMPDEST SWAP3 ISZERO PUSH2 0x1AB9 JUMPI PUSH2 0x1AA4 PUSH2 0x1A9E PUSH2 0x1A97 PUSH2 0x342 SWAP6 PUSH2 0x1D2C JUMP JUMPDEST SWAP4 DUP5 PUSH2 0x1BBE JUMP JUMPDEST PUSH1 0x1 AND SWAP1 JUMP JUMPDEST ISZERO PUSH2 0x1CEF JUMPI SWAP1 PUSH2 0x1AB3 SWAP1 PUSH2 0x1BE7 JUMP JUMPDEST SWAP1 PUSH2 0x1CEF JUMP JUMPDEST PUSH1 0x40 MLOAD PUSH4 0x102875ED PUSH1 0xE0 SHL DUP2 MSTORE PUSH1 0x4 SWAP1 REVERT JUMPDEST PUSH1 0x40 MLOAD PUSH4 0xAB4BE041 PUSH1 0xE0 SHL DUP2 MSTORE PUSH1 0x4 SWAP1 REVERT JUMPDEST POP PUSH1 0x3 DUP2 EQ ISZERO PUSH2 0x1A15 JUMP JUMPDEST PUSH1 0x40 MLOAD PUSH4 0x6446A2C5 PUSH1 0xE1 SHL DUP2 MSTORE PUSH1 0x4 SWAP1 REVERT JUMPDEST SWAP1 DUP2 PUSH1 0x20 SWAP2 SUB SLT PUSH2 0x136 JUMPI MLOAD PUSH2 0x342 DUP2 PUSH2 0x2A3 JUMP JUMPDEST DUP1 MLOAD ISZERO PUSH2 0x1184 JUMPI PUSH1 0x20 ADD SWAP1 JUMP JUMPDEST DUP1 MLOAD PUSH1 0x2 LT ISZERO PUSH2 0x1184 JUMPI PUSH1 0x22 ADD SWAP1 JUMP JUMPDEST DUP1 MLOAD PUSH1 0x1 LT ISZERO PUSH2 0x1184 JUMPI PUSH1 0x21 ADD SWAP1 JUMP JUMPDEST DUP1 MLOAD PUSH1 0x3 LT ISZERO PUSH2 0x1184 JUMPI PUSH1 0x23 ADD SWAP1 JUMP JUMPDEST DUP1 MLOAD PUSH1 0x4 LT ISZERO PUSH2 0x1184 JUMPI PUSH1 0x24 ADD SWAP1 JUMP JUMPDEST SWAP1 DUP2 MLOAD DUP2 LT ISZERO PUSH2 0x1184 JUMPI ADD PUSH1 0x20 ADD SWAP1 JUMP JUMPDEST PUSH4 0x4E487B71 PUSH1 0xE0 SHL PUSH0 MSTORE PUSH1 0x11 PUSH1 0x4 MSTORE PUSH1 0x24 PUSH0 REVERT JUMPDEST PUSH1 0x4 ADD SWAP1 DUP2 PUSH1 0x4 GT PUSH2 0x1B8F JUMPI JUMP JUMPDEST PUSH2 0x1B6D JUMP JUMPDEST SWAP1 PUSH1 0x1 DUP3 ADD DUP1 SWAP3 GT PUSH2 0x1B8F JUMPI JUMP JUMPDEST SWAP1 PUSH1 0x4 DUP3 ADD DUP1 SWAP3 GT PUSH2 0x1B8F JUMPI JUMP JUMPDEST SWAP1 PUSH1 0x2 DUP3 ADD DUP1 SWAP3 GT PUSH2 0x1B8F JUMPI JUMP JUMPDEST SWAP2 SWAP1 DUP3 ADD DUP1 SWAP3 GT PUSH2 0x1B8F JUMPI JUMP JUMPDEST PUSH0 NOT DUP2 ADD SWAP2 SWAP1 DUP3 GT PUSH2 0x1B8F JUMPI JUMP JUMPDEST PUSH1 0x20 SUB SWAP1 PUSH1 0x20 DUP3 GT PUSH2 0x1B8F JUMPI JUMP JUMPDEST PUSH5 0x1000003D0 NOT SWAP1 DUP2 SUB SWAP2 SWAP1 DUP3 GT PUSH2 0x1B8F JUMPI JUMP JUMPDEST PUSH1 0x3 DUP2 SWAP1 SHL SWAP2 SWAP1 PUSH1 0x1 PUSH1 0x1 PUSH1 0xFD SHL SUB DUP2 AND SUB PUSH2 0x1B8F JUMPI JUMP JUMPDEST SWAP2 PUSH1 0x40 DUP2 ADD SWAP2 PUSH1 0x1B DUP4 MSTORE DUP2 MLOAD SWAP1 PUSH1 0x20 PUSH0 DUP2 DUP6 ADD SWAP4 DUP5 MLOAD SWAP1 PUSH2 0x1C52 PUSH1 0x40 MLOAD SWAP3 DUP4 SWAP3 DUP8 DUP5 PUSH1 0x60 SWAP2 SWAP5 SWAP4 SWAP3 PUSH1 0x80 DUP3 ADD SWAP6 DUP3 MSTORE PUSH1 0x1B PUSH1 0x20 DUP4 ADD MSTORE PUSH1 0x40 DUP3 ADD MSTORE ADD MSTORE JUMP JUMPDEST DUP4 DUP1 MSTORE SUB SWAP1 PUSH1 0x1 GAS STATICCALL ISZERO PUSH2 0x1CEA JUMPI PUSH0 MLOAD PUSH1 0x1 PUSH1 0x1 PUSH1 0xA0 SHL SUB SWAP6 DUP7 AND SWAP6 AND DUP6 SWAP1 SUB PUSH2 0x1C7E JUMPI JUMPDEST POP POP POP POP POP JUMP JUMPDEST PUSH2 0x1CB0 PUSH0 SWAP4 PUSH1 0x1C PUSH1 0x20 SWAP7 MSTORE MLOAD SWAP3 MLOAD PUSH1 0x40 MLOAD SWAP4 DUP5 SWAP4 DUP5 PUSH1 0x60 SWAP2 SWAP5 SWAP4 SWAP3 PUSH1 0x80 DUP3 ADD SWAP6 DUP3 MSTORE PUSH1 0x1C PUSH1 0x20 DUP4 ADD MSTORE PUSH1 0x40 DUP3 ADD MSTORE ADD MSTORE JUMP JUMPDEST DUP4 DUP1 MSTORE SUB SWAP1 PUSH1 0x1 GAS STATICCALL ISZERO PUSH2 0x1CEA JUMPI PUSH0 MLOAD PUSH1 0x1 PUSH1 0x1 PUSH1 0xA0 SHL SUB AND SUB PUSH2 0x1CD8 JUMPI PUSH0 DUP1 DUP1 DUP1 DUP1 PUSH2 0x1C77 JUMP JUMPDEST PUSH1 0x40 MLOAD PUSH4 0x4532600D PUSH1 0xE0 SHL DUP2 MSTORE PUSH1 0x4 SWAP1 REVERT JUMPDEST PUSH2 0x12C6 JUMP JUMPDEST PUSH1 0x40 MLOAD SWAP2 PUSH1 0x20 DUP4 ADD SWAP2 DUP3 MSTORE PUSH1 0x40 DUP4 ADD MSTORE PUSH1 0x40 DUP3 MSTORE PUSH1 0x60 DUP3 ADD DUP3 DUP2 LT PUSH1 0x1 PUSH1 0x1 PUSH1 0x40 SHL SUB DUP3 GT OR PUSH2 0x7FE JUMPI PUSH1 0x40 MSTORE SWAP1 MLOAD SWAP1 KECCAK256 PUSH1 0x1 PUSH1 0x1 PUSH1 0xA0 SHL SUB AND SWAP1 JUMP JUMPDEST PUSH1 0x20 DUP2 MLOAD SWAP2 ADD MLOAD SWAP1 PUSH1 0x20 DUP2 LT PUSH2 0x1D40 JUMPI POP SWAP1 JUMP JUMPDEST PUSH0 NOT SWAP1 PUSH1 0x20 SUB PUSH1 0x3 SHL SHL AND SWAP1 JUMP INVALID LOG2 PUSH5 0x6970667358 0x22 SLT KECCAK256 0xB1 SAR MCOPY PUSH17 0xCAE314F5696C6302FC4D518043B09A38D7 0x1F PUSH0 0xEB DUP9 0xE6 0xFB 0x22 JUMP BALANCE 0xB2 PUSH14 0x64736F6C63430008180033000000 "
		},
		"gasEstimates": {
			"creation": {
				"codeDepositCost": "1511200",
				"executionCost": "infinite",
				"totalCost": "infinite"
			},
			"external": {
				"_validateExecution(bytes)": "infinite",
				"getOpinion(bytes,bytes)": "infinite",
				"getSigningKeypairPrivateKey(string)": "infinite",
				"getSigningKeypairPublicKey()": "infinite",
				"isKernelAllowed(bytes,uint256)": "infinite",
				"owner()": "2503",
				"registerdApp(bytes32)": "infinite",
				"renounceOwnership()": "28208",
				"setKernel(uint256,bool)": "26691",
				"setRuntimeDigest(bytes32,bool)": "26735",
				"setSigningKeypair(bytes,bytes)": "infinite",
				"setSigningKeypairRetrievalPassword(string)": "infinite",
				"setWhitelist(address,bool)": "26845",
				"sign(bytes,address,bytes,bytes,bytes,bytes)": "infinite",
				"transferOwnership(address)": "28456"
			},
			"internal": {
				"_generateKey()": "infinite",
				"_getFinalOpinion(bytes calldata)": "infinite",
				"_verifyAccessToken(bytes32,bytes memory)": "infinite",
				"_verifyExecutionPlan(bytes calldata)": "infinite",
				"_verifyRuntimeDigest(bytes32,bytes memory)": "infinite"
			}
		},
		"methodIdentifiers": {
			"_validateExecution(bytes)": "4c22e6a1",
			"getOpinion(bytes,bytes)": "64d6c07d",
			"getSigningKeypairPrivateKey(string)": "aa775b4a",
			"getSigningKeypairPublicKey()": "e498de5f",
			"isKernelAllowed(bytes,uint256)": "c7878ba1",
			"owner()": "8da5cb5b",
			"registerdApp(bytes32)": "688b87e8",
			"renounceOwnership()": "715018a6",
			"setKernel(uint256,bool)": "270e7c2f",
			"setRuntimeDigest(bytes32,bool)": "4cf0d40a",
			"setSigningKeypair(bytes,bytes)": "7355f88b",
			"setSigningKeypairRetrievalPassword(string)": "7998efb8",
			"setWhitelist(address,bool)": "53d6fd59",
			"sign(bytes,address,bytes,bytes,bytes,bytes)": "097b8b3b",
			"transferOwnership(address)": "f2fde38b"
		}
	},
	"abi": [
		{
			"inputs": [
				{
					"internalType": "address",
					"name": "initialOwner",
					"type": "address"
				}
			],
			"stateMutability": "nonpayable",
			"type": "constructor"
		},
		{
			"inputs": [],
			"name": "DER_Split_Error",
			"type": "error"
		},
		{
			"inputs": [
				{
					"internalType": "address",
					"name": "owner",
					"type": "address"
				}
			],
			"name": "OwnableInvalidOwner",
			"type": "error"
		},
		{
			"inputs": [
				{
					"internalType": "address",
					"name": "account",
					"type": "address"
				}
			],
			"name": "OwnableUnauthorizedAccount",
			"type": "error"
		},
		{
			"inputs": [],
			"name": "expmod_Error",
			"type": "error"
		},
		{
			"inputs": [],
			"name": "k256Decompress_Invalid_Length_Error",
			"type": "error"
		},
		{
			"inputs": [],
			"name": "k256DeriveY_Invalid_Prefix_Error",
			"type": "error"
		},
		{
			"inputs": [],
			"name": "recoverV_Error",
			"type": "error"
		},
		{
			"anonymous": false,
			"inputs": [
				{
					"indexed": true,
					"internalType": "address",
					"name": "previousOwner",
					"type": "address"
				},
				{
					"indexed": true,
					"internalType": "address",
					"name": "newOwner",
					"type": "address"
				}
			],
			"name": "OwnershipTransferred",
			"type": "event"
		},
		{
			"inputs": [
				{
					"internalType": "bytes",
					"name": "executionPlan",
					"type": "bytes"
				}
			],
			"name": "_validateExecution",
			"outputs": [
				{
					"internalType": "bytes",
					"name": "",
					"type": "bytes"
				}
			],
			"stateMutability": "view",
			"type": "function"
		},
		{
			"inputs": [
				{
					"internalType": "bytes",
					"name": "auth",
					"type": "bytes"
				},
				{
					"internalType": "bytes",
					"name": "executionPlan",
					"type": "bytes"
				}
			],
			"name": "getOpinion",
			"outputs": [
				{
					"internalType": "bytes",
					"name": "",
					"type": "bytes"
				}
			],
			"stateMutability": "view",
			"type": "function"
		},
		{
			"inputs": [
				{
					"internalType": "string",
					"name": "_password",
					"type": "string"
				}
			],
			"name": "getSigningKeypairPrivateKey",
			"outputs": [
				{
					"internalType": "bytes",
					"name": "",
					"type": "bytes"
				}
			],
			"stateMutability": "view",
			"type": "function"
		},
		{
			"inputs": [],
			"name": "getSigningKeypairPublicKey",
			"outputs": [
				{
					"internalType": "bytes",
					"name": "",
					"type": "bytes"
				},
				{
					"internalType": "address",
					"name": "",
					"type": "address"
				}
			],
			"stateMutability": "view",
			"type": "function"
		},
		{
			"inputs": [
				{
					"internalType": "bytes",
					"name": "auth",
					"type": "bytes"
				},
				{
					"internalType": "uint256",
					"name": "kernelId",
					"type": "uint256"
				}
			],
			"name": "isKernelAllowed",
			"outputs": [
				{
					"internalType": "bool",
					"name": "",
					"type": "bool"
				}
			],
			"stateMutability": "view",
			"type": "function"
		},
		{
			"inputs": [],
			"name": "owner",
			"outputs": [
				{
					"internalType": "address",
					"name": "",
					"type": "address"
				}
			],
			"stateMutability": "view",
			"type": "function"
		},
		{
			"inputs": [
				{
					"internalType": "bytes32",
					"name": "entryId",
					"type": "bytes32"
				}
			],
			"name": "registerdApp",
			"outputs": [
				{
					"internalType": "bytes",
					"name": "",
					"type": "bytes"
				}
			],
			"stateMutability": "view",
			"type": "function"
		},
		{
			"inputs": [],
			"name": "renounceOwnership",
			"outputs": [],
			"stateMutability": "nonpayable",
			"type": "function"
		},
		{
			"inputs": [
				{
					"internalType": "uint256",
					"name": "kernelId",
					"type": "uint256"
				},
				{
					"internalType": "bool",
					"name": "allowed",
					"type": "bool"
				}
			],
			"name": "setKernel",
			"outputs": [],
			"stateMutability": "nonpayable",
			"type": "function"
		},
		{
			"inputs": [
				{
					"internalType": "bytes32",
					"name": "runtimeDigest",
					"type": "bytes32"
				},
				{
					"internalType": "bool",
					"name": "allowed",
					"type": "bool"
				}
			],
			"name": "setRuntimeDigest",
			"outputs": [],
			"stateMutability": "nonpayable",
			"type": "function"
		},
		{
			"inputs": [
				{
					"internalType": "bytes",
					"name": "pubKey",
					"type": "bytes"
				},
				{
					"internalType": "bytes",
					"name": "privKey",
					"type": "bytes"
				}
			],
			"name": "setSigningKeypair",
			"outputs": [],
			"stateMutability": "nonpayable",
			"type": "function"
		},
		{
			"inputs": [
				{
					"internalType": "string",
					"name": "_password",
					"type": "string"
				}
			],
			"name": "setSigningKeypairRetrievalPassword",
			"outputs": [],
			"stateMutability": "nonpayable",
			"type": "function"
		},
		{
			"inputs": [
				{
					"internalType": "address",
					"name": "krnlNodePubKey",
					"type": "address"
				},
				{
					"internalType": "bool",
					"name": "allowed",
					"type": "bool"
				}
			],
			"name": "setWhitelist",
			"outputs": [],
			"stateMutability": "nonpayable",
			"type": "function"
		},
		{
			"inputs": [
				{
					"internalType": "bytes",
					"name": "auth",
					"type": "bytes"
				},
				{
					"internalType": "address",
					"name": "senderAddress",
					"type": "address"
				},
				{
					"internalType": "bytes",
					"name": "executionPlan",
					"type": "bytes"
				},
				{
					"internalType": "bytes",
					"name": "functionParams",
					"type": "bytes"
				},
				{
					"internalType": "bytes",
					"name": "kernelParams",
					"type": "bytes"
				},
				{
					"internalType": "bytes",
					"name": "kernelResponses",
					"type": "bytes"
				}
			],
			"name": "sign",
			"outputs": [
				{
					"internalType": "bytes",
					"name": "",
					"type": "bytes"
				},
				{
					"internalType": "bytes32",
					"name": "",
					"type": "bytes32"
				},
				{
					"internalType": "bytes",
					"name": "",
					"type": "bytes"
				},
				{
					"internalType": "bool",
					"name": "",
					"type": "bool"
				}
			],
			"stateMutability": "view",
			"type": "function"
		},
		{
			"inputs": [
				{
					"internalType": "address",
					"name": "newOwner",
					"type": "address"
				}
			],
			"name": "transferOwnership",
			"outputs": [],
			"stateMutability": "nonpayable",
			"type": "function"
		}
	]
}